:020000040000FA
:1000000020080020AD0000001701000011040000CE
:10001000FFFFFFFFFFFFFFFFFFFFFFFFFFFFFFFFF0
:10002000FFFFFFFFFFFFFFFFFFFFFFFF1B010000C0
:10003000FFFFFFFFFFFFFFFF1D0100001F0100008A
:100040000348854600F094F8004800477108000016
:100050002008002001688D464168084730B50B46EE
:10006000014600202022012409E00D46D5409D4292
:1000700005D31D469540491B254695404019154618
:10008000521E002DF1DC30BD10B5092103200022E5
:10009000C9020004012300F017F910BD00690840EF
:1000A00000D0012070477047ED0600001C488047D3
:1000B0001C4880471C4800471C480169002908D19A
:1000C0004169002905D18169002902D1C16900294E
:1000D00009D01748C1680901090D00290ED005296A
:1000E0000CD006290AD0BFF34F8F12481249016085
:1000F00012491148C860BFF34F8FFEE70D480168F1
:100100000D48884200D070470D480E4901600948EB
:100110000D4901607047FEE7FEE7FEE7FEE7FEE7F8
:10012000B90000002D050000410000000003084058
:1001300080010840000000200400FA0500ED00E006
:1001400000810840010000000000000003460B434E
:100150009B0703D009E008C9121F08C0042AFAD27D
:1001600003E00B780370401C491C521EF9D2704703
:10017000064C0125064E05E0E36807CC2B430C3CFA
:1001800098471034B442F7D3FFF75EFF4C0A0000E3
:100190006C0A0000F0B596460A461349C00046189E
:1001A00000230025FF2098402C46104216D0002046
:1001B000012199408C461146C1406746394206D01C
:1001C00087000F21B9400D437146B9400C43401CD4
:1001D0000828F0D33068A843204330600833361D28
:1001E000082BDEDDF0BD00002020024070B5184D68
:1001F0000446686B4607760F00F02EF8154920601C
:10020000330000F0B7FA081405070714140E111490
:10021000606000E06160296A6068052909D34009CF
:1002200008E00120C003F3E77D200002F0E7002092
:10023000EEE7C840A060A96A4903490F072902D028
:10024000C840E06070BD0321FFF708FFF9E7000038
:100250000080084000127A000C490868C869C20F83
:100260004868400AC007C00F0ED00948002A0BD1C9
:100270008869C00D0007000F00D110208969044A69
:100280004902890F5043C840704700000080084071
:1002900000127A001FB541090A4A89008A18002114
:1002A0002E2800D10221C006C00E1268032383400D
:1002B0001A40C24054186846FFF798FF029804B0ED
:1002C000E04010BD38800840F0B5084F7C6AFD6AF8
:1002D0003E6B84438D439643002B02D004430D4371
:1002E00016437C62FD623E63F0BD00000080084062
:1002F000F7B582B01546002808D000210091C8212A
:10030000FFF7ACFE06460F4600240FE0012005B0C3
:10031000F0BDC8221049284600F01CFB6A46C821DF
:100320000D4800F051FA641CC8350090B442F0D377
:10033000781EC7280AD23A460749284600F00AFB29
:100340006A463946044800F03FFA00900398009945
:1003500001600020DBE700003804002000B50449FC
:1003600008600820C8601420086100F029F800BD6A
:100370000000084010B50A4B03218A00D418246AF3
:10038000E4438450491EF8D5196BC907C917491CA5
:100390000161196B8907C917491C416110BD000033
:1003A0000000084000B5054A106051600420D0608C
:1003B0001420106100F004F800BD000000000840A7
:1003C00010B5124910484A6902231A434A6114229F
:1003D0000A6104E00A691207920F032A01D0401E45
:1003E000F8D28A698C699C438C61910301D5022003
:1003F00010BD910701D5012010BD002801D00020BB
:1004000010BD032010BD0000FFFF0F0000000840DA
:10041000024801680029FCD0704700001800002045
:1004200010B50124240320680721490740180B490F
:10043000884212D260683B21001B890288420CD29C
:100440000749A0030860074800F0EAF821460020A9
:1004500000F04EF82046FFF7FDFD10BD0120000022
:1004600080E100E000100440FFB5044681B002982E
:100470001746221826460720C73600032546844221
:1004800001D1012300E000232946082000F042F9B1
:100490004F2813D00BE0C8221049384600F040FA2C
:1004A000C8220E49204600F063FA4F2802D04620A9
:1004B00005B0F0BD751CC936C834C8370720000325
:1004C0008542E8D9024669460298FFF711FF009974
:1004D00004988142ECD14F20EAE70000510500204A
:1004E00001200249800608607047000000E100E03A
:1004F000024A1140014302488160704780FFFF1F9C
:1005000000ED00E0F0B5084F7C68BD68FE688443EC
:100510008D439643002B02D004430D4316437C6069
:10052000BD60FE60F0BD000000810840F0B53749B5
:100530001020C860364E012030603649086B4025D7
:10054000284308633448002344158268272AFCD1D5
:1005500000E0446042689205FBD500E043604268D9
:100560009205FBD43360486A0322920290434862AA
:1005700048680122D202104348608868C008C0075A
:10058000FBD04868C008C000C01C4860486B4007EA
:10059000400F0328FAD1214A1068C008C000401C4F
:1005A00010600B624868A0434860086896153043A5
:1005B0000860486817153843486088688008C00795
:1005C000FBD0086BA84308630868B04308600520A7
:1005D000C005886148682043486088684008C007B3
:1005E000FBD01068C008C000801C10600B62486817
:1005F000C008C000401C4860486B4007400F0128FD
:10060000FAD11168102001431160F0BD008108404B
:10061000008308400080084000A106400002084016
:100620000021012310B59B070A46984200D181158D
:10063000074B984201D103151943064B984201D14B
:10064000C014014301231046FFF75CFF10BD0000FA
:10065000001000400010044070B504460D46C888E4
:100660008988626808432989134B1A40114308435B
:1006700069890843606001208007844206D1182000
:10068000FFF708FE2968FFF7E9FC60620B48844227
:1006900006D11C20FFF7FEFD2968FFF7DFFC606232
:1006A0000748844206D11E20FFF7F4FD2968FFF7B2
:1006B000D5FC606270BD0000FCE0FFFF0010004050
:1006C00000100440002AC26801D00A4300E08A43B7
:1006D000C26070470160704710238B404168002A58
:1006E00001D0194300E09943416070470649086909
:1006F000800608D5054A10680968054B1954401C46
:100700008005800D10607047001004401C00002020
:100710003800002070B51546521A002B08D00A2860
:1007200010D00120C00381420CD31F20800207E0BB
:100730000A2807D001200003814203D33B20800216
:10074000824201D9462070BD01260C46B60203E064
:100750002046FFF703FEA419AC42F9D94F2070BD23
:1007600010B5024A024900F020F810BD050800004B
:100770003400002030B47446641E2578641CAB42FB
:1007800000D21D46635D5B00E31830BC184702E0F1
:1007900008C8121F08C1002AFAD17047002001E0E2
:1007A00001C1121F002AFBD17047F8B516460F464B
:1007B0000446002503E03946B047641C6D1C2078D0
:1007C0000028F8D12846F8BDF0B50026F643002AE7
:1007D00004D01268D2430024094F0DE03246FAE7F4
:1007E000035D5A4008235508D20700D032463A40EC
:1007F0006A405B1EF7D1641C8C42F1D3D043F0BD3C
:100800002083B8ED70B50125044681B2AD072846B6
:10081000FFF760FFAE1531462846FFF73FFC002882
:10082000F9D0204670BD000070B50E4800F0BEF84B
:100830000E480D4C0546806DA0600C484035C06DDB
:1008400020600A48006E60600848014664314EC965
:1008500048304EC03B20800200F0A8F8A869E06054
:1008600070BD000048E8000024000020B80400200B
:10087000FFF736FEFFF708FC00F0B0F8FFF7D4FFF3
:100880001A4E1B4801681B4881422BD10721306852
:1008900009031D244218E402A24223D20A46164943
:1008A000FFF726FD144D154F2D1F686839688842E3
:1008B00018D113A0FFF754FF0722012012033B6851
:1008C00000033168FFF7D0FDC0B228704F28D8D19F
:1008D0000125AD020F273F032046FFF73FFD6419B6
:1008E000BC42F9D3FFF79CFDCBE7000024000020B9
:1008F00030000020F5FAAA5514000020280000203E
:1009000054484953207374617274204941505F57B1
:10091000726974655F466C617368210A00000000AB
:10092000F8B50646002017460546044600900CE040
:10093000306800900648042240196946FFF706FC1B
:100940002D1D241DEDB2E4B2361DBC42F0D3F8BD1E
:100950005105002070B50024234605E020C80E197B
:100960001B1DDBB2241D35609342F7D370BD000020
:10097000F0B587B0054686186846FFF7FBFC0024F3
:10098000094F0BE03919042206A8FFF7DFFB2846C0
:100990000699FFF707FD241DE4B22D1DB542F1D3E2
:1009A0004F2007B0F0BD000051050020F8B5064605
:1009B0000020094F054604460090306800907819E1
:1009C00004226946FFF7C2FB641CE4B22D1D361DEC
:1009D000102CF2D3F8BD0000100500203EB5012315
:1009E0009B0319439C1107231B0418432143012334
:1009F000FFF76AFC062210210220FFF7CBFB06223C
:100A000020210220FFF7C6FBE1204002009069464A
:100A10008C800020C88008814881A4052046FFF70B
:100A20001BFE012211462046FFF74CFE0122002149
:100A30002046FFF751FE012211462046FFF74CFEEB
:100A40000149E01108603EBD00E100E06C0A0000D1
:100A500010000020280000008E070000940A00000B
:100A600038000020E80700009C070000000000009C
:100A70000000000000000000000000000000000076
:100A80000000000000000000000000000000000066
:040A90000000000062
:04000005000000AD4A
:00000001FF
