:020000040000FA
:1000000020080020AD0000001701000011040000CE
:10001000FFFFFFFFFFFFFFFFFFFFFFFFFFFFFFFFF0
:10002000FFFFFFFFFFFFFFFFFFFFFFFF1B010000C0
:10003000FFFFFFFFFFFFFFFF1D0100001F0100008A
:100040000348854600F094F8004800477108000016
:100050002008002001688D464168084730B50B46EE
:10006000014600202022012409E00D46D5409D4292
:1000700005D31D469540491B254695404019154618
:10008000521E002DF1DC30BD10B5092103200022E5
:10009000C9020004012300F017F910BD00690840EF
:1000A00000D0012070477047ED0600001C488047D3
:1000B0001C4880471C4800471C480169002908D19A
:1000C0004169002905D18169002902D1C16900294E
:1000D00009D01748C1680901090D00290ED005296A
:1000E0000CD006290AD0BFF34F8F12481249016085
:1000F00012491148C860BFF34F8FFEE70D480168F1
:100100000D48884200D070470D480E4901600948EB
:100110000D4901607047FEE7FEE7FEE7FEE7FEE7F8
:10012000B90000002D050000410000000003084058
:1001300080010840000000200400FA0500ED00E006
:1001400000810840010000000000000003460B434E
:100150009B0703D009E008C9121F08C0042AFAD27D
:1001600003E00B780370401C491C521EF9D2704703
:10017000064C0125064E05E0E36807CC2B430C3CFA
:1001800098471034B442F7D3FFF75EFF4C0A0000E3
:100190006C0A0000F0B596460A461349C00046189E
:1001A00000230025FF2098402C46104216D0002046
:1001B000012199408C461146C1406746394206D01C
:1001C00087000F21B9400D437146B9400C43401CD4
:1001D0000828F0D33068A843204330600833361D28
:1001E000082BDEDDF0BD00002020024070B5184D68
:1001F0000446686B4607760F00F02EF8154920601C
:10020000330000F0B7FA081405070714140E111490
:10021000606000E06160296A6068052909D34009CF
:1002200008E00120C003F3E77D200002F0E7002092
:10023000EEE7C840A060A96A4903490F072902D028
:10024000C840E06070BD0321FFF708FFF9E7000038
:100250000080084000127A000C490868C869C20F83
:100260004868400AC007C00F0ED00948002A0BD1C9
:100270008869C00D0007000F00D110208969044A69
:100280004902890F5043C840704700000080084071
:1002900000127A001FB541090A4A89008A18002114
:1002A0002E2800D10221C006C00E1268032383400D
:1002B0001A40C24054186846FFF798FF029804B0ED
:1002C000E04010BD38800840F0B5084F7C6AFD6AF8
:1002D0003E6B84438D439643002B02D004430D4371
:1002E00016437C62FD623E63F0BD00000080084062
:1002F000F7B582B01546002808D000210091C8212A
:10030000FFF7ACFE06460F4600240FE0012005B0C3
:10031000F0BDC8221049284600F01CFB6A46C821DF
:100320000D4800F051FA641CC8350090B442F0D377
:10033000781EC7280AD23A460749284600F00AFB29
:100340006A463946044800F03FFA00900398009945
:1003500001600020DBE700003804002000B50449FC
:1003600008600820C8601420086100F029F800BD6A
:100370000000084010B50A4B03218A00D418246AF3
:10038000E4438450491EF8D5196BC907C917491CA5
:100390000161196B8907C917491C416110BD000033
:1003A0000000084000B5054A106051600420D0608C
:1003B0001420106100F004F800BD000000000840A7
:1003C00010B5124910484A6902231A434A6114229F
:1003D0000A6104E00A691207920F032A01D0401E45
:1003E000F8D28A698C699C438C61910301D5022003
:1003F00010BD910701D5012010BD002801D00020BB
:1004000010BD032010BD0000FFFF0F0000000840DA
:10041000024801680029FCD0704700001800002045
:1004200010B50124240320680721490740180B490F
:10043000884212D260683B21001B890288420CD29C
:100440000749A0030860074800F0EAF821460020A9
:1004500000F04EF82046FFF7FDFD10BD0120000022
:1004600080E100E000100440FFB5044681B002982E
:100470001746221826460720C73600032546844221
:1004800001D1012300E000232946082000F042F9B1
:100490004F2813D00BE0C8221049384600F040FA2C
:1004A000C8220E49204600F063FA4F2802D04620A9
:1004B00005B0F0BD751CC936C834C8370720000325
:1004C0008542E8D9024669460298FFF711FF009974
:1004D00004988142ECD14F20EAE70000510500204A
:1004E00001200249800608607047000000E100E03A
:1004F000024A1140014302488160704780FFFF1F9C
:1005000000ED00E0F0B5084F7C68BD68FE688443EC
:100510008D439643002B02D004430D4316437C6069
:10052000BD60FE60F0BD000000810840F0B53749B5
:100530001020C860364E012030603649086B4025D7
:10054000284308633448002344158268272AFCD1D5
:1005500000E0446042689205FBD500E043604268D9
:100560009205FBD43360486A0322920290434862AA
:1005700048680122D202104348608868C008C0075A
:10058000FBD04868C008C000C01C4860486B4007EA
:10059000400F0328FAD1214A1068C008C000401C4F
:1005A00010600B624868A0434860086896153043A5
:1005B0000860486817153843486088688008C00795
:1005C000FBD0086BA84308630868B04308600520A7
:1005D000C005886148682043486088684008C007B3
:1005E000FBD01068C008C000801C10600B62486817
:1005F000C008C000401C4860486B4007400F0128FD
:10060000FAD11168102001431160F0BD008108404B
:10061000008308400080084000A106400002084016
:100620000021012310B59B070A46984200D181158D
:10063000074B984201D103151943064B984201D14B
:10064000C014014301231046FFF75CFF10BD0000FA
:10065000001000400010044070B504460D46C888E4
:100660008988626808432989134B1A40114308435B
:1006700069890843606001208007844206D1182000
:10068000FFF708FE2968FFF7E9FC60620B48844227
:1006900006D11C20FFF7FEFD2968FFF7DFFC606232
:1006A0000748844206D11E20FFF7F4FD2968FFF7B2
:1006B000D5FC606270BD0000FCE0FFFF0010004050
:1006C00000100440002AC26801D00A4300E08A43B7
:1006D000C26070470160704710238B404168002A58
:1006E00001D0194300E09943416070470649086909
:1006F000800608D5054A10680968054B1954401C46
:100700008005800D10607047001004401C00002020
:100710003800002070B51546521A002B08D00A2860
:1007200010D00120C00381420CD31F20800207E0BB
:100730000A2807D001200003814203D33B20800216
:10074000824201D9462070BD01260C46B60203E064
:100750002046FFF703FEA419AC42F9D94F2070BD23
:1007600010B5024A024900F020F810BD050800004B
:100770003400002030B47446641E2578641CAB42FB
:1007800000D21D46635D5B00E31830BC184702E0F1
:1007900008C8121F08C1002AFAD17047002001E0E2
:1007A00001C1121F002AFBD17047F8B516460F464B
:1007B0000446002503E03946B047641C6D1C2078D0
:1007C0000028F8D12846F8BDF0B50026F643002AE7
:1007D00004D01268D2430024094F0DE03246FAE7F4
:1007E000035D5A4008235508D20700D032463A40EC
:1007F0006A405B1EF7D1641C8C42F1D3D043F0BD3C
:100800002083B8ED70B50125044681B2AD072846B6
:10081000FFF760FFAE1531462846FFF73FFC002882
:10082000F9D0204670BD000070B50E4800F0BEF84B
:100830000E480D4C0546806DA0600C484035C06DDB
:1008400020600A48006E60600848014664314EC965
:1008500048304EC03B20800200F0A8F8A869E06054
:1008600070BD000048E8000024000020B80400200B
:10087000FFF736FEFFF708FC00F0B0F8FFF7D4FFF3
:100880001A4E1B4801681B4881422BD10721306852
:1008900009031D244218E402A24223D20A46164943
:1008A000FFF726FD144D154F2D1F686839688842E3
:1008B00018D113A0FFF754FF0722012012033B6851
:1008C00000033168FFF7D0FDC0B228704F28D8D19F
:1008D0000125AD020F273F032046FFF73FFD6419B6
:1008E000BC42F9D3FFF79CFDCBE7000024000020B9
:1008F00030000020F5FAAA5514000020280000203E
:1009000054484953207374617274204941505F57B1
:10091000726974655F466C617368210A00000000AB
:10092000F8B50646002017460546044600900CE040
:10093000306800900648042240196946FFF706FC1B
:100940002D1D241DEDB2E4B2361DBC42F0D3F8BD1E
:100950005105002070B50024234605E020C80E197B
:100960001B1DDBB2241D35609342F7D370BD000020
:10097000F0B587B0054686186846FFF7FBFC0024F3
:10098000094F0BE03919042206A8FFF7DFFB2846C0
:100990000699FFF707FD241DE4B22D1DB542F1D3E2
:1009A0004F2007B0F0BD000051050020F8B5064605
:1009B0000020094F054604460090306800907819E1
:1009C00004226946FFF7C2FB641CE4B22D1D361DEC
:1009D000102CF2D3F8BD0000100500203EB5012315
:1009E0009B0319439C1107231B0418432143012334
:1009F000FFF76AFC062210210220FFF7CBFB06223C
:100A000020210220FFF7C6FBE1204002009069464A
:100A10008C800020C88008814881A4052046FFF70B
:100A20001BFE012211462046FFF74CFE0122002149
:100A30002046FFF751FE012211462046FFF74CFEEB
:100A40000149E01108603EBD00E100E06C0A0000D1
:100A500010000020280000008E070000940A00000B
:100A600038000020E80700009C070000000000009C
:100A70000000000000000000000000000000000076
:100A80000000000000000000000000000000000066
:040A90000000000062
:020000040000FA
:1010000030130020AD100000F52B0000012100007E
:10101000FFFFFFFFFFFFFFFFFFFFFFFFFFFFFFFFE0
:10102000FFFFFFFFFFFFFFFFFFFFFFFF0532000095
:10103000FFFFFFFFFFFFFFFF4530000069320000A8
:10104000792900005D31000021110000551B0000CE
:10105000B51B0000BD1B0000C51B0000FFFFFFFF0C
:1010600029170000FFFFFFFF21110000FFFFFFFF16
:10107000791F000021110000211100002111000042
:101080002111000019180000211100002111000099
:10109000211100002111000021110000433800003F
:1010A000FFFFFFFF21380000413800001D48804746
:1010B0001D4880471D4800471D480169002908D187
:1010C0004169002905D18169002902D1C16900293E
:1010D00009D01848C1680901090D00290ED0052959
:1010E0000CD006290AD0BFF34F8F13481349016073
:1010F00013491248C860BFF34F8FFEE70E480168DE
:101100000E48884200D070470E480F4901600A48D7
:101110000E4901607047FEE7FEE7FEE7FEE7FEE7E7
:10112000FEE70000B910000071320000511100000C
:101130000003084080010840000000200400FA0578
:1011400000ED00E000810840010000000000000008
:101150000348854600F096FA00480047C95500004C
:101160003013002030B50B46014600202022012418
:1011700009E00D46D5409D4205D31D469540491BCB
:101180002546954040191546521E002DF1DC30BD14
:1011900070B500242546002801DA012440420029C8
:1011A00001DA01254942FFF7DDFFAC4200D04042A1
:1011B000002C00D0494270BDF8B500242546002916
:1011C00004DA0E46012400214042B141002B04DA2A
:1011D0001E46002352420125B34100F0BFF98C4660
:1011E00017461E46AC4203D0002540428D41AC4616
:1011F000002C02D0002657429E4161463A463346B3
:1012000001B0F0BDF0B51FB486B000200090019091
:1012100002900698069980B204900798090C02047F
:101220000014114307900027089D099806913E4637
:101230003C4603900398A9B20204000C0390049862
:101240002D0C154348430021224600F0B7F9C71979
:10125000714110340E46402CECDB3846029A00F007
:10126000ADF9009A019B80180090594102980191B4
:10127000103002904028CCDB00980BB0F0BD10B5C8
:10128000C0B2802100F0AAF910BD10B50F21C0B284
:10129000490200F0A3F910BD70B5194C00683C215B
:1012A000FFF760FF21603C21FFF75CFF61601821C0
:1012B000FFF758FF0546A1600721001DFFF752FF09
:1012C000A1611048A90008180F49FFF74BFF4430EF
:1012D00060618808E0613B2803D3217D890700D045
:1012E000401C0021094B0A462161995C814203D8C8
:1012F000401A521C2261F8E7401CE060204670BD95
:10130000041100206C0B0000B5050000566C0000B5
:1013100003460B439B0703D009E008C9121F08C00E
:10132000042AFAD203E00B780370401C491C521EB9
:10133000F9D27047D2B201E00270401C491EFBD2C4
:1013400070470022F6E710B513460A4604461946D0
:10135000FFF7F0FF204610BD30B5044600200346DD
:1013600000E05B1C934203D2E05CCD5C401BF8D0F4
:1013700030BD0321001D401E037812021A43491E8E
:10138000F9D510467047F8B502464A40D40F4200DE
:101390004B0052085B089A4202D2024608461146A8
:1013A0004A0023D0C30D4A00DDB2120EAD1A202D23
:1013B00035DA49020126490AF6058A19002C00D0BF
:1013C000524220214F1B1146B9402A411018C20D2C
:1013D0009A4221D0002C17D0012D08DCDA05801AA2
:1013E000D20F8019D207DBB200F012F9F8BDDA058E
:1013F000801A012340001B06C01880185A4280182A
:10140000CA0F1043490007E04908C2071143DA0533
:10141000801A80194008801800F0F2F8F8BD6100C9
:101420000122511A001BF7E70122D2075140AAE717
:101430000122D2075040A6E7024670B54A40D30FBA
:10144000DB0740002DD04A002AD0010E140E000206
:1014500012020919400A520A8418E501044654434D
:10146000000A120A2E045043A4194219200CC54345
:10147000AA18120C0125AD03521C521912047F390F
:10148000240400D0521C104301D44000491EC2B2B3
:101490000C06C0092018401C4008802A02D003E036
:1014A000002070BD40084000002900DA00201843E9
:1014B00070BD420005D04200120E52428A4201DB4A
:1014C00000207047C90508187047C217C10F504067
:1014D00010B54018CA079623002100F099F810BDF6
:1014E00010B500229623114600F092F810BDC20FED
:1014F000410040020123400ADB05D207090EC01853
:101500007F2901DA00207047962903DC9623591AB7
:10151000C84001E096398840002AF4D04042704724
:10152000410040020122400AD205090E80187F299D
:1015300001DA00207047962903DC9622511AC84030
:1015400070479639884070470122D207002800DB97
:10155000101A002900DB511A81427047F0B51FB400
:101560000646002082B005464024019100901BE011
:10157000019922460F46304600F096F8049A059BE2
:10158000801A994110D310461946224600F016F8E9
:10159000361A8F410197224601200021009F00F05A
:1015A0000DF838184D4100902046641E0028DFDCFD
:1015B000019B00982946324607B0F0BD10B5202A9D
:1015C00004DB0146203A9140002010BD91402023C9
:1015D0009C1A0346E3401943904010BD7F2801D96F
:1015E000002207E0054B42089A5CC00700D11209AF
:1015F0001207120F0120904008407047626C0000F3
:10160000002904DA401C490001D14008400070471D
:1016100070B40024050C05D11024000402D1002967
:1016200021D01124050E01D100020834050F01D18B
:101630000001241D850F01D18000A41C002801DBBE
:101640004000641C002908D020252E1B0D46F540C3
:10165000A14000D001212943084301061B1B000AB9
:10166000DB1D02D5002070BC7047DB051818801800
:101670000029F8DA401C4900F5D170BC4008400050
:1016800070470000064C0125064E05E0E36807CCD4
:101690002B430C3C98471034B442F7D3FFF75CFD62
:1016A000A46C0000C46C000010B5202A04DB0846BE
:1016B000203AD040002110BD0B46D340D04020241A
:1016C000A21A91400843194610BD30B58C18027813
:1016D000401C13071B0F01D10378401C120906D1CF
:1016E0000278401C03E005780D70401C491C5B1E0D
:1016F000F9D101E00B70491C521EFBD1A142E6D387
:10170000002030BD80220029016801D0114300E093
:1017100091430160704710B5002001221206012399
:10172000014601F0E3FC10BD70478030002A0268DA
:1017300001D00A4300E08A4302607047930810B565
:101740009B00181843689207D20E1F249440A343AD
:1017500091400B43436010BD5B1E12021B04FF3A15
:10176000013A13430B430168802211400B4303608D
:101770007047CA06D20E026749094901416770479E
:101780000029416F02D00122114301E049084900BC
:101790004167704710B50022072802D90122083896
:1017A000C0B29300054A9A18136880000F24844041
:1017B000A34381401943116010BD00000020024086
:1017C000F0B596460A461349C00046180023002586
:1017D000FF2098402C46104216D00020012199404D
:1017E0008C461146C1406746394206D087000F211A
:1017F000B9400D437146B9400C43401C0828F0D352
:101800003068A843204330600833361D082BDEDDE6
:10181000F0BD00002020024010B50A4800F01CF87E
:1018200009480168491C016008488168491C8160B9
:1018300007480068012803D106480168491C016077
:1018400010BD000000600740A40000201000002030
:101850001C01002020010020416849084900416026
:10186000BFF34F8F704704220029016801D0114354
:1018700000E09143016070470029016802D0012215
:10188000114301E049084900016070470222002924
:10189000016801D0114300E0914301607047C160CD
:1018A000704781607047000003498968014201D098
:1018B00001207047002070470080084070B5184D27
:1018C0000446686B4607760F00F02EF81549206035
:1018D000330002F029F9081405070714140E111437
:1018E000606000E06160296A6068052909D34009E9
:1018F00008E00120C003F3E77D200002F0E70020AC
:10190000EEE7C840A060A96A4903490F072902D041
:10191000C840E06070BD0321FFF724FCF9E7000038
:101920000080084000127A000C490868C869C20F9C
:101930004868400AC007C00F0ED00948002A0BD1E2
:101940008869C00D0007000F00D110208969044A82
:101950004902890F5043C84070470000008008408A
:1019600000127A001FB541090A4A89008A1800212D
:101970002E2800D10221C006C00E12680323834026
:101980001A40C24054186846FFF798FF029804B006
:10199000E04010BD38800840F0B5084F7C6AFD6A11
:1019A0003E6B84438D439643002B02D004430D438A
:1019B00016437C62FD623E63F0BD0000008008407B
:1019C0000C214843054910B540188178012903D0FE
:1019D000C07804F067FE10BD0020FAE7A0030020E5
:1019E00010B537208002C06903490870034800F031
:1019F00021FA02F079F810BD0004002004DC000098
:101A000010B537208002806903494870034800F010
:101A100011FA02F069F810BD0004002004DC000097
:101A2000FEB52B48417800290BD0002135229202C7
:101A3000009110680B46274CFF28206305D3E37202
:101A4000FEBD25A002F060F8FEBD294D00208B18D8
:101A50001B682B54401C091D0428F8D3106AC7B218
:101A600068460770506AC6B268464670906A324649
:101A7000C1B2684681700B46019139461DA002F043
:101A800043F8E120000147433C2046430199B8193F
:101A900040182064E8780090AB786A7829781AA01A
:101AA00002F032F81248FFF764FC00BA020AE87844
:101AB000120202430648134642603C2042436264DD
:101AC00017A0216C02F020F80120E072FEBD00009A
:101AD00000040020F4000020636F756E745F6F7067
:101AE000657220666C6167203D25640D0A00000068
:101AF0007A0000207473203D202564202564202571
:101B000064200D0A0000000076616C7565203D20A0
:101B100025782025782025782025780D0A000000DA
:101B200049345F4F544154696D65203D2025642040
:101B30002C2056535F436F756E7466616C736854E6
:101B4000696D65203D202564202025640D0A000074
:101B50007047000010B5134C00211348E160026883
:101B6000012A0CD1114B1A60016001F0EBFAA0625E
:101B700004F0CAFE012211460D4800F0F7F90020DA
:101B800000F07EF8012000F029F8022000F026F88D
:101B9000052000F023F80E2000F020F80F2000F0C0
:101BA0001DF810BD10000020A8000020B400002087
:101BB00000400B4010B501F0A9FE10BD10B501F0BA
:101BC000A5FE10BD10B501F0A1FE10BD01218140A0
:101BD00001484160816070474040024001218140DE
:101BE00002488161BFF34F8F7047000040400240C0
:101BF00010B5084A536801248440234207D09268F4
:101C0000C240D007C00F884201D0012010BD002083
:101C100010BD0000404002400179027AC907120756
:101C20001143C28800681143024A80008018016095
:101C300070470000004002400122054B82401868B6
:101C4000012902D09043186070471043FBE7000061
:101C50004040024010B50123084C8340012A02D0C5
:101C60002069984306E06069002905D01843606147
:101C700020691843206110BD9843F8E740400240B6
:101C800005490128086903D04000400808617047F1
:101C90000122D2071043F9E74040024070B5002608
:101CA0000124E403324621460123104601F01EFAC6
:101CB0000720032165100004890301233246FFF742
:101CC0006BFE5848584E0078002826D10022022189
:101CD000304600F031F9022101220846FFF770FD7D
:101CE00001220221304600F01FF902210120FFF7F6
:101CF00051FD0221304600F034F9002802D00122C3
:101D0000114601E0012200210120FFF7A3FF01207D
:101D1000FFF7B6FF032000F06FFF002204213046DA
:101D200000F00AF9012204210220FFF749FD0122F7
:101D30000421304600F0F8F802210846FFF72AFD9A
:101D40000421304600F00DF9002802D0012211468E
:101D500001E0012200210220FFF77CFF0120FFF7B4
:101D60008FFF032000F048FF304E00222021304634
:101D700000F0E2F8012220211046FFF721FD0122A8
:101D80002021304600F0D0F801210520FFF702FDA8
:101D9000012211460520FFF75DFF0120FFF770FFCC
:101DA000032000F029FF224E00222946304600F091
:101DB000C3F8012229460020FFF702FD012229462F
:101DC000304600F0B1F800210E20FFF7E3FC0122BD
:101DD00011460E20FFF73EFF0120FFF751FF0320C1
:101DE00000F00AFF00222146304600F0A5F801224B
:101DF00021460020FFF7E4FC01222146304600F096
:101E000093F800210F20FFF7C5FC012211460F2097
:101E1000FFF720FF0120FFF733FF032000F0ECFE67
:101E200070BD00000501002000400B4000200B4069
:101E300000000B4000B5044908600820C860142069
:101E4000086100F029F800BD0000084010B50A4BF9
:101E500003218A00D418246AE4438450491EF8D52B
:101E6000196BC907C917491C0161196B8907C91783
:101E7000491C416110BD00000000084000B5054A42
:101E8000106051600420D0601420106100F004F84C
:101E900000BD00000000084010B5124910484A6912
:101EA00002231A434A6114220A6104E00A691207F4
:101EB000920F032A01D0401EF8D28A698C699C4394
:101EC0008C61910301D5022010BD910701D501203D
:101ED00010BD002801D0002010BD032010BD00005F
:101EE000FFFF0F0000000840002A026801D00A43EB
:101EF00000E08A4302607047F0B50024254623467F
:101F0000CE0706D05E001746B7403C430327B740D4
:101F10003D4349085B1C102BF2D34169A943416141
:101F2000416921434161F0BD002A426801D00A4362
:101F300000E08A4342607047002A08D0012A09D095
:101F400082688A438260C2688A43C260704782683E
:101F50000A43F7E7C2680A43C26082688A43826024
:101F60007047C069084000D001207047002A01D0A6
:101F70004162704781627047FEB5FF2101314F48D1
:101F800001F0F0F94E480168491C01604D490868AC
:101F9000401C08604C48C168491CC1604B49097825
:101FA000002906D04A4909780B2902D10169491C48
:101FB000016148490978002903D047490A68521C41
:101FC0000A60414800278169491C816143490868CA
:101FD000401C0860FF21913188423BD900242546EE
:101FE000264600943E48406B37490005000DC86105
:101FF000FFF776FA0B21C943FFF75BFA3949FFF780
:102000001BFA019038480088FFF76AFA0199FFF738
:102010009BFA0BD26D1CEDB20098FFF761FA0199A3
:10202000FFF7B1F9FFF77CFA009001E0761CF6B2F9
:10203000641CE4B20A2CD5D32C4C052D04D92946B6
:102040000098FFF78FF82080082E01D932202080D9
:10205000224807602648007A012803D11A484169BE
:10206000491C41611848234A816991420EDD87610C
:1020700041780023491C4170016B426B491C5A4155
:1020800042631D4A01631168491C116041783B2974
:1020900003D947708178491C817081783B2903D925
:1020A0008770C178491CC1701449C2688A4200DD3A
:1020B000C76002698A4200DD0761FEBD00E006409C
:1020C0002801002030010020100000200101002024
:1020D000BD00002054010020480100204C010020D8
:1020E0000000014000404E45C0000020E8000020F4
:1020F000F00E0020E7030000AC000020005C260585
:102100000248416A0029FCD07047000010000020FE
:1021100010B5134C1349206888420CDD1249097828
:10212000002908D002210C2003F0E8FB03F0C6FED2
:102130000020206010BD0028FCD00C498842F9DA4C
:102140000B480C4A818912889142F3D90078002803
:10215000F0D104210C2003F0D1FB03F0AFFE10BD41
:1021600020000020C0D4010001010020B80B0000B5
:10217000DC000020C0000020F8B5404800780228AC
:102180007AD13F49002008703E4E0120707003F064
:1021900095FE3D4F38783D4D3D4C002810D13D48CF
:1021A0000078012806D02878002807D0287802284F
:1021B00004D005E038480068A06001E000F070F944
:1021C0003878012810D133480078012806D02878C3
:1021D000002807D02878022804D005E02E4800689F
:1021E000A06001E000F05CF921687D20C000814220
:1021F00002D92168081A20602068A068A2682168B6
:1022000026A001F081FC64202071002004F056FC1F
:102210000121072003F0C8FB2179022003F0C4FB51
:102220002179032003F0C0FB0221072003F0BCFB4F
:1022300001272348B77000250570357021480560D7
:102240000E4875710570204E3078012802D00228A2
:1022500003D00BE002F0F6F801E004F079F87D20FD
:10226000C00003F06FFF03F029FE357017480570BA
:102270000220E07116480770F8BD0000BD00002084
:10228000FB000020DC000020D4000020BE00002065
:10229000E00E0020BF00002020000020716963686C
:1022A000656E67203D202564202C20726574757250
:1022B0006E2074696D65203D2025640D0A000000C4
:1022C000450100201C000020F80000200101002032
:1022D000F400002010B5124C55202070AA20607028
:1022E0000020A0700721E1702071082161716B212D
:1022F000A1710221E171207204216172A072E07269
:10230000207360730E21204602F0BFFEA0730F21E0
:10231000204604F03DFB1721204604F061FC10BD6F
:10232000850B0020F8B5074608481C46007915467D
:102330000E4660436421FEF715FF3860284660436F
:102340006421FEF70FFF3060F8BD0000E00E0020B2
:10235000F8B51B480078012831D11A4800240470D0
:1023600019A001F0D1FB1E480125057003F0A6FD60
:102370001C48047144701C4E307800280AD01B4859
:10238000046084601A4804601A48047201210846F7
:1023900003F094FA184F3878002801D102F052F86F
:1023A0003878012801D103F0D3FF144804601448A1
:1023B000057003480B210170124835700470F8BD98
:1023C000BD000020F400002073746172742063610A
:1023D0006C6962726174696F6E2E200D0A000000D4
:1023E000FB000020DC00002001010020E00E0020A6
:1023F00024000020F00E0020D40000202000002047
:10240000BF000020FC000020F8B51D4E30780328E6
:1024100035D11C481C4C00781C4D002818D01C4994
:10242000206808602878FF27F537012806D104F0D6
:10243000ABF8384603F086FE02F004F8287802284C
:1024400006D104F0A1F8384603F07CFE03F080FFCB
:102450000020206028710F48012404706C710E4D1B
:1024600028780E4F002802D103F072FF3C702878C4
:10247000012802D101F0E6FF3C700B203070F8BD5E
:10248000BD0000200101002020000020DC00002011
:10249000E00E0020BF000020D400002045010020F5
:1024A000F8B503F00BFD294F3C78294E294A00234B
:1024B00029492A48012C1BD13478002C07D18C796A
:1024C000012C08D08C68056864198C60036034782E
:1024D000012C05D00CE05468056864195460F5E7D8
:1024E0008C79012C08D08C680568641B8C600360B3
:1024F0003C78022C05D020E054680568641B5460C9
:10250000F5E73478002C07D18C79012C08D08C6841
:102510000568641B8C6003603478012C05D00CE0E6
:1025200054680568641B5460F5E78C79012C07D06A
:102530008A68046812198A60036003203870F8BD45
:102540005168046809195160F6E70000DC000020BA
:10255000D400002058010020E00E002020000020C0
:1025600010B5164C55202070AA2060700020A07075
:102570000721E1702071102161716621A171E07164
:1025800020720C206072FF20A072E07220736073D2
:10259000A073E07320746074A074E074207560759B
:1025A0001621204602F071FDA0751721204604F087
:1025B000EFF91721204604F013FB10BD850B002016
:1025C0002C4E012210213046FFF7D0FC00F094F889
:1025D000012210213046FFF7C9FC274D274F20214B
:1025E0003046FFF7BEFC002801D103F067FC244C05
:1025F00002212046FFF7B5FC002801D101F022FF9F
:1026000004212046FFF7ADFC002801D103F0A0FE15
:102610001C4801881C480088814202D8387800286C
:10262000DDD00124002210213046FFF79FFC03F08B
:1026300045FC164803F086FD2879022807D103F0EF
:1026400087FE0024012210213046FFF78FFC2879F5
:10265000012808D1002C06D001F0F4FE012210213F
:102660003046FFF783FC002038707D20C00003F067
:1026700069FDB4E700200B40F400002010000020AA
:1026800000400B40E8000020C0000020B80B000014
:10269000F8B5164C6078012801D100F02DF9A17829
:1026A0000025134E002904D0022905D0012903D0AA
:1026B0000BE000F0B5FA08E0012210213046FFF7E8
:1026C00055FC6320A070A562E562E07801280CD17A
:1026D000084FFF213868F531884206D901221021C0
:1026E0003046FFF743FC3D60E570F8BDF400002084
:1026F00000200B40A400002010B5084C002210213F
:102700002046FFF733FC7D20C00003F01BFD0122B3
:1027100010212046FFF72AFC10BD000000200B40CE
:1027200070B57D26F600304603F00CFD0B4C0025FD
:102730002179012902D0022903D00AE001F082FEAA
:1027400001E003F005FE304603F0FCFC03F0B6FBAD
:10275000257102481830057070BD0000F40000209B
:102760000C4CFFF795FF03F0B7FB01F0BAFD01F049
:102770005FFDE07B002801D0FFF722FF00F0F0FEB4
:1027800002F0B2FE04F034F800F01EF900F036F862
:10279000E7E70000F4000020FFF7AEFF0127144E2A
:1027A0000025144C01F0AEFC01F042FD0221304640
:1027B000FFF7D7FB002804D1FFF79EFF677402F0F4
:1027C00093FE04213046FFF7CCFB002804D1FFF72D
:1027D00093FF01F037FE657420210748FFF7C1FB26
:1027E0000028DFD1FFF788FF03F068FB6574D9E7A5
:1027F00000400B40F400002000200B40F8B5314BA6
:1028000018683149884258D9304EB17B3046C08A69
:10281000002904D001F0F2FD1968401803E001F02E
:10282000EDFD1968081A00906846FEF735FD284945
:1028300083690B60274985680D70274942680A70D3
:10284000E1242401294661433C24544309190468C6
:10285000224F0C191D493C601A310D704A700078E6
:102860001F4D88702C60002B28D01E481D49434303
:102870001819494240183860307B00281DD1B07AC1
:10288000002804D018480188184802F005F8F07AAA
:10289000002810D0716C306C4018296888420AD921
:1028A000401AB063124801786A2002F0E3FF042165
:1028B000104802F09DF901203073F8BD044807214B
:1028C0000160D9E7AC00002010270000F4000020D0
:1028D000C4000020C8000020C9000020CC00002057
:1028E000D000002080510100760000200C04002060
:1028F000000400207A00002070B51248002501680D
:10290000114CFA290FD96178082913D8056021786C
:102910000E4800290FD001221021FFF727FB257058
:102920006078401C60706078082803D1064813382E
:102930004570657070BD00221021FFF717FB012064
:102940002070EDE7180000200701002000200B4058
:1029500010B5002210210548FFF708FB04490020AC
:10296000086004490120C87010BD000000200B4021
:10297000A4000020F400002070B501240A4E0B4D85
:102980000DE0002201213046FFF7F0FA002202217B
:102990003046FFF7EBFA06A001F0B6F82C7000F015
:1029A00057FA0028EDD170BD00200B401000002028
:1029B0004C56445F424F445F49525148616E646CCB
:1029C00065720D0A00000000F8B51848007800286C
:1029D0002BD0174E002430780127164D00280DD03B
:1029E0002F7415A001F090F80121084602F066FF4F
:1029F00000F05CFA6C733470FFF7AAFF134E1449B1
:102A000030880988884210D9687A00280DD12F743F
:102A100010A001F079F80121084602F04FFF00F004
:102A200045FA6C73FFF794FF3480F8BDDD00002099
:102A300010000020F40000204C6F77566C6F74611A
:102A40006765666C616720210D0A0000E8000020C0
:102A5000C00000204C6F636B6564526F746F7244EA
:102A60006574656374696F6E0D0A000010B57D248E
:102A7000E400204603F066FB08490979012909D0E2
:102A8000022906D103F064FC204603F05BFB03F04F
:102A900015FA10BD01F0D6FCF6E70000F4000020A6
:102AA00010220029016F01D0114300E0914301671A
:102AB00070470000F8B5344800780B2852D1FFF772
:102AC00027FB324F3878324D0024324E00280BD18C
:102AD00031480078002807D13078032804D101203C
:102AE000307003F035FC2C60387802280BD12A486E
:102AF0000078002807D13078032804D102203070F4
:102B000001F0A0FC2C602549B0890A8890420AD8BF
:102B1000234A1278002A06D13A78012A22D11E4A85
:102B20001278002A1ED10988884203D91DA000F01E
:102B3000EBFFB4811A480078002804D022A000F0EE
:102B4000E3FF174804702848047004203870307977
:102B5000264C002807D02078012811D003F014FD5E
:102B600001203071F8BD0320307003F0A7F92178FF
:102B70001F480129296801D00160F1E78160EFE772
:102B8000FFF78EFCECE70000BD000020BE00002037
:102B900020000020DC000020BF000020C00000203A
:102BA0001000002063616C6962726174696F6E204D
:102BB00043757272656E74206C6F636B656420720E
:102BC0006F746F720D0A000063616C6962726174E8
:102BD000696F6E20496E74657272757074207374BB
:102BE000616C6C0D0A00000001010020450100200D
:102BF000E00E002070470000C106C90E0120884089
:102C0000014908607047000000E100E0024A1140FD
:102C1000014302488160704780FFFF1F00ED00E024
:102C2000F8B51649164F08680026164CFA2810D930
:102C3000E06AB8420DD80120A062254613350E6027
:102C40002878002812D0012210210F48FFF78EF9B2
:102C50002E70E06AB84208D3012210210A48FFF71B
:102C600085F96320A070A662E662F8BD00221021FB
:102C70000548FFF77BF901202870EAE718000020DB
:102C800020BF0200F400002000200B40F3B5012516
:102C90000746002489B0A9032B462A462046FEF7A2
:102CA0007BFE042211460120FEF78AFD1648694684
:102CB00048820C820C75280206948883134E04A95E
:102CC000304600F0EBFB02206946087064207D214D
:102CD000C01B490148436421FEF75AFA69464881FE
:102CE000062048800D718D710D728C81304600F088
:102CF00085FB01213046FFF7D3FE30460A9900F0EC
:102D000036FB0BB0F0BD00009F0F000000C002407A
:102D1000F3B5012206460024520789B0D1130123DE
:102D20002046FEF739FE0D2208210120FEF748FD5E
:102D30001748694648820C820C75FF2701370694B4
:102D4000144D8F8304A9284600F0A8FB3946284675
:102D500000F008FB69460C7064207D21801B49014E
:102D600048436421FEF714FA6946488107204880E9
:102D7000012008714C718C71CC710C72487228461C
:102D800000F03CFB28460A9900F0F1FA0BB0F0BDC8
:102D90009F0F00000040074005490028086902D045
:102DA0000122104301E04008400008617047000024
:102DB00000A10640044902220028086901D01043FE
:102DC00000E090430861704700A1064005480121DA
:102DD0004160090342688A43FCD101680029FCD1A3
:102DE0007047000000A1064070B5164D296B4906DA
:102DF000CA0F296B40263143296313494B68DB0B0B
:102E0000DB0706D14C6880239C434C604C681C4314
:102E10004C604B680824A3434B60002A02D1296B05
:102E2000B143296309490B69042213430B6100284C
:102E300004D030BF08699043086170BD40BF20BF17
:102E400020BFF7E70080084000A1064000ED00E049
:102E5000024800690003C00F7047000000A106404F
:102E60000122054912040028086901D0104300E03E
:102E7000904308617047000000A106400122054907
:102E800012050028086901D0104300E09043086152
:102E90007047000000A10640034A116923235B0428
:102EA000994301431161704700A10640F8B5394DBF
:102EB0000026687B00286BD0002003F0FFFDA87976
:102EC000354C012802D0022802D009E0216800E038
:102ED000A1683248642200685043FEF743F96871E4
:102EE00069792FA000F010FE3448417A00270A29A2
:102EF00004D121796A798918697147722F48407A1B
:102F0000012805D120796979401A68712B484772E8
:102F1000287C642100280FD06879462805D92279B9
:102F2000462A02D8697101260AE01E2804D22079B7
:102F30001E2801D36F7103E06879642800D9697194
:102F40002F7469791EA000F0DFFD1C48077213483A
:102F5000076021796A7921A000F0D6FD012028724E
:102F600069792171022002F01FFD6979032002F0C6
:102F70001BFD02F0A3FF00F066F8002E04D027A08E
:102F800000F0C2FDFFF772FD2D48077002F014FA41
:102F9000F8BD0000F4000020E00E00202400002016
:102FA000767369676E53746F7050657263656E7483
:102FB00020313A2025640D0A00000000F00E0020A8
:102FC000767369676E53746F7050657263656E7463
:102FD00020333A2025640D0A000000000D0A2073FA
:102FE000746F70207661726961626C652E676C6FB8
:102FF00062616C5F70657263656E74203D2025644C
:10300000202C20767369676E53746F7050657263FD
:10301000656E74203D202564200D0A0043616C6CB0
:103020006261636B206166746572206F66667365AA
:103030007420636F7272656374696F6E0D0A0000AD
:10304000DF0000207047704710B50C4C216A626A9F
:10305000914211D0606A0A49884207D1606A002112
:1030600082B2084803F0F5F8002060620548616A02
:10307000405C616A491C616210BD0000F4000020E0
:1030800007020000FC0E002070B50A4C0546206ABD
:103090000949884207D1206A002182B2074803F01B
:1030A000D8F8002020620548216A4554206A401C57
:1030B000206270BDF400002007020000FC0E00201A
:1030C000074A53689168994208D00648814201D363
:1030D0000548906091680878491C9160704700002D
:1030E000880000207707002070050020F0B5084F09
:1030F0007C68BD68FE6884438D439643002B02D0F4
:1031000004430D4316437C60BD60FE60F0BD0000CB
:103110000081084003498A6802239A434000024321
:103120008A60704700A0064005490028886802D0E0
:103130000122104301E04008400088607047000011
:1031400000A00640014800687047000000A006404B
:103150000148C068C0B2704700A0064010B5FFF734
:10316000F7FF800702D502490220087010BD000059
:10317000B8000020044A0029116901D0014300E091
:10318000814311617047000000A00640084A0823EF
:1031900000280849906805D0184390608868C006E8
:1031A000FCD57047984390608868C006FCD470478F
:1031B00000A006400080084003498A6820239A4303
:1031C000400102438A60704700A006400149486000
:1031D0007047000000A00640034A91680F231B02BD
:1031E000994301439160704700A00640044A0029BA
:1031F000116901D0014300E0814311617047000073
:1032000000A0064070470000042204490428086911
:1032100002D09043086170471043FBE700E000E0F4
:103220000749002806D00128086906D04008400058
:103230000861704700208861704701221043F7E75A
:1032400000E000E0044902220028086901D0104390
:1032500000E090430861704700E000E001494861E8
:103260007047000000E000E010B503F035FB10BD32
:10327000F0B537491020C860364E0120306036491D
:10328000086B4025284308633448002344158268AE
:10329000272AFCD100E0446042689205FBD500E09B
:1032A000436042689205FBD43360486A032292026D
:1032B0009043486248680122D202104348608868FF
:1032C000C008C007FBD04868C008C000C01C4860E8
:1032D000486B4007400F0328FAD1214A1068C00804
:1032E000C000401C10600B624868A043486008683A
:1032F0009615304308604868171538434860886859
:103300008008C007FBD0086BA84308630868B04377
:1033100008600520C00588614868204348608868C7
:103320004008C007FBD01068C008C000801C1060B7
:103330000B624868C008C000401C4860486B4007EA
:10334000400F0128FAD11168102001431160F0BD2F
:1033500000810840008308400080084000A106402A
:1033600000020840C943C167BFF34F8F704700296F
:10337000016902D00122114301E0490849000161BD
:10338000704700000022134B10B51146984201D13E
:10339000821519E0104B984201D1012214E00F4B25
:1033A000984202D1012212070EE00D4B984202D141
:1033B0000122520708E00B4B984201D1820403E03E
:1033C000094B984200D1C20401230846FFF78EFE44
:1033D00010BD000000E0064000C002400040034075
:1033E000004007400050034000500740002A426F51
:1033F00001D00A4300E08A4342677047F0B50C7879
:10340000A2001218154613469035A032AE469446D7
:103410006206214D4033120EA84201D1032400E080
:10342000012494401C4E056DE44325400565456D1F
:103430002540B0428E7902D1CF797F003E4396403D
:103440002E434665144FB84208D1C66E4D7A2640C9
:103450000C7A6D002C4394403443C4661C68FF25ED
:103460000835AC431C601C684D882C431C604C899B
:1034700073461C608C8963461C60B84206D10B7988
:10348000497949000B439340016D02E0036D0979CE
:1034900091400B430365F0BD00C0024010B50246E9
:1034A0004B88803293600B885360036803242404A4
:1034B000A3430360036801242406A3430360036855
:1034C0008C6823430360044B984201D10B79D3608D
:1034D0008989816710BD000000C0024070B50421D9
:1034E0000D231B0318680B4C82B20948FF2A028087
:1034F00001D300200AE00020074D04E0CE18366812
:103500002E54401C091D9042F8D30120A07270BDBA
:1035100076000020F40000200C04002030B50F4C91
:1035200000212546224620354032030000F0FCFAF7
:10353000080507090B0D0F111306217130BD217409
:1035400030BD217730BD297230BD297530BD117075
:1035500030BD117330BD117630BD00000C04002069
:10356000F8B5864C04262078854D012802D0022823
:1035700006D0EFE02868FFF729FE00202070E9E080
:103580000024FFF7DFFD074601207D4A81005558E2
:103590001368AB4202D18B185B685350401C38282B
:1035A000F3D3784DA868B8421BD175490020086054
:1035B0007549A860087075A000F0A6FA79480179ED
:1035C00064290BD00079002808D02878012803D07E
:1035D000002003F067F87AE06420FAE702F008FFC1
:1035E00075E0002C73D100256F48405D012827D07D
:1035F0006349002008606D48AC000059B84244D1CE
:103600006149002008702846FFF788FF68490120BB
:10361000087066483946025966A000F075FA704C89
:1036200070492288662002F09DF90D200003FEF704
:1036300001FC0D2021880003FEF720FC002411E08E
:103640004F4900200860684839184D488030C167EC
:10365000D1E76448015D0D2000033018FEF70EFC31
:10366000641C361D5E4800888442F2D34D480179BF
:10367000642906D00079002803D02846FEF7A0F977
:1036800022E0284600F00EFC1EE028461C2148439C
:103690005649002440180090A1004058B8420DD16E
:1036A00040480179642906D00079002803D02846D3
:1036B000FEF786F902E0284600F0F4FB641C072CB4
:1036C00002D20098E8E702E06D1C082D8CD32C4C48
:1036D0006068002804D0002100203F22571A10E023
:1036E0000020C043FFF772FD24480021017031E043
:1036F00085002E19625973689A4201D9635172602C
:10370000401C8742F4D8491C4029E5D30020384D9D
:1037100001468200A258002A02D08B00EA50491CC0
:10372000401C4028F5D3FF2101311548FDF709FE63
:10373000002081006A58401C62503828F9D3E021EB
:103740002B48FDF7FEFD2BA0216800F0DDF90B49A9
:10375000012008702F4C206801280ED1FFF7F2FCE1
:10376000206020682C490968401A20602B480168B5
:1037700022688918016001F0B9FCF8BDB80000208A
:10378000000D002000040020F4000020436F756E3F
:1037900074646F776E207461736B207374617274DC
:1037A000210D0A00E00E00207E000020E00C002029
:1037B000FE00002063757272656E745F636E742024
:1037C0003D2025642074696D65725F6275665F7364
:1037D000696E676C655B695D203D2025640D0A009C
:1037E000760000200C040020803A0900000C002024
:1037F000000E00204952515F6576656E74203020BE
:1038000074696D696E675F6275666665723A256494
:10381000210A0000B4000020B0000020AC0000200D
:1038200010B5064C2021204600F020F8002803D0D7
:103830002068C0B203F0C4F810BD000000100040C2
:10384000704710B520214C06204600F00FF80028E4
:1038500007D02068C0B2FFF717FC2021204600F0F7
:1038600001F810BD02690A40026170470069084012
:1038700000D001207047000070B504460D46C8888E
:103880008988626808432989134B1A401143084309
:1038900069890843606001208007844206D11820AE
:1038A000FEF760F82968FDF75DFC60620B48844212
:1038B00006D11C20FEF756F82968FDF753FC60621C
:1038C0000748844206D11E20FEF74CF82968FDF710
:1038D00049FC606270BD0000FCE0FFFF001000408A
:1038E00000100440002AC26801D00A4300E08A4365
:1038F000C26070470160704710238B404168002A06
:1039000001D0194300E0994341607047F8B50121A7
:103910000846FEF76DF9454E0124002809D030799C
:10392000002806D1FFF70EFCB06234710120FEF7CB
:103930004DF900210120FEF75BF900273C4D0028DE
:103940001BD037710120FEF741F9FFF7FBFBB16A8D
:10395000401A306202280FDA3648017B36480029C7
:1039600015D036490978002902D0047034A001E04E
:10397000077038A000F0C8F82C6001210220FEF783
:1039800037F900280DD03079002803D009E00770FE
:1039900036A0EFE7FFF7D6FBB06234710220FEF7E6
:1039A00015F900210220FEF723F900281BD03771FA
:1039B0000220FEF70BF9FFF7C5FBB16A401A30622F
:1039C00002280FDA1B48017B314800292AD01B4905
:1039D0000978002902D004702EA001E0077033A0FE
:1039E00000F092F86C6000210520FEF701F9002834
:1039F00003D00520FEF7EAF8AC6000210E20FEF7A8
:103A0000F7F8002803D00E20FEF7E0F8EC60002164
:103A10000F20FEF7EDF8002803D00F20FEF7D6F8B0
:103A20002C61F8BD077027A0DAE700001000002025
:103A3000EC0B0020E00E0020E5000020F400002048
:103A40006C6566746B65795F7570203D20545255C6
:103A5000450D0A006C6566746B65795F7570203D75
:103A60002046414C53450D0A0000000072756E5F00
:103A70006D6F64655F666C6167206F6666206C655C
:103A80006674203D2046414C53450D0A000000005D
:103A9000E600002072696768746B65795F75702055
:103AA0003D20545255450D0A0000000072696768B8
:103AB000746B65795F7570203D2046414C53450D10
:103AC0000A00000072756E5F6D6F64655F666C6101
:103AD00067206F6666207269676874203D204641E2
:103AE0004C53450D0A00000010B5054C054861789F
:103AF000FEF7C4F903482178001DFEF7BFF910BD99
:103B00000004002018DC00000FB410B503A9044B1A
:103B1000044A029800F024F810BC08BC04B018470E
:103B2000555000004C00002030B47446641E2578C7
:103B3000641CAB4200D21D46635D5B00E31830BCE1
:103B4000184702E008C8121F08C1002AFAD17047BE
:103B50007047002001E001C1121F002AFBD170470D
:103B6000FFB58FB00F460446002606E025280AD090
:103B7000129A11999047641C761C20780028F5D180
:103B8000304613B0F0BD00250121A14A009500E0A8
:103B90000543641C23780846203B98401042F7D127
:103BA00020782E2815D1042005436078641C2A282B
:103BB0000AD101CF641C00900BE000990A22514306
:103BC00030394018641C00902078014630390929AA
:103BD000F3D920786C280ED004DC4C2813D06A2846
:103BE00012D104E074280ED07A280DD10BE0012008
:103BF0004005054307E00121090562780D43824233
:103C000001D16D18641C641C2078864669284AD04E
:103C100008DC0028B4D058286DD0632810D0642860
:103C200008D140E070286BD0732812D0752860D07E
:103C3000782860D0129A704611999047761CE5E07A
:103C40003878694608720020487202A80190012065
:103C500003E0386801900020C0433F1D69070CD580
:103C6000002500E06D1C00998D420FDA8542F9DBDA
:103C70000199495D0029F5D108E0002500E06D1C9F
:103C80008542FCDB0199495D0029F8D1761907E0EE
:103C9000019801990078491C0191129A1199904755
:103CA0006D1EF5D2B2E00A20029000216802400F9A
:103CB000039102280CD001CFC117844600290DDAE8
:103CC0006246084652420021814194462D2008E078
:103CD000FF1DFF08FF0003CF8446EFE7280504D54A
:103CE0002B206A46107401203CE0E8073AD02020DF
:103CF000F7E70A2000E0102000210391029007E07E
:103D00001020029000210420054308200391009018
:103D10006802400F022810D001CF00218446002005
:103D20000D9028071FD5704670280CD0029A1020DD
:103D3000039B42401A430CD015E0FF1DFF08FF0013
:103D400003CF8446EBE740206A46107401200D90B3
:103D50000CE06046084306D030206A461074704676
:103D6000507402200D907046582804D029A001906C
:103D70000DA80E900DE02CA0F9E76046039B029A77
:103D8000FDF7ECFB019B84469B5C0E9A521E0E9243
:103D9000137060460843F0D10E9805A9081A203028
:103DA0000190680701D5009801E001200090019979
:103DB000884203DD01460198081A00E00020002532
:103DC000009006E004A8129A405D119990476D1C7E
:103DD000761C0D988542F5DB04E0129A302011998B
:103DE0009047761C0099481E00900029F5DC08E0F9
:103DF0000E980E990078491C0E91129A11999047CD
:103E0000761C0199481E01900029F1DC641CB4E67F
:103E100009280100303132333435363738396162A0
:103E20006364656600000000303132333435363764
:103E300038394142434445460000000010B5184C53
:103E40002046FDF768FC022210210020FDF7B8FC97
:103E5000022220210020FDF7B3FC0222012311469B
:103E60002046FDF779FC002206212046FDF766FC7E
:103E7000012207212046FDF761FC01212046FDF7C4
:103E800078FC012211462046FDF74FFC0121204617
:103E9000FDF738FC01212046FDF772FC10BD000043
:103EA00000000140F8B50C2148431F491F4E44183B
:103EB000A07801271E4D012805D13079002809D0AE
:103EC000002002F0EFFBA07800281AD13079642896
:103ED00011D013E0002210212846FEF747F87D207C
:103EE000C00002F02FF9012210212846FEF73EF80B
:103EF00010480770E7E7E078642803D0E07802F024
:103F0000D1FBF8BD002210212846FEF72FF87D20B6
:103F1000C00002F017F9012210212846FEF726F80A
:103F200004480770F8BD0000A0030020E00E002048
:103F300000200B40F40000207047000010B51F4C1B
:103F4000206801282FD01E4C1EA06168FFF7DCFD01
:103F500021786A2001F08EFC61786C2001F08AFCE7
:103F60006B20616801F020FD1E4802881E488242D5
:103F700003D01E49662001F0F5FC1D4C217B652015
:103F800001F078FC2179022001F00EFD2179032057
:103F900001F00AFDE179682001F090FC012108465A
:103FA00001F08CFC10BD002002F066FDFEF7D8FA8F
:103FB000FEF790F900202060DFE7000050010020AC
:103FC00000040020636F756E745F6F7065722E75EC
:103FD000706461746174696D65203D202564200DF5
:103FE0000A00000076000020FFFF00000C04002003
:103FF000E00E00207047000070B501201349400416
:104000000860134C7D21C9002068FDF7ABF8114D05
:1040100001462846FDF743FC00212846FDF741FCF8
:1040200001212846FDF728FC01212846FDF71BFC4D
:104030002168094C2046FDF732FC00212046FDF79F
:1040400030FC01212046FDF721FC70BD00E100E0BD
:1040500048000020006007400070074007273F032A
:104060000125AD020F263C4636032046FDF7E2FE51
:104070006419B442F9D30749002008700121384679
:10408000FDF7FCFEBFF34F8F04490348C860BFF340
:104090004F8FFEE7FE0000200400FA0500ED00E06F
:1040A00010B50949074808600849086009490848E7
:1040B0000860094908600949FF20087001F04EFEB8
:1040C00010BD0000700500208C0000209000002032
:1040D000FC0E002094000020980000208A000020A0
:1040E00010B500200322064902F038FA03220449E1
:1040F00002F034FA0146E92000F0C2F810BD0000D9
:1041000011010020F0B585B00025009501950295BC
:104110000395FEF799FF01F0B7FA002877D03E49E2
:104120003C4E8978F078002909D0FD242402030050
:10413000FFF7FAFC0763071D22633742630037A0CD
:104140004FE0FD200002FDF775FE0024FD26274606
:104150003602304800190179B819FDF78FFE3F1D6E
:10416000641CE4B2FFB2102CF3D32DA039E0FEF7AB
:10417000C3FA02F0B1F940E03079002804D00128F8
:1041800005D0022808D038E001F098FEEDE701F0F4
:1041900095FE00F057F9E8E701F090FE02F0D8F83C
:1041A000E3E731791F48002904D000221021FDF7F0
:1041B000DDFEDAE70122F9E70022104611466E46DD
:1041C0000B191B68091DDBB23354C9B2FF2B01D197
:1041D000521CD2B2401CC0B21028F1D3052A03D918
:1041E00011A0FFF791FC08E00024315D0FA0FFF75C
:1041F0008BFC641CE4B2102CF7D3FF2201320021A7
:10420000044802F026F8044845814570058105B050
:10421000F0BD0000850A00205000002030000000A2
:104220003100000000200B406E00000025630000FC
:1042300070B5114CFF25A0890835A8421BD200F0AB
:1042400049FF002817D0FEF73BFF01F085FA002850
:1042500011D0002000F066F92046032200210E3024
:1042600001F0F7FF2A460021044801F0F2FF002088
:10427000E0802070A08070BD5000002077070020F3
:1042800070B5114D55222A70AA226A700022AA70B8
:10429000E870080A28716971C91D8CB2601E81B26C
:1042A000284600F000FF29192039C877002C09D0D2
:1042B00003E0287802F0A6FB6D1C2046641EA4B221
:1042C0000028F6D170BD00007E08002001780A02A7
:1042D000417811430A028178C078114309020843EA
:1042E000704710B5FEF734F8FEF78EF8FEF7E2FBE4
:1042F000FDF742FF10BD0000F8B52748006B000530
:10430000000DFDF7E2F80B21C943FDF7D2F8234970
:10431000FDF792F8FDF7EBF8214D044628680128D7
:1043200000D1641F21461FA0FFF7EEFB234F387812
:10433000002806D022A0FFF7E7FB022002F07AFB5C
:1043400028E02548844207DB0020286023A0FFF7EF
:10435000DBFB002002F06EFB4D200001201A01263D
:10436000342806D21FA0FFF7CFFB01202E6002F0F9
:1043700061FB1948353884420CDA3E701CA0FFF707
:10438000C3FB022002F056FB01210C2001F0B6FA1B
:1043900001F094FD0020F8BD0000014000404E45B2
:1043A000A0000020766F6C61746167652076616C97
:1043B0007565203D202025640D0A00005501002070
:1043C0006C6F77706F7765725F666C616720706F76
:1043D0007765720D0A0000000405000066756C6CBC
:1043E0000D0A00004D6F6465726174650D0A00006E
:1043F0006C6F7720706F7765720D0A0001460A4670
:104400000020FF3A913A05D019225201914203D17E
:10441000082006E0042004E0E1229200914200D14D
:104420000920E121090148437047000010B5C5216A
:1044300000200902024A0123FDF7AEFA10BD000078
:104440005100030110B525490020086024490120CE
:10445000087001F033FD012001F016FDFF202D3022
:1044600001F070FE01216420FEF710FC01215020B4
:10447000FEF74EFC142001F065FE01216420FEF7DA
:1044800005FC01213C20FEF743FC142001F05AFEFC
:1044900001216420FEF7FAFB01212820FEF738FCF9
:1044A000142001F04FFE01216420FEF7EFFB0121F3
:1044B0001420FEF72DFC142001F044FE012164209D
:1044C000FEF7E4FB01210020FEF722FC142001F09E
:1044D00039FE04490220087010BD00004C01002084
:1044E00001010020F8000020F0B50026F643002A64
:1044F00004D01268D2430024094F0DE03246FAE797
:10450000035D5A4008235508D20700D032463A408E
:104510006A405B1EF7D1641C8C42F1D3D043F0BDDE
:104520002083B8EDF1B58AB0B0480A996E464418B8
:10453000AF48E77827C827C60023AE4E38461D4649
:10454000A12F73D00DDC0127AB490300FFF7ECFA74
:104550000F2D313437772F792FBC2F2F2F2F2FBFCF
:104560002F00EB2875D014DCE12873D0E82872D036
:10457000EA2F1CD107252D030126B6022846FDF798
:1045800059FCA81985B20D2000038542F6D3EA2113
:1045900006E0EC287BD0ED287AD0EE2F07D1EE2173
:1045A00001208007FFF7A6F9FBE000F0CFFE0BB07B
:1045B000F0BD01F06FFFFAE700F085FDF7E7A079A5
:1045C0000C46887001280DD0002809D08B4908704E
:1045D0003070FFF7B3FC8A480078002827D029E024
:1045E000357008E03770012210218648FDF7BEFCC7
:1045F000A078002817D181480078022813D1814C77
:10460000002210212046FDF7B1FCFF20F53001F01B
:1046100099FD012210212046FDF7A8FC7D20000114
:1046200001F090FD357001F0A3FB03E0A3E0002052
:10463000FFF762FE00210320FFF722FEB7E74F706D
:10464000B5E7207961790002081880B2002607904A
:1046500036E0ADE057E081E00A98A519811963487A
:104660000818017A407A090240180890AF79049737
:10467000E8790690287A697A0002081880B2AD1DA0
:10468000059000F01EFD014600205F4A07E09BE018
:104690009CE04300D35CBB4203D0401CC0B28842C4
:1046A000F7D34000801841780698814204D1291D33
:1046B000059A049800F076FB08983018001D86B221
:1046C00007988642C8D372E7FFF736FC6FE72046AB
:1046D0000D3004224DA101F08BFD4E4E002804D078
:1046E0004DA0FFF711FA357061E7E07E0A223038FD
:1046F000217F504330380818404241B247A0FFF7AD
:1047000003FA377053E7A079002897D1E0790128A0
:1047100094D1214608310D22684601F07AFD6846A1
:1047200001F026FD7D22D2000023FCF745FD3C4927
:104730000860A07D617D0002084340BA39494B22E0
:1047400012010880904204D9401EC04308803648B8
:104750000570098835A0FFF7D7F928E703223A4901
:10476000184601F0FBFEC0B20322374901F0F6FE05
:10477000C1B2E82060E7FFF771FC224C0022102153
:104780002046FDF7F3FBFF20F53001F0DBFC0122B2
:1047900010212046FDF7EAFB7D20000101F0D2FC4C
:1047A000A1E7207961790002081882B2A11D18E002
:1047B0002648EB21056001208007FFF79BF82A219E
:1047C0000A4802F00DFAECE7EC21E9E6207961797C
:1047D0000002081885B2E91D044802F001FAA11D83
:1047E0002A46384601F014FBE1E600007707002076
:1047F000486C0000F60000208800002044010020E2
:104800000101002000200B40206C000074727565CF
:1048100000000000030100203000000025640000BB
:10482000AC0000200A0100200201002074696D65BF
:104830005F7A6F6E655F3130302074696D65203D41
:10484000202564200D0A0000110100201C0000201A
:1048500004494B2212011046401EFDD1491EFAD1D7
:10486000704700007427000010B50A4C55202070D6
:10487000AA2060700020A0700921E1702071607191
:104880000621204600F001FCA0710721204602F01D
:104890007FF810BD850B0020F3B50446042681B0D7
:1048A000B1018048FCF74DFDE0217F48FCF749FD50
:1048B00020217E48FCF745FD08217D48FCF741FD9D
:1048C000602221467B48FCF723FD794F02980A3F7E
:1048D0000D2578802D032846FDF7ACFA7988284607
:1048E000FDF7CCFA002508E07248415D0D20000379
:1048F0003018FDF7C3FA6D1C361D78888542F3DB4E
:10490000FEF720FC6C49086009686CA0FFF7FCF812
:104910000020684B0C22054655436C3B21785955C5
:104920006178EA185170A1789170E178D17021799D
:10493000117101294FD100214B1DDBB25D4FE35CAA
:1049400056186C3F7371012B1DD1594E33547B5D4A
:10495000E1263601734356783C277E439B195D4E12
:104960004E43F3185C4E3668B34201D85B4FDB19F7
:104970009B1B514E366807469E191C235F434A4BCA
:10498000FB188F00DE51491CC9B20729D4D348490E
:10499000095C00291FD147493C266C394B5DE12158
:1049A00009014B435178714359184D4B1B68C91A83
:1049B0000BD541490968474B8600CB183B498B51C1
:1049C0003C4B0121EB18197105E03B4B1B68CB18E0
:1049D000364985004B51117900290DD1324B1C22EB
:1049E0004243D3180A468D00491CC9B25A510729BF
:1049F000F9D32E498300CA50401CC0B20C34082899
:104A000087D32C496620029A00F0ACFF012801D020
:104A10000020FEBD2748E0220C388168FF306D3051
:104A20000160FF3820490138FCF772FC20221F4941
:104A30002C48FCF76DFC1F4C002160340020402204
:104A4000571A08E085002E19625973689A4201D9F5
:104A500063517260401C8742F4DC491CC9B2412991
:104A6000ECD321A0FFF750F800200E4D0146820044
:104A7000A258002A03D08B00491CEA50C9B2401C3E
:104A8000C0B24128F3D30024A000295820A0FFF78A
:104A90003BF8641CE4B2412CF6D320490120087095
:104AA000FEBD0000000D0020000C0020E00C0020E6
:104AB0007E0000200C040020B0000020637572729C
:104AC000656E742052544374696D653A2564200DF7
:104AD0000A00000080510100CC000020803A09004B
:104AE000D00000204C0500202D2D2D2D2D2D2D2DFD
:104AF0002D2D2D2D2D2D2D2D2D2D2D2D2D2D2D2DE6
:104B00002D2D2D2D2D2D2D2D2D2D2D0A00000000AC
:104B100074696D65723A256409000000B8000020D0
:104B2000F8B52D4A017813782C4A00240126284F25
:104B3000284D1278002907D001291FD002291CD145
:104B40003978012933D00FE0397801290CD1002BB5
:104B50000AD1002A08D122492C704E720178012016
:104B600000F0ACFE64202FE0002210211D48FDF76C
:104B7000FDF97D20C00001F0E5FAF8BD2E70017846
:104B8000012000F09BFEFEF791F91748047001F038
:104B900095F91148047011480470144C21790220D1
:104BA00000F002FF2179032000F0FEFEF8BD002B8B
:104BB000DAD1002AD8D10A492C700A224A72017827
:104BC000012000F07BFE002001F06CFDF8BD00002C
:104BD000DD000020F4000020FD0000200101002085
:104BE000F00E002000200B40DF000020E00E00202F
:104BF000F0B50E46C1B00446FF21013101A8FCF713
:104C0000A0FB574F00250095BE8032462146B81DB7
:104C1000FCF77EFB2046FCF7ACFB00BA060AE07806
:104C20003602064335208002FDF704F900240FE028
:104C30004B48801D015D352080022818FDF71EF9C4
:104C40004848015D48482818FDF718F9641C2D1DD7
:104C5000B8888442ECD331466B2000F0A5FE43496E
:104C600001284E6002D0002041B0F0BD3F4840789E
:104C700001284FD1002E67D03C4D00203C4CAA6843
:104C8000074681006358934200D16750401C382882
:104C9000F7D3FEF757FA37490A78002A04D0364886
:104CA0000068A8600F7003E03C214E433018A860F4
:104CB00032A0A968FEF728FF002001AE81002C4A2F
:104CC000401C525872504028F8D3A86800213D90EB
:104CD00000203F22571A08E08400A51932596B685A
:104CE0009A4201D933516A60401C8742F4D8491C6A
:104CF0004029EDD300201E4B01468200B258002A05
:104D000002D08C001A51491C401C4028F5D322497E
:104D100001200870154D6878002815D1144A064600
:104D200081005358AC68A34202D1AE605650009047
:104D3000401C3828F4D3009804E081008B185B688D
:104D40005350401C3828F8D3094D0024A00029589E
:104D500012A0FEF7D9FE641C382CF7D3012083E79C
:104D6000740000200E01002020D400000004002068
:104D7000000D0020FF0000202C010020636F756EE5
:104D8000745F6F7065722E6C6F63616C74696D65B2
:104D9000203D2025640D0A00B8000020656E643AAD
:104DA00025640900F8B506467248002517460C46EA
:104DB0000560FDF7CDFD31466FA0FEF7A5FE30463C
:104DC0000126672852D012DC10283FD008DC0128C9
:104DD00017D002281AD0042826D0052820D12AE08E
:104DE00013283AD0652871D06628F7D17EE068385C
:104DF0000300FEF799FE0947BD81B0955EBDBDB5C4
:104E0000BD0039462046FFF78BFE73E03946204649
:104E100000F040FE5C49E0780A78002A01D00D706D
:104E2000A6E001F03FFCA3E02046394600F030FE4A
:104E30000146042005E02046394600F029FE0146DF
:104E4000052000F03BFD01284ED070E02046394699
:104E500000F01EFE01461020F3E72046394600F020
:104E600019FE0146132000F09FFDECE7247867202F
:104E7000214600F023FD012859D144480470FCF775
:104E800067FE31E027786820394600F017FD0128D9
:104E90004DD13F4C277021783EA0FEF735FE20789B
:104EA000002821D101F00AF84148057025704148D9
:104EB00009E024786D20214600F000FD012836D15C
:104EC0003D4804703D4805700EE0FFE724783C48FB
:104ED000012C07D00573FFF78DF82146652000F0FF
:104EE000C9FCB0E70673F6E7344641E03946204690
:104EF000FFF7D2FC04463BE02178324C6A20217057
:104F000000F0B8FC012812D120782F4C2070FCF75B
:104F100077FD37208002C069C1B221702BA015E057
:104F200024786C20214600F0A5FC012801D02C46F5
:104F30001EE02548012C0CD04570FCF751FD3720B0
:104F400080028069C1B22048417024A0FEF7DCFDD8
:104F5000CAE74670F1E739462046FFF749FEC9E740
:104F600000210C2000F0CAFC00F0A8FF08480570E2
:104F70002046F8BD1C0000204450206973737565FD
:104F8000643A25640D0A0000DE000020D4000020F1
:104F9000BD00002063616C6962726174696F6E208C
:104FA0007374617475733A25640D0A200000000063
:104FB000DC000020FB000020BE000020BF0000201D
:104FC000E00E002074000020000400206773776961
:104FD000746368203D2025640D0A0000666C6167DB
:104FE000203D2025640D0A00F3B581B000280AD0C9
:104FF0000021072500912D03C821FCF7B3F80646D0
:105000000F4600240EE00120FEBDC82210492846AC
:1050100000F001FD6A46C8210D48FFF765FA641CDF
:10502000C8350090B442F0D3781EC7280AD23A4659
:105030000749284600F0EFFC6A4639460448FFF766
:1050400053FA00900298009901600020FEBD000014
:105050006001002070B50125044681B2AD072846E5
:10506000FEF748FCAE1531462846FEF7FFFB002848
:10507000F9D0204670BD10B500F038F8FEF72EFAD2
:10508000FCF7CEFCFDF764FC10BD034610B5002014
:10509000024605E01C78521C2018C0B292B25B1C7C
:1050A0008A42F7D310BD034610B50020024605E042
:1050B0001C78521C2018C0B292B25B1C8A42F7D3F3
:1050C00010BD1320704710B500210220FFF7D8F85B
:1050D00010BD0000044841688068814201D0012071
:1050E00070470020704700008800002010B50B4C6E
:1050F00055202070AA2060700020A070E121E1708E
:10510000207101206071A07107212046FFF7BDFFCB
:10511000E0710821204601F03BFC10BD850B00200A
:1051200010B53720800281690C4C6170C069207015
:105130000B48FCF77FFE0B49002048700A496422A7
:105140000A71086001220A73C871084B18708860E0
:1051500062702270FEF7C8FC10BD00000004002041
:1051600004DC0000DC000020E00E0020D400002061
:10517000F8B5012210211046FCF722FB564C1020F6
:10518000A062014602222046FCF7D6FE032210212F
:105190002046FCF7B1FE012210212046FCF7A4FEB8
:1051A0000122950329460020FCF70AFBA5624B4E1D
:1051B000022229463046FCF7BFFE0322294630462C
:1051C000FCF79AFE012229463046FCF78DFE0022AC
:1051D00029463046FCF7CAFE0122D7033946002093
:1051E000FCF7EEFA002239463046FCF77DFE00223D
:1051F00039463046FCF7A0FE012239463046FCF71E
:1052000093FE32462115002000F0B8F80122114625
:105210001046FCF7D5FA0125A56202222946204650
:10522000FCF78AFE012211462046FCF765FE0122AA
:1052300011462046FCF758FE012202211046FCF7D9
:10524000BFFA0220A062024601462046FCF774FE27
:10525000012202212046FCF74FFE012202212046B6
:10526000FCF742FE012211460220FCF7A9FA28466B
:105270001B4DA862022201212846FCF75DFE012297
:1052800011462846FCF738FE012211462846FCF755
:105290002BFE012211462846FCF768FE3246A11576
:1052A000002000F06BF822464021012000F066F853
:1052B00022466115012000F061F82246394601209E
:1052C00000F05CF82A460821022000F057F8002080
:1052D00000F0DAFDF8BD000000200B4000000B409C
:1052E00000400B407FB50024FF25013521460123F6
:1052F0002A460846FCF750FB69460C8010487D2181
:10530000C9000068FBF72EFF6946401E48800C71FB
:1053100002940C4C8D812046FEF7C0F829462046A9
:10532000FEF720F8084A290111600122294620468B
:10533000FEF75CF801212046FEF719F87FBD00005A
:105340004800002000E0064000E100E010B50A4BF4
:1053500000201978002907D0012101F00DF9C1B210
:105360000020FEF78DFF10BD002101F005F9C1B24C
:1053700001201870F4E700008800002070B5154681
:105380000C460122FCF71CFA002221462846FCF7B5
:10539000ABFD002221462846FCF7CEFD0122214626
:1053A0002846FCF7C1FD70BD0248012101700021B3
:1053B00081747047F400002003480021C16301702C
:1053C0000121817470470000F4000020FEB5002424
:1053D000022100940194224608460294FCF7F0F959
:1053E000394F002202213846FCF77EFD00220221BF
:1053F0003846FCF7A1FD012202213846FCF794FD56
:1054000002210120FCF7C6F90120009068460471D2
:10541000C48004260672FCF7FFFB01210846FCF756
:105420000BFC2A4D10202860002204210220FCF7EA
:10543000C7F9002204213846FCF756FD002204215A
:105440003846FCF779FD012204213846FCF76CFD53
:1054500002210846FCF79EF902200090684604717C
:10546000C4800672FCF7D8FB01210220FCF7E4FBA4
:10547000052620202860014600220120FCF7A0F923
:10548000134F002220213846FCF72EFD0022202158
:105490003846FCF751FD012220213846FCF744FD37
:1054A00001210520FCF776F9684600960471C48056
:1054B00003210172FCF7B0FB01210520FCF7BCFBC6
:1054C00040202860FEBD000000400B4000E100E0ED
:1054D00000200B40FD2000020068C0B2FF2801D070
:1054E000012070470020704770B52B490025487B8C
:1054F0002A4C2B4E002801D025600EE0294B226853
:105500009A420ADD3268002A07D18A6A002A04D149
:10551000002802D1C879002802D0487C002839D060
:1055200000F04EF8256000F0C9FC0120306001F069
:10553000DDF9002201211C48FCF718FD0122102191
:105540001A48FCF713FD00211948FCF7DBF8FDF7BA
:10555000F9FD184908601848FDF714FF1748FDF7D2
:1055600011FF0120FCF73AFB0220FCF737FB052076
:10557000FCF734FB0E20FCF731FB0F20FCF72EFB71
:105580000120FCF77DFB0120FDF72EFCFEF756FC09
:10559000FFF71CFF70BD0000F40000201C0000207D
:1055A000A80000203075000000400B4000200B4098
:1055B00000000140B000002000C002400040074051
:1055C00010B5FCF76BFB10BD10B5012109030020DD
:1055D000FDF71CFB01F01AFBFEF762FDFEF726FF4C
:1055E00001F09CF901F0C4FAFFF7F0FEFFF7C0FDEF
:1055F000FEF724FCFFF776FEFEF7FEFC00F084FFCA
:1056000001F03CF8FFF78CFDFEF76AFDFFF733FD74
:105610001549012008600020FDF7CCFB0120FDF7B3
:10562000BBFB01208005FDF737FC0120FDF726FCC0
:105630000120FDF715FC012189020C48FCF791FCC3
:1056400000280DD000F048FFFFF744FF002805D0E8
:1056500007A109A0FEF758FAFDF782F8002010BD57
:10566000FDF79AF8FAE7000000E100E000000B40C7
:10567000312E332E3200000056455253494F4E20F2
:1056800025730D0A00000000F8B50027304E314D9B
:10569000044688280AD16878052807D0642000F0DD
:1056A00051FD01206870688934540DE06878FF224C
:1056B00001320300FEF738FA064A041C0C2C381C91
:1056C00068893454032068706889401C68813DE013
:1056D000688934546889698930182038C07F00028D
:1056E000715C084328816989491C6981904208D905
:1056F0000021174800F0ADFD002068816870288106
:1057000024E0002801D0042000E0052068701DE09E
:1057100068893118401C68810C702889401E00047B
:10572000000C2881F1D011E068893118401C688193
:105730000C706889401E81B20548FFF7A6FC8442C0
:1057400001D0002000E00120A87001273846F8BDF4
:10575000850A002050000020F0B53D4B01465878E6
:10576000187000279A78FF261C465A7008360E3C9F
:1057700099703D46552803D1AA2A01D1080008D0C6
:10578000227834481300FEF7CFF906611A21284F1A
:105790005B3A324600212F4800F05BFD03222C4982
:1057A0002C4800F036FD03220021294800F051FD6D
:1057B0000320E080012020702846A580F0BDE2880B
:1057C0008018521CE280017002202BE0E2888018D1
:1057D000521CE2800170032024E0E2888318521CEE
:1057E000E2801970E188E28841182039897F090236
:1057F00080182038C07F0143A180B1420DD9032217
:105800000021134800F025FD32460021114800F028
:1058100020FDE5802570A58018E0002901D0042036
:1058200000E00520207011E0E2888018521CE28020
:105830000170A088401E0004000CA080F1D005E09B
:10584000E2888018521CE280017001273846F0BDC2
:105850005E00002077070020FEF7FAFFBFF34F8FAE
:1058600003490248C860BFF34F8FFEE70400FA0502
:1058700000ED00E010B50C460F4902460978002003
:10588000012914D0114600F077FE012100F074FECA
:10589000002100F071FE012100F06EFE002C08D006
:1058A000012100F069FE01460720FEF7E9FC012016
:1058B00010BD0021F5E700009C00002010B50C464B
:1058C0000D49024609780020012912D0114600F046
:1058D00053FE042100F050FE002100F04DFE012196
:1058E00000F04AFE214600F047FE01460720FEF781
:1058F000C7FC012010BD00009C00002070B50C46C4
:105900001749024609780020012922D0114600F0EB
:1059100033FE052100F030FE002100F02DFE210AAB
:1059200019D0210C250A002917D0042100F024FEEB
:10593000210E00F021FE2102090E00F01DFEE9B249
:1059400000F01AFEE1B200F017FE01460720FEF754
:1059500097FC012070BD0121F2E70221EDE7000074
:105960009C00002070B50D460E4914460246097889
:105970000020012913D0114600F0FEFD002100F0A7
:10598000FBFD210A00F0F8FDE1B200F0F5FD224632
:10599000294600F0E3FD01460720FEF771FC0120D7
:1059A00070BD00009C00002010B50C461249024654
:1059B0000978002001291DD0114600F0DDFD0221EB
:1059C00000F0DAFD002100F0D7FD042100F0D4FD45
:1059D000210E00F0D1FD2102090E00F0CDFD2104C1
:1059E000090E00F0C9FDE1B200F0C6FD0146072036
:1059F000FEF746FC012010BD9C00002070B5451844
:105A000001260446B60203E02046FCF713FAA41967
:105A1000AC42F9D370BDF7B50646002082B01746F8
:105A20000546044600900BE030680090039804227D
:105A300040196946FBF76CFC241D2D1DE4B2361D90
:105A4000BC42F1D305B0F0BDF0B5164687B00446B0
:105A500087190D466846FCF7F9F9002006E0215841
:105A6000491C02D0462007B0F0BD001DB042F6D35D
:105A70000AE00422294606A8FBF74AFC20460699BC
:105A8000FCF7FCF9241D2D1DBC42F2D34F20EAE7A0
:105A90000078704700B5FEF719FC00BDF0B5C3B043
:105AA0000024454901940C604449054608780328C0
:105AB00002D0087804287AD168782A780002104346
:105AC0003E4A40BA5080E978AB780902928819437F
:105AD000521C49BA904203D0002801D0012446E06C
:105AE000C82901D9052442E035480721006B090384
:105AF00047183448874200D30124380508D10121D2
:105B000009033846FFF77AFF002801D004242EE06D
:105B1000002C2CD1E878A9780002084346BA324616
:105B2000A91D02A8FBF7F4FB324602A93846FFF78D
:105B30008BFF4628EAD0224A3146683202A8FEF797
:105B4000D3FC1F498866086B80190863086F8019A9
:105B500008671A4801218078C906C006C84206D1E4
:105B6000FF221D2079321649C002FFF76DFF6846FB
:105B70000470124D0420287001226946019800F03B
:105B8000EDFC0146ED20FEF77BFB002C11D0002040
:105B9000287000F0EDF8FF24793421460848FBF71F
:105BA000D0FB1D2022460649C002FFF74DFF43B03F
:105BB000F0BD6888A880FAE71C000020640000207F
:105BC00028020020FF0F0600F0B504468DB000202B
:105BD0000B905B480078012873D1207A617A000429
:105BE00009020818A17A10220D1821460B315548D8
:105BF0000A910990FBF7B0FB00282AD00027E07E2D
:105C0000217F000609040818617F09020818A17F96
:105C10000E18E07F01062046203002781204511849
:105C2000427880781202511840180890082246A144
:105C30002046FBF791FB434C543C00280BD0012538
:105C400020216846FBF77DFB68460570002D3FD09C
:105C50006BE00127D3E73F48854233D93E498E4266
:105C600030D8002F0BD0A06CA84208D1E06CB04215
:105C700005D1216D0898814201D100251AE03148F3
:105C80003C211C38FBF75DFBE6640020A564A066A0
:105C90000898206510220A990998FBF739FB206FB4
:105CA00028492063FF221D20002579325439C00283
:105CB000FFF7CAFE0721224809038160E16CC16039
:105CC000BEE73BE0854201D80225B9E70325B7E7E7
:105CD0000025089508A9206FFFF786F900280ED146
:105CE000A06E089988420AD025671649A566FF224A
:105CF0001D2079325439C0022563FFF7A5FE206FBD
:105D00006A46010E5170010C9170010AD170107138
:105D1000A06E010E5171010C9171010AD1711072C6
:105D200007480221017045808580192269460B9839
:105D300000F014FC0146EB20FEF7A2FA0DB0F0BD16
:105D4000640000207C020020623970613475626E4C
:105D50000000000002030100FF9F0500034800212E
:105D60000170418081800846704700006400002077
:105D700010B5084C2078002808D0FF221D20793269
:105D80000549C002FFF760FE0020207000206080FF
:105D9000A08010BD64000020280200207CB51A4CB1
:105DA0000025217802292DD10178427809061204B4
:105DB00051188278C07812025118144EC8420DD181
:105DC000306F00280AD00020B06630673063FF22B1
:105DD0001D2079323146C002FFF736FE306F6A4629
:105DE000010E1170010C5170010A9170D0700320E6
:105DF000207004226946284600F0B0FB0146EC20E2
:105E0000FEF73EFA7CBD000064000020280200205E
:105E10003EB50C46EA381B490300FDF785FE050434
:105E20001C21262B1B000878002813D16C462070FB
:105E3000012262700323A3700223E3702071C82340
:105E400063710A700622694600F088FB0146EA2069
:105E5000FEF716FA3EBD11462046FFF7B5FE3EBDE1
:105E600011462046FFF79AFF3EBD11462046FFF738
:105E700015FE3EBD08780028FBD0002000F000FA97
:105E80003EBD00006400002010B50B4C01280CD072
:105E9000002809D1002201212046FCF767F80022E2
:105EA00002212046FCF762F810BD0122114620466F
:105EB000FCF75CF80122F3E700200B4010B500204E
:105EC000FFF7E2FF01210020FCF7E0FE01210020A6
:105ED000FCF71EFF10BD0000F8B5824E20213046B1
:105EE000FCF73FF8012500247F4F002814D1387AB1
:105EF000002811D0002210213046FCF737F87B48EB
:105F000005707B4805707B4801687B48814202D957
:105F10007A4804703C72FD7120217248FCF721F828
:105F2000774E002839D0F879002836D07148724968
:105F30000068884216D201210846FFF7BFFCFCF733
:105F4000B5FFFC706F48347004706F48017902200F
:105F5000FFF72AFD6C4801790320FFF725FDFFF7C5
:105F6000ADFF0CE088420AD9FEF77EFC0122102129
:105F70005C48FBF7FBFF7D20000100F0E3F8012205
:105F800010215848FBF7F2FFFC7159483D7204702C
:105F9000584804605D48347004605B48007B00280A
:105FA00056D058480078002852D150480078002830
:105FB0004ED0787AB97A084313D0B87900280CD03B
:105FC000FDF7C0F83969411A7961012904D850A058
:105FD000FDF79AFD7C72BC72BC71FDF7B3F83861B5
:105FE000BD71787A00282BD05048017800292ED135
:105FF0007C720A2000F0A6F802214D48FBF7B1FFA1
:1060000000281DD0F878002801D0022818D149486E
:106010000470FCF79DFCF87802284CD03B48FD70DA
:1060200004600120FFF730FFFFF748FF6420401EA7
:106030000028FCDC787801280BD0FCF789FCFC7088
