:020000040000FA
:1000000018080020AD0000001701000011040000D6
:10001000FFFFFFFFFFFFFFFFFFFFFFFFFFFFFFFFF0
:10002000FFFFFFFFFFFFFFFFFFFFFFFF1B010000C0
:10003000FFFFFFFFFFFFFFFF1D0100001F0100008A
:100040000348854600F094F800480047190800006E
:100050001808002001688D464168084730B50B46F6
:10006000014600202022012409E00D46D5409D4292
:1000700005D31D469540491B254695404019154618
:10008000521E002DF1DC30BD10B5092103200022E5
:10009000C9020004012300F017F910BD70470000E9
:1000A0000000000000000000E90600001C48804736
:1000B0001C4880471C4800471C480169002908D19A
:1000C0004169002905D18169002902D1C16900294E
:1000D00009D01748C1680901090D00290ED005296A
:1000E0000CD006290AD0BFF34F8F12481249016085
:1000F00012491148C860BFF34F8FFEE70D480168F1
:100100000D48884200D070470D480E4901600948EB
:100110000D4901607047FEE7FEE7FEE7FEE7FEE7F8
:10012000B90000002D050000410000000003084058
:1001300080010840000000200400FA0500ED00E006
:1001400000810840010000000000000003460B434E
:100150009B0703D009E008C9121F08C0042AFAD27D
:1001600003E00B780370401C491C521EF9D2704703
:10017000064C0125064E05E0E36807CC2B430C3CFA
:1001800098471034B442F7D3FFF75EFFC809000068
:10019000E8090000F0B596460A461349C000461823
:1001A00000230025FF2098402C46104216D0002046
:1001B000012199408C461146C1406746394206D01C
:1001C00087000F21B9400D437146B9400C43401CD4
:1001D0000828F0D33068A843204330600833361D28
:1001E000082BDEDDF0BD00002020024070B5184D68
:1001F0000446686B4607760F00F02EF8154920601C
:10020000330000F0ABFA081405070714140E11149C
:10021000606000E06160296A6068052909D34009CF
:1002200008E00120C003F3E77D200002F0E7002092
:10023000EEE7C840A060A96A4903490F072902D028
:10024000C840E06070BD0321FFF708FFF9E7000038
:100250000080084000127A000C490868C869C20F83
:100260004868400AC007C00F0ED00948002A0BD1C9
:100270008869C00D0007000F00D110208969044A69
:100280004902890F5043C840704700000080084071
:1002900000127A001FB541090A4A89008A18002114
:1002A0002E2800D10221C006C00E1268032383400D
:1002B0001A40C24054186846FFF798FF029804B0ED
:1002C000E04010BD38800840F0B5084F7C6AFD6AF8
:1002D0003E6B84438D439643002B02D004430D4371
:1002E00016437C62FD623E63F0BD00000080084062
:1002F000F7B582B01546002808D000210091C8212A
:10030000FFF7ACFE06460F4600240FE0012005B0C3
:10031000F0BDC8221049284600F0DAFA6A46C82122
:100320000D4800F037FA641CC8350090B442F0D391
:10033000781EC7280AD23A460749284600F0C8FA6C
:100340006A463946044800F025FA0090039800995F
:1003500001600020DBE700003404002000B5044900
:1003600008600820C8601420086100F029F800BD6A
:100370000000084010B50A4B03218A00D418246AF3
:10038000E4438450491EF8D5196BC907C917491CA5
:100390000161196B8907C917491C416110BD000033
:1003A0000000084000B5054A106051600420D0608C
:1003B0001420106100F004F800BD000000000840A7
:1003C00010B5124910484A6902231A434A6114229F
:1003D0000A6104E00A691207920F032A01D0401E45
:1003E000F8D28A698C699C438C61910301D5022003
:1003F00010BD910701D5012010BD002801D00020BB
:1004000010BD032010BD0000FFFF0F0000000840DA
:10041000024801680029FCD0704700001800002045
:1004200010B50124240320680721490740180B490F
:10043000884212D260683B21001B890288420CD29C
:100440000749A0030860074800F0EAF821460020A9
:1004500000F04EF82046FFF7FDFD10BD0120000022
:1004600080E100E000100440FFB5044681B002982E
:100470001746221826460720C73600032546844221
:1004800001D1012300E000232946082000F040F9B3
:100490004F2813D00BE0C8221049384600F0FEF96F
:1004A000C8220E49204600F021FA4F2802D04620EB
:1004B00005B0F0BD751CC936C834C8370720000325
:1004C0008542E8D9024669460298FFF711FF009974
:1004D00004988142ECD14F20EAE700004D0500204E
:1004E00001200249800608607047000000E100E03A
:1004F000024A1140014302488160704780FFFF1F9C
:1005000000ED00E0F0B5084F7C68BD68FE688443EC
:100510008D439643002B02D004430D4316437C6069
:10052000BD60FE60F0BD000000810840F0B53749B5
:100530001020C860364E012030603649086B4025D7
:10054000284308633448002344158268272AFCD1D5
:1005500000E0446042689205FBD500E043604268D9
:100560009205FBD43360486A0322920290434862AA
:1005700048680122D202104348608868C008C0075A
:10058000FBD04868C008C000C01C4860486B4007EA
:10059000400F0328FAD1214A1068C008C000401C4F
:1005A00010600B624868A0434860086896153043A5
:1005B0000860486817153843486088688008C00795
:1005C000FBD0086BA84308630868B04308600520A7
:1005D000C005886148682043486088684008C007B3
:1005E000FBD01068C008C000801C10600B62486817
:1005F000C008C000401C4860486B4007400F0128FD
:10060000FAD11168102001431160F0BD008108404B
:10061000008308400080084000A106400002084016
:100620000021012310B59B070A46984200D181158D
:10063000074B984201D103151943064B984201D14B
:10064000C014014301231046FFF75CFF10BD0000FA
:10065000001000400010044070B504460D46C888E4
:100660008988626808432989134B1A40114308435B
:1006700069890843606001208007844206D1182000
:10068000FFF708FE2968FFF7E9FC60620B48844227
:1006900006D11C20FFF7FEFD2968FFF7DFFC606232
:1006A0000748844206D11E20FFF7F4FD2968FFF7B2
:1006B000D5FC606270BD0000FCE0FFFF0010004050
:1006C00000100440002AC26801D00A4300E08A43B7
:1006D000C260704710238B404168002A01D0194343
:1006E00000E099434160704706490869800608D5D3
:1006F000054A10680968054B1954401C8005800D97
:1007000010607047001004401C00002034000020DE
:1007100070B51546521A002B08D00A2810D00120B7
:10072000C00381420CD31F20800207E00A2807D0B3
:1007300001200003814203D33B208002824201D981
:10074000462070BD01260C46B60203E02046FFF7A6
:1007500005FEA419AC42F9D94F2070BD30B47446DF
:10076000641E2578641CAB4200D21D46635D5B00AD
:10077000E31830BC184702E008C8121F08C1002A5D
:10078000FAD17047002001E001C1121F002AFBD1FD
:1007900070470000F0B50026F643002A04D0126826
:1007A000D2430024094F0DE03246FAE7035D5A4078
:1007B00008235508D20700D032463A406A405B1EF3
:1007C000F7D1641C8C42F1D3D043F0BD2083B8ED47
:1007D00070B50E4800F0A8F80E480D4C0546806D27
:1007E000A0600C484035C06D20600A48006E606013
:1007F0000848014664314EC948304EC03B20800253
:1008000000F092F8A869E06070BD000048E80000C0
:1008100024000020B4040020FFF762FEFFF734FC40
:1008200000F09AF8FFF7D4FF174E184801681848EF
:10083000814226D1072730683F031D24C119E402F5
:10084000A1421ED23A461349FFF752FD114D1249FB
:100850002D1F68680B68984213D101203A460003A7
:100860003168FFF701FEC0B228704F28DDD10125A5
:10087000AD020F273F032046FFF770FD6419BC420D
:10088000F9D3FFF7CDFDD0E7240000203000002091
:10089000F5FAAA551400002028000020F8B50646F5
:1008A000002017460546044600900CE03068009092
:1008B0000648042240196946FFF748FC2D1D241DF7
:1008C000EDB2E4B2361DBC42F0D3F8BD4D050020B8
:1008D00070B50024234605E020C80E191B1DDBB2AD
:1008E000241D35609342F7D370BD0000F0B587B08A
:1008F000054686186846FFF73DFD0024094F0BE0CA
:100900003919042206A8FFF721FC28460699FFF7AB
:1009100049FD241DE4B22D1DB542F1D34F2007B08F
:10092000F0BD00004D050020F8B506460020094F37
:100930000546044600903068009078190422694604
:10094000FFF704FC641CE4B22D1D361D102CF2D3FD
:10095000F8BD00000C0500203EB501239B031943A0
:100960009C1107231B04184321430123FFF7ACFC10
:10097000062210210220FFF70DFC06222021022072
:10098000FFF708FCE1204002009069468C800020BF
:10099000C88008814881A4052046FFF75DFE01223A
:1009A00011462046FFF78EFE012200212046FFF768
:1009B00091FE012211462046FFF78CFE0149E0110D
:1009C00008603EBD00E100E0E809000010000020E2
:1009D00024000000760700000C0A0000340000200C
:1009E000E407000084070000000000000000000091
:1009F00000000000000000000000000000000000F7
:0C0A0000000000000000000000000000EA
:020000040000FA
:1010000050130020AD1000005128000051200000B6
:10101000FFFFFFFFFFFFFFFFFFFFFFFFFFFFFFFFE0
:10102000FFFFFFFFFFFFFFFFFFFFFFFFC12D0000DE
:10103000FFFFFFFFFFFFFFFFA52B0000252E000095
:1010400021110000192D000021110000F11A0000EB
:101050004D1B0000551B00005D1B0000FFFFFFFF44
:10106000EF160000FFFFFFFF21110000FFFFFFFF51
:10107000E11E0000211100002111000021110000DB
:1010800021110000E11700002111000021110000D2
:101090002111000021110000211100008B330000FC
:1010A000FFFFFFFF69330000893300001D488047C0
:1010B0001D4880471D4800471D480169002908D187
:1010C0004169002905D18169002902D1C16900293E
:1010D00009D01848C1680901090D00290ED0052959
:1010E0000CD006290AD0BFF34F8F13481349016073
:1010F00013491248C860BFF34F8FFEE70E480168DE
:101100000E48884200D070470E480F4901600A48D7
:101110000E4901607047FEE7FEE7FEE7FEE7FEE7E7
:10112000FEE70000B91000002D2E00005111000054
:101130000003084080010840000000200400FA0578
:1011400000ED00E000810840010000000000000008
:101150000348854600F096FA0048004761500000B9
:101160005013002030B50B460146002020220124F8
:1011700009E00D46D5409D4205D31D469540491BCB
:101180002546954040191546521E002DF1DC30BD14
:1011900070B500242546002801DA012440420029C8
:1011A00001DA01254942FFF7DDFFAC4200D04042A1
:1011B000002C00D0494270BDF8B500242546002916
:1011C00004DA0E46012400214042B141002B04DA2A
:1011D0001E46002352420125B34100F0BFF98C4660
:1011E00017461E46AC4203D0002540428D41AC4616
:1011F000002C02D0002657429E4161463A463346B3
:1012000001B0F0BDF0B51FB486B000200090019091
:1012100002900698069980B204900798090C02047F
:101220000014114307900027089D099806913E4637
:101230003C4603900398A9B20204000C0390049862
:101240002D0C154348430021224600F0B7F9C71979
:10125000714110340E46402CECDB3846029A00F007
:10126000ADF9009A019B80180090594102980191B4
:10127000103002904028CCDB00980BB0F0BD10B5C8
:10128000C0B2802100F0AAF910BD10B50F21C0B284
:10129000490200F0A3F910BD70B5194C00683C215B
:1012A000FFF760FF21603C21FFF75CFF61601821C0
:1012B000FFF758FF0546A1600721001DFFF752FF09
:1012C000A1611048A90008180F49FFF74BFF4430EF
:1012D00060618808E0613B2803D3217D890700D045
:1012E000401C0021094B0A462161995C814203D8C8
:1012F000401A521C2261F8E7401CE060204670BD95
:10130000241100206C0B0000B505000006690000E8
:1013100003460B439B0703D009E008C9121F08C00E
:10132000042AFAD203E00B780370401C491C521EB9
:10133000F9D27047D2B201E00270401C491EFBD2C4
:1013400070470022F6E710B513460A4604461946D0
:10135000FFF7F0FF204610BD30B5044600200346DD
:1013600000E05B1C934203D2E05CCD5C401BF8D0F4
:1013700030BD0321001D401E037812021A43491E8E
:10138000F9D510467047F8B502464A40D40F4200DE
:101390004B0052085B089A4202D2024608461146A8
:1013A0004A0023D0C30D4A00DDB2120EAD1A202D23
:1013B00035DA49020126490AF6058A19002C00D0BF
:1013C000524220214F1B1146B9402A411018C20D2C
:1013D0009A4221D0002C17D0012D08DCDA05801AA2
:1013E000D20F8019D207DBB200F012F9F8BDDA058E
:1013F000801A012340001B06C01880185A4280182A
:10140000CA0F1043490007E04908C2071143DA0533
:10141000801A80194008801800F0F2F8F8BD6100C9
:101420000122511A001BF7E70122D2075140AAE717
:101430000122D2075040A6E7024670B54A40D30FBA
:10144000DB0740002DD04A002AD0010E140E000206
:1014500012020919400A520A8418E501044654434D
:10146000000A120A2E045043A4194219200CC54345
:10147000AA18120C0125AD03521C521912047F390F
:10148000240400D0521C104301D44000491EC2B2B3
:101490000C06C0092018401C4008802A02D003E036
:1014A000002070BD40084000002900DA00201843E9
:1014B00070BD420005D04200120E52428A4201DB4A
:1014C00000207047C90508187047C217C10F504067
:1014D00010B54018CA079623002100F099F810BDF6
:1014E00010B500229623114600F092F810BDC20FED
:1014F000410040020123400ADB05D207090EC01853
:101500007F2901DA00207047962903DC9623591AB7
:10151000C84001E096398840002AF4D04042704724
:10152000410040020122400AD205090E80187F299D
:1015300001DA00207047962903DC9622511AC84030
:1015400070479639884070470122D207002800DB97
:10155000101A002900DB511A81427047F0B51FB400
:101560000646002082B005464024019100901BE011
:10157000019922460F46304600F096F8049A059BE2
:10158000801A994110D310461946224600F016F8E9
:10159000361A8F410197224601200021009F00F05A
:1015A0000DF838184D4100902046641E0028DFDCFD
:1015B000019B00982946324607B0F0BD10B5202A9D
:1015C00004DB0146203A9140002010BD91402023C9
:1015D0009C1A0346E3401943904010BD7F2801D96F
:1015E000002207E0054B42089A5CC00700D11209AF
:1015F0001207120F01209040084070471269000046
:10160000002904DA401C490001D14008400070471D
:1016100070B40024050C05D11024000402D1002967
:1016200021D01124050E01D100020834050F01D18B
:101630000001241D850F01D18000A41C002801DBBE
:101640004000641C002908D020252E1B0D46F540C3
:10165000A14000D001212943084301061B1B000AB9
:10166000DB1D02D5002070BC7047DB051818801800
:101670000029F8DA401C4900F5D170BC4008400050
:1016800070470000064C0125064E05E0E36807CCD4
:101690002B430C3C98471034B442F7D3FFF75CFD62
:1016A000E8690000086A000010B5202A04DB08463B
:1016B000203AD040002110BD0B46D340D04020241A
:1016C000A21A91400843194610BD802200290168E2
:1016D00001D0114300E091430160704710B5002034
:1016E000012212060123014601F0DEFA10BD704707
:1016F0008030002A026801D00A4300E08A43026079
:101700007047930810B59B00181843689207D20ED3
:101710001F249440A34391400B43436010BD5B1EC4
:1017200012021B04FF3A013A13430B430168802263
:1017300011400B4303607047CA06D20E0267490985
:101740004901416770470029416F02D001221143CE
:1017500001E04908490041677047000010B50022C8
:10176000072802D901220838C0B29300054A9A1806
:10177000136880000F248440A34381401943116003
:1017800010BD000000200240F0B596460A461349FD
:10179000C000461800230025FF2098402C46104228
:1017A00016D00020012199408C461146C140674661
:1017B000394206D087000F21B9400D437146B94028
:1017C0000C43401C0828F0D33068A8432043306005
:1017D0000833361D082BDEDDF0BD0000202002405E
:1017E00010B50A4800F01CF809480168491C01605E
:1017F00008484168491C416007480068012803D136
:1018000006480168491C016010BD000000600740E7
:101810009800002010000020F8000020FC000020AC
:101820004168490849004160BFF34F8F7047042267
:101830000029016801D0114300E091430160704725
:101840000029016802D00122114301E04908490042
:101850000160704702220029016801D0114300E0B5
:10186000914301607047C16070478160704700001C
:1018700003498968014201D0012070470020704768
:101880000080084070B5184D0446686B4607760F17
:1018900000F02EF815492060330001F081FE081495
:1018A00005070714140E1114606000E06160296AD6
:1018B0006068052909D3400908E00120C003F3E767
:1018C0007D200002F0E70020EEE7C840A060A96A92
:1018D0004903490F072902D0C840E06070BD0321C9
:1018E000FFF740FCF9E700000080084000127A0092
:1018F0000C490868C869C20F4868400AC007C00F91
:101900000ED00948002A0BD18869C00D0007000FCE
:1019100000D110208969044A4902890F5043C84008
:10192000704700000080084000127A001FB541098E
:101930000A4A89008A1800212E2800D10221C006F7
:10194000C00E1268032383401A40C24054186846F0
:10195000FFF798FF029804B0E04010BD38800840BF
:10196000F0B5084F7C6AFD6A3E6B84438D43964315
:10197000002B02D004430D4316437C62FD623E639C
:10198000F0BD0000008008400C214843054910B517
:1019900040188178012903D0C07804F089FC10BD7B
:1019A0000020FAE76003002070B53724A402216804
:1019B0001048016061680171A1684171E16881713D
:1019C00021690D4A117061690C4A1172E1698160E7
:1019D000216A0B480160616A0125AD020726760382
:1019E0004160204600F0DAF96419B442F9D301F0FD
:1019F00085FD70BDA00E0020CC000020C00300209B
:101A00000401002070B53724A40221681048016049
:101A100061680171A1684171E168817121690D4AB4
:101A20001170A1690C4A1170E1698160216A0B484B
:101A30000160616A0125AD020726760341602046F8
:101A400000F0ACF96419B442F9D301F057FD70BD50
:101A5000A00E0020CC000020C003002004010020C4
:101A600030B5002135239B021868094AFF2810620F
:101A700001D3002009E0074C0020CD182D68255423
:101A8000401C091D0428F8D30120107230BD00004D
:101A9000E00000206A00002070B53724A40221680D
:101AA0001048016061680171A1684171E16881714C
:101AB00062690D490A72A2690A70E1698160216A4E
:101AC0000A480160616A0125AD020726760341607C
:101AD000204600F063F96419B442F9D301F00EFD19
:101AE00070BD0000A00E0020C003002004010020F3
:101AF00010B512480021816011480268012A09D1FD
:101B0000104B1A60016004F05FFD012211460E487F
:101B100000F0E0F9002000F07FF8012000F02AF842
:101B2000022000F027F8052000F024F80E2000F035
:101B300021F80F2000F01EF810BD0000100000205A
:101B40009C000020AC00002000400B4010B501F0CC
:101B50009DFC10BD10B501F099FC10BD10B501F051
:101B600095FC10BD012181400148416081607047B2
:101B7000404002400121814002488161BFF34F8F04
:101B8000704700004040024010B5084A53680124E5
:101B90008440234207D09268C240D007C00F8842D9
:101BA00001D0012010BD002010BD000040400240C7
:101BB0000179027AC90712071143C28800681143EC
:101BC000024A800080180160704700000040024017
:101BD0000122054B82401868012902D09043186009
:101BE00070471043FBE700004040024010B501235E
:101BF000084C8340012A02D02069984306E06069BE
:101C0000002905D01843606120691843206110BD88
:101C10009843F8E74040024005490128086903D08D
:101C200040004008086170470122D2071043F9E7DD
:101C30004040024070B500240125ED0322460123F7
:101C40002946104601F030F8072003216E100004E9
:101C5000890301232246FFF783FE4D4C0022022117
:101C6000204600F01DF9022101220846FFF78CFDF5
:101C700001220221204600F00BF902210120FFF78A
:101C80006DFD012211461046FFF7B0FF0120FFF75E
:101C9000C3FF032000F0DEFD00220421204600F0F7
:101CA000FFF8012204210220FFF76EFD012204212A
:101CB000204600F0EDF802210846FFF74FFD012213
:101CC00011460220FFF792FF0120FFF7A5FF032036
:101CD00000F0C0FD2F4C00222021204600F0E0F84B
:101CE000012220211046FFF74FFD0122202120462E
:101CF00000F0CEF801210520FFF730FD012211464A
:101D00000520FFF773FF0120FFF786FF032000F097
:101D1000A1FD214C00223146204600F0C1F80122ED
:101D200031460020FFF730FD01223146204600F009
:101D3000AFF800210E20FFF711FD012211460E2001
:101D4000FFF754FF0120FFF767FF032000F082FD3B
:101D500000222946204600F0A3F80122294600204F
:101D6000FFF712FD01222946204600F091F80021DC
:101D70000F20FFF7F3FC012211460F20FFF736FF7B
:101D80000120FFF749FF032000F064FD70BD000053
:101D900000400B4000200B4000000B4000B5044900
:101DA00008600820C8601420086100F029F800BD10
:101DB0000000084010B50A4B03218A00D418246A99
:101DC000E4438450491EF8D5196BC907C917491C4B
:101DD0000161196B8907C917491C416110BD0000D9
:101DE0000000084000B5054A106051600420D06032
:101DF0001420106100F004F800BD0000000008404D
:101E000010B5124910484A6902231A434A61142244
:101E10000A6104E00A691207920F032A01D0401EEA
:101E2000F8D28A698C699C438C61910301D50220A8
:101E300010BD910701D5012010BD002801D0002060
:101E400010BD032010BD0000FFFF0F000000084080
:101E5000002A026801D00A4300E08A43026070470A
:101E6000F0B5002425462346CE0706D05E0017466F
:101E7000B7403C430327B7403D4349085B1C102B48
:101E8000F2D34169A9434161416921434161F0BDF8
:101E9000002A426801D00A4300E08A43426070474A
:101EA000002A08D0012A09D082688A438260C26869
:101EB0008A43C260704782680A43F7E7C2680A43F0
:101EC000C26082688A4382607047C069084000D05F
:101ED00001207047002A01D041627047816270473B
:101EE000FEB5FF2101314B4801F01AF84A488168DC
:101EF000491C816049490978002906D04849097878
:101F00000B2902D1C168491CC160464909780029E2
:101F100003D045490A68521C0A603F4800274169BE
:101F2000491C416141490868401C0860FF2191310A
:101F300088423BD900242546264600943C48406B05
:101F400035490005000D8861FFF7CAFA0B21C94326
:101F5000FFF7AFFA3749FFF76FFA0190364800886C
:101F6000FFF7BEFA0199FFF7EFFA0BD26D1CEDB245
:101F70000098FFF7B5FA0199FFF705FAFFF7D0FAD5
:101F8000009001E0761CF6B2641CE4B20A2CD5D3B2
:101F90002A4C052D04D929460098FFF7E3F8208044
:101FA000082E01D932202080204807602448007A7A
:101FB000012803D118480169491C01611648214ACA
:101FC000416991420EDD476101780023491C01708F
:101FD000016A426A491C5A4142621B4A0162116805
:101FE000491C116001783B2903D907704178491CCD
:101FF000417041783B2903D947708178491C817031
:10200000124982688A4200DD8760C2688A4200DD28
:10201000C760FEBD00E0064010000020E90000207F
:10202000B50000201C010020100100201401002038
:102030000000014000404E45B8000020DC000020B8
:10204000AC0E0020E7030000A4000020005C260581
:102050000248C1690029FCD0704700001000002030
:1020600010B5134C1349206888420CDD12490978D9
:10207000002908D002210C2003F080F903F0EAFCCB
:102080000020206010BD0028FCD00C498842F9DAFD
:102090000B480C4A018912889142F3D90078002834
:1020A000F0D104210C2003F069F903F0D3FC10BD3A
:1020B0001C000020C0D40100E9000020B80B000083
:1020C000D4000020B8000020F8B53E48007802286F
:1020D00073D13D49002008703C493D4E08700120F5
:1020E000707003F0B7FC3B4800783B4D3B4F3C4CD5
:1020F000002815D13B480078012807D03A480178DC
:1021000000290BD00078022808D009E0A079012826
:10211000286801D0A06003E0786001E000F0E8F9F1
:102120002C480078012815D12E480078012807D0C6
:102130002D48017800290BD00078022808D009E04A
:10214000A0790128286801D0A06003E0786001E050
:1021500000F0CEF9A079012830D002F083FC642091
:10216000207100F021FD002004F008FB0121072070
:1021700003F05AF92179022003F056F9217903205E
:1021800003F052F90221072003F04EF92068A068FD
:10219000A268216815A001F0F3F90CCF1C491DA01D
:1021A00001F0EEF90120B0700649002008702449C2
:1021B000087030702349F0700860F8BD00F0CCF86A
:1021C000CDE70000B5000020E5000020E900002078
:1021D000D4000020CC0000201C00002004010020BE
:1021E000A00E0020B7000020B600002071696368CF
:1021F000656E67203D202564202C20726574757201
:102200006E2074696D65203D2025640D0A00000074
:102210009904000025643A4D55544520716963685E
:10222000656E67203D202564202C207265747572D0
:102230006E2074696D65203D2025640D0A00000044
:102240000E0100201800002010B5104C5520207001
:10225000AA2060700020A0700721E1702071082181
:1022600061716B21A1710221E171207204216172FF
:10227000A072E072207360730E21204602F02AFCE7
:10228000A0730F21204604F0E3F910BD450B002098
:10229000F8B5074608481C46007915460E466043C7
:1022A0006421FEF75FFF3860284660436421FEF733
:1022B00059FF3060F8BD0000A00E0020F8B51A48A4
:1022C000007801282FD119480125057003F0C2FBC1
:1022D00017480024C570174E4471307800280DD07F
:1022E0001548046044601548046084601448046024
:1022F000144804720121084603F020F8124F387880
:10230000002801D101F088FD3878012801D103F0BF
:1023100057FE0E4804600E48057003480B210170FB
:102320000C4835700470F8BDB5000020E5000020B1
:10233000D4000020E900002004010020A00E0020AD
:1023400020000020AC0E0020CC0000201C0000204B
:10235000B7000020E600002070B53724A4022168F1
:102360000F480160E169816061680171A168417194
:10237000E168817120690B49087061690A4801723E
:10238000A1690125AD020726017076032046FFF7FB
:1023900005FD6419B442F9DB01F0B0F870BD00002E
:1023A000A00E0020CC000020C0030020F8B52D486E
:1023B0000078032854D12C482C4E00782C4D2D4CFD
:1023C00000282AD0A17930460068012906D0206073
:1023D0002878FF27F537012803D00EE0264908604A
:1023E000F6E72A78254926A001F0CAF803F0ECFEAA
:1023F000384603F0B1FC01F00FFD287802280CD11B
:102400002A781E491EA0C91D01F0BAF803F0DCFEAF
:10241000384603F0A1FC03F0D3FD00203060687162
:102420001E48012505701E4E30781E4F002808D129
:1024300003F0C6FD226811491BA01A3101F0A0F873
:102440003D703078012808D101F0E6FC22680B4984
:102450001EA01F3101F094F83D7002480B2101705D
:10246000F8BD0000B5000020E90000201C0000209D
:10247000D4000020A00E0020040100202F04000042
:1024800025643A6D6175616C2072756E5F7374615D
:102490007465203D2025640D0A000000B70000206F
:1024A000CC0000200E01002025643A52657475723C
:1024B0006E4A6F75726E6579207374617274206FE5
:1024C00070656E3D2025640D0A00000025643A52B7
:1024D000657475726E4A6F75726E6579207374617A
:1024E000727420636C6F73653D2025640D0A0000D3
:1024F000F8B503F0AFFA294F3C78294E294A00235A
:1025000029492A48012C1BD13478002C07D18C7919
:10251000012C08D08C68056864198C6003603478DD
:10252000012C05D00CE05468056864195460F5E787
:102530008C79012C08D08C680568641B8C60036062
:102540003C78022C05D020E054680568641B546078
:10255000F5E73478002C07D18C79012C08D08C68F1
:102560000568641B8C6003603478012C05D00CE096
:1025700054680568641B5460F5E78C79012C07D01A
:102580008A68046812198A60036003203870F8BDF5
:102590005168046809195160F6E70000D400002072
:1025A000CC00002004010020A00E00201C00002010
:1025B00010B5144C55202070AA2060700020A07027
:1025C0000721E1702071102161716621A171E07114
:1025D00020720C206072FF20A072E0722073607382
:1025E000A073E07320746074A074E074207560754B
:1025F0001621204602F06EFAA0751721204604F03D
:1026000027F810BD450B002070B512480025016861
:10261000114CFA290FD96178082913D8056021785F
:102620000E4800290FD001221021FFF753FC25701E
:102630006078401C60706078082803D106480B3829
:102640000570657070BD00221021FFF743FC01206A
:102650002070EDE714000020EB00002000200B406C
:1026600010B5002210210548FFF734FC0449002072
:10267000086004490120887010BD000000200B4054
:1026800098000020E000002070B50D4E0D49308804
:10269000098800250C4C88420FD90120A0720BA09C
:1026A00000F06EFF0121084602F048FE00F0E4F958
:1026B00065723580FFF7D4FF70BDA57270BD000054
:1026C000DC000020B8000020E0000020657869747C
:1026D000210D0A0010220029016F01D0114300E0F2
:1026E0009143016770470000F8B53E4800780B2819
:1026F0005BD1FFF7B5FC3C4E30783C4F3C4C3D4D38
:10270000002811D1387800280ED1287803280BD161
:102710000120287038480278384939A000F030FF8D
:1027200003F04EFC002020603078022812D1387867
:1027300000280FD1287803280CD1022028702E48B9
:1027400002782E4934A00A3100F01AFF01F064FB30
:1027500000202060374928890988884205D83078C8
:10276000012822D1387800281FD133490020087071
:10277000042030706879314F314E002816D03878F7
:1027800001282BD003F020FD012068712D488368BB
:1027900002681A492C48393100F0F2FE17492B48DB
:1027A0003A313368726800F0EBFEF8BD0320287000
:1027B00003F050F923488179012905D0397801299E
:1027C000216809D00160DFE738780128206801D04E
:1027D0003060D9E77060D7E78160D5E7FFF788FE02
:1027E000D2E70000B5000020B6000020B7000020AE
:1027F0001C000020D4000020CC000020B503000005
:1028000025643A6F70656E206375727461696E201D
:1028100025640D0A2000000025643A636C6F73651F
:10282000206375727461696E203D202025640D0A55
:1028300000000000B8000020E90000200E01002088
:1028400004010020A00E00209C69000054690000D3
:1028500070470000C106C90E012088400149086088
:102860007047000000E100E0024A114001430248C5
:102870008160704780FFFF1F00ED00E0F8B516494A
:10288000164F08680026164CFA2810D9E069B8429D
:102890000DD80120A06125460B350E602878002850
:1028A00012D0012210210F48FFF714FB2E70E069AF
:1028B000B84208D3012210210A48FFF70BFB63201E
:1028C0006070A661E661F8BD002210210548FFF79F
:1028D00001FB01202870EAE71400002020BF02005D
:1028E000E000002000200B40F3B50125074600243E
:1028F00089B0A9032B462A462046FFF731F8042267
:1029000011460120FEF740FF1648694648820C82B6
:102910000C75280206948883134E04A9304600F0F3
:102920009BFB02206946087064207D21C01B490181
:1029300048436421FEF72CFC694648810620488004
:102940000D718D710D728C81304600F035FB0121C7
:102950003046FFF7BFFE30460A9900F0E6FA0BB0AA
:10296000F0BD00009F0F000000C00240F3B501223F
:1029700006460024520789B0D11301232046FEF7F2
:10298000EFFF0D2208210120FEF7FEFE17486946E1
:1029900048820C820C75FF2701370694144D8F83F3
:1029A00004A9284600F058FB3946284600F0B8FA3A
:1029B00069460C7064207D21801B490148436421D5
:1029C000FEF7E6FB69464881072048800120087130
:1029D0004C718C71CC710C724872284600F0ECFA84
:1029E00028460A9900F0A1FA0BB0F0BD9F0F000035
:1029F00000400740054801214160090342688A43BD
:102A0000FCD101680029FCD17047000000A10640FC
:102A100070B5164D296B4906CA0F296B4026314304
:102A2000296313494B68DB0BDB0706D14C68802315
:102A30009C434C604C681C434C604B680824A34387
:102A40004B60002A02D1296BB143296309490B6904
:102A5000042213430B61002804D030BF086990435F
:102A6000086170BD40BF20BF20BFF7E7008008406D
:102A700000A1064000ED00E0F8B5344C607A002873
:102A800062D0002003F07AFE314DA879314F012841
:102A900010D1207921462431012802D0022802D009
:102AA00008E0096800E04968386864225043FEF78E
:102AB00059FBE070A87900280ED12079012802D0B6
:102AC000022802D008E0296800E0A968386864227A
:102AD0005043FEF747FBE0701F48002606723E6039
:102AE000417A0A2904D12979E2788918E17046727D
:102AF000417A012904D12979E278891AE170467274
:102B0000A07A002808D0E0785A2802D96420E07022
:102B100002E00A2800D2E6700120A071E2782A7152
:102B200029790EA000F02CFDE178022002F07CFC57
:102B3000E178032002F078FC02F08CFF00F034F81A
:102B40001648067016480670F8BD0000E000002028
:102B5000A00E002020000020AC0E00200D0A2073E3
:102B6000746F70207661726961626C652E676C6F3C
:102B700062616C5F70657263656E74203D202564D0
:102B8000202C20767369676E53746F705065726382
:102B9000656E74203D202564200D0A00D8000020B9
:102BA000D70000207047000070B53724A4022168C8
:102BB00010480160A1684171E168817121690E4A84
:102BC000117062690D490A72A2690A70E169816037
:102BD000216A0B480160616A0125AD020726760370
:102BE00041602046FFF7DAF86419B442F9D300F0E7
:102BF00085FC70BDA00E0020CC000020C00300208A
:102C00000401002010B50C4C21696269914211D079
:102C100060690A49884207D16069002182B2084888
:102C200003F04FF90020606105486169405C61690B
:102C3000491C616110BD0000E00000200702000097
:102C40001C0F002070B50A4C0546206909498842CE
:102C500007D12069002182B2074803F032F9002031
:102C600020610548216945542069401C206170BDE0
:102C7000E0000020070200001C0F0020074A5368F4
:102C80009168994208D00648814201D30548906076
:102C900091680878491C9160704700007800002016
:102CA0003707002030050020F0B5084F7C68BD686C
:102CB000FE6884438D439643002B02D004430D43AA
:102CC00016437C60BD60FE60F0BD000000810840DE
:102CD00003498A6802239A43400002438A6070478E
:102CE00000A0064005490028886802D00122104350
:102CF00001E04008400088607047000000A00640E6
:102D0000014800687047000000A006400148C06804
:102D1000C0B2704700A0064010B5FFF7F7FF80076C
:102D200002D502490220087010BD0000B00000204A
:102D3000044A0029116901D0014300E08143116177
:102D40007047000000A00640084A082300280849F0
:102D5000906805D0184390608868C006FCD570471D
:102D6000984390608868C006FCD4704700A0064075
:102D70000080084003498A6820239A4340010243A7
:102D80008A60704700A00640014948607047000013
:102D900000A00640034A91680F231B029943014398
:102DA0009160704700A00640044A0029116901D0D3
:102DB000014300E0814311617047000000A006401C
:102DC00070470000042204490428086902D0904397
:102DD000086170471043FBE700E000E00749002866
:102DE00006D00128086906D04008400008617047F5
:102DF00000208861704701221043F7E700E000E0FF
:102E0000044902220028086901D0104300E09043E1
:102E10000861704700E000E0014948617047000028
:102E200000E000E010B503F0B7FB10BDF0B5374986
:102E30001020C860364E012030603649086B4025AE
:102E4000284308633448002344158268272AFCD1AC
:102E500000E0446042689205FBD500E043604268B0
:102E60009205FBD43360486A032292029043486281
:102E700048680122D202104348608868C008C00731
:102E8000FBD04868C008C000C01C4860486B4007C1
:102E9000400F0328FAD1214A1068C008C000401C26
:102EA00010600B624868A04348600868961530437C
:102EB0000860486817153843486088688008C0076C
:102EC000FBD0086BA84308630868B043086005207E
:102ED000C005886148682043486088684008C0078A
:102EE000FBD01068C008C000801C10600B624868EE
:102EF000C008C000401C4860486B4007400F0128D4
:102F0000FAD11168102001431160F0BD0081084022
:102F1000008308400080084000A1064000020840ED
:102F2000C943C167BFF34F8F70470029016902D0C1
:102F30000122114301E04908490001617047000086
:102F40000022134B10B51146984201D1821519E0A9
:102F5000104B984201D1012214E00F4B984202D14C
:102F6000012212070EE00D4B984202D101225207B6
:102F700008E00B4B984201D1820403E0094B9842D0
:102F800000D1C20401230846FFF78EFE10BD0000E9
:102F900000E0064000C002400040034000400740FF
:102FA0000050034000500740002A426F01D00A43FE
:102FB00000E08A4342677047F0B50C78A20012180F
:102FC000154613469035A032AE4694466206214D12
:102FD0004033120EA84201D1032400E001249440A2
:102FE0001C4E056DE44325400565456D2540B04206
:102FF0008E7902D1CF797F003E4396402E434665BD
:10300000144FB84208D1C66E4D7A26400C7A6D0036
:103010002C4394403443C4661C68FF250835AC43F8
:103020001C601C684D882C431C604C8973461C60D6
:103030008C8963461C60B84206D10B7949794900F6
:103040000B439340016D02E0036D097991400B43FE
:103050000365F0BD00C0024010B502464B888032C7
:1030600093600B885360036803242404A343036024
:10307000036801242406A343036003688C68234388
:103080000360044B984201D10B79D3608989816731
:1030900010BD000000C0024070B504210D231B03C9
:1030A00018680B4C82B20948FF2A028001D3002025
:1030B0000AE00020074D04E0CE1836682E54401C6C
:1030C000091D9042F8D30120E07170BD6600002018
:1030D000E0000020CC03002030B50F4C0021254635
:1030E000224620354032030000F05AFA080507094D
:1030F0000B0D0F111306217130BD217430BD2177E6
:1031000030BD297230BD297530BD117030BD1173CD
:1031100030BD117630BD0000CC030020F8B5734CF3
:10312000734D2078012802D0022806D0CAE0286812
:10313000FFF72AFE00202070C4E00024FFF7E0FD26
:10314000064601206A4A810055581368AB4202D1F5
:103150008B185B685350401C3828F3D36549486886
:10316000B0421BD1624A00201060634C4860217855
:1031700062A000F005FA6848017964290BD0007953
:10318000002808D02078012803D0002003F090F810
:1031900055E06420FAE702F061FF50E0002C4ED1C8
:1031A00000255E48405D01281ED05149002008607E
:1031B0005B48A9004058B04223D12846FFF78CFF56
:1031C000584901200870584858490288662002F082
:1031D00009F95148017964290FD0007900280CD0F1
:1031E0002846FEF7D1FB27E0414800210160504806
:1031F00031183F488030C167DAE7284600F08EFB7F
:103200001AE028461C2148434A4900244718A000D8
:103210003858B0420DD140480179642906D0007970
:10322000002803D02846FEF7AFFB02E0284600F056
:1032300075FB641C072CEAD36D1C082DB1D32C4CF4
:103240006068002804D0002100203F22571A10E0B7
:103250000020C043FFF798FD24490020087031E0AA
:1032600085002E19625973689A4201D963517260C0
:10327000401C8742F4D8491C4029E5D300202E4D3C
:1032800001468200A258002A02D08B00EA50491C55
:10329000401C4028F5D3FF2101311548FEF751F8B5
:1032A000002081006A58401C62503828F9D3E02180
:1032B0002148FEF746F821A0216800F061F90B488B
:1032C00001210170254C206801280ED1FFF718FD5F
:1032D0002060206822490968401A2060214801685E
:1032E00022688918016001F025FCF8BDB0000020BB
:1032F000C00C0020C00300206400002020636F7514
:103300006E74646F776E207461736B207374617276
:1033100074203D25640A0000A00E00206E000020ED
:10332000A00C0020E700002066000020CC03002055
:10333000803A0900C00B0020C00D00204952515FA7
:103340006576656E7420302074696D696E675F62A2
:1033500075666665723A2564210A0000AC0000209B
:10336000A8000020A400002010B5064C2021204613
:1033700000F03CF8002803D02068C0B203F080F9C8
:1033800010BD000000100040704710B520214C0611
:10339000204600F02BF8002807D02068C0B2FFF7C5
:1033A00051FC2021204600F001F810BD02690A40BE
:1033B000026170470021012310B59B070A4698421D
:1033C00000D18115074B984201D103151943064BD3
:1033D000984201D1C014014301231046FFF764FC59
:1033E00010BD0000001000400010044000690840BB
:1033F00000D001207047000070B504460D46C88813
:103400008988626808432989134B1A40114308438D
:1034100069890843606001208007844206D1182032
:10342000FEF784FA2968FDF79DFE60620B4884422E
:1034300006D11C20FEF77AFA2968FDF793FE606238
:103440000748844206D11E20FEF770FA2968FDF76E
:1034500089FE606270BD0000FCE0FFFF00100040CC
:1034600000100440002AC26801D00A4300E08A43E9
:10347000C26070470160704710238B404168002A8A
:1034800001D0194300E099434160704770B50021B5
:103490000120FEF779FB0124174D002803D00120FD
:1034A000FEF760FB2C6000210220FEF76DFB002878
:1034B00003D00220FEF756FB6C6000210520FEF7CA
:1034C00063FB002803D00520FEF74CFBAC60002115
:1034D0000E20FEF759FB002803D00E20FEF742FB1A
:1034E000EC6000210F20FEF74FFB002803D00F20D7
:1034F000FEF738FB2C6170BDAC0B002070B51B4C87
:10350000216837208002FEF76DFC21791848FEF70C
:1035100069FC61791648001DFEF764FCA179144826
:103520000830FEF75FFC1348017811480C30FEF7B5
:1035300059FC114D0E48297A1030FEF753FC0C4807
:1035400029781430FEF74EFCA16809481830FEF7C0
:1035500049FC0A4C064821681C30FEF743FC04482D
:1035600061682030FEF73EFC70BD0000A00E002018
:1035700004DC0000CC000020C00300200401002077
:103580000FB410B503A9044B044A029800F024F8C4
:1035900010BC08BC04B01847414A00003C000020A1
:1035A00030B47446641E2578641CAB4200D21D46BC
:1035B000635D5B00E31830BC184702E008C8121FC7
:1035C00008C1002AFAD170477047002001E001C10C
:1035D000121F002AFBD17047FFB58FB00F4604467B
:1035E000002606E025280AD0129A11999047641CFB
:1035F000761C20780028F5D1304613B0F0BD0025A8
:103600000121A14A009500E00543641C2378084687
:10361000203B98401042F7D120782E2815D1042065
:1036200005436078641C2A280AD101CF641C0090ED
:103630000BE000990A22514330394018641C009075
:103640002078014630390929F3D920786C280ED02A
:1036500004DC4C2813D06A2812D104E074280ED060
:103660007A280DD10BE001204005054307E0012138
:10367000090562780D43824201D16D18641C641CF7
:103680002078864669284AD008DC0028B4D058281B
:103690006DD0632810D0642808D140E070286BD02A
:1036A000732812D0752860D0782860D0129A70469E
:1036B00011999047761CE5E0387869460872002039
:1036C000487202A80190012003E0386801900020B0
:1036D000C0433F1D69070CD5002500E06D1C009913
:1036E0008D420FDA8542F9DB0199495D0029F5D158
:1036F00008E0002500E06D1C8542FCDB0199495D76
:103700000029F8D1761907E0019801990078491C41
:103710000191129A119990476D1EF5D2B2E00A20DC
:10372000029000216802400F039102280CD001CFC3
:10373000C117844600290DDA62460846524200212C
:10374000814194462D2008E0FF1DFF08FF0003CFB4
:103750008446EFE7280504D52B206A461074012023
:103760003CE0E8073AD02020F7E70A2000E01020EC
:1037700000210391029007E0102002900021042014
:1037800005430820039100906802400F022810D0E2
:1037900001CF0021844600200D9028071FD57046D8
:1037A00070280CD0029A1020039B42401A430CD080
:1037B00015E0FF1DFF08FF0003CF8446EBE7402024
:1037C0006A46107401200D900CE06046084306D054
:1037D00030206A4610747046507402200D90704676
:1037E000582804D029A001900DA80E900DE02CA01F
:1037F000F9E76046039B029AFDF7B0FE019B844601
:103800009B5C0E9A521E0E92137060460843F0D1D4
:103810000E9805A9081A20300190680701D5009874
:1038200001E0012000900199884203DD01460198E2
:10383000081A00E000200025009006E004A8129A73
:10384000405D119990476D1C761C0D988542F5DB03
:1038500004E0129A302011999047761C0099481E76
:1038600000900029F5DC08E00E980E990078491CBC
:103870000E91129A11999047761C0199481E019059
:103880000029F1DC641CB4E6092801003031323330
:10389000343536373839616263646566000000008C
:1038A0003031323334353637383941424344454676
:1038B0000000000010B5184C2046FDF70FFF022253
:1038C00010210020FDF760FF022220210020FDF7DB
:1038D0005BFF0222012311462046FDF720FF002254
:1038E00006212046FDF70DFF012207212046FDF7A6
:1038F00008FF01212046FDF71FFF01221146204647
:10390000FDF7F6FE01212046FDF7DFFE01212046EE
:10391000FDF719FF10BD000000000140F8B50C21B3
:1039200048431C497D274418A0781B4D1B4EFF00BF
:10393000012805D12879002809D0002002F0B8FC20
:10394000A078002817D1287964280ED010E0002232
:1039500010213046FEF7BEFA384602F0FDF901228A
:1039600010213046FEF7B6FAEAE7E078642803D083
:10397000E07802F09DFCF8BD002210213046FEF7F1
:10398000A9FA384602F0E8F9012210213046FEF784
:10399000A1FAF8BD60030020A00E002000200B401B
:1039A0007047000070B51E4C206801280BD11DA087
:1039B000FFF7E6FD002002F0BFFEFEF7F9FDFEF77F
:1039C00043FC00202060234C6179652001F092FCCB
:1039D000A179692001F08EFC1F4D6C20297A01F03D
:1039E00089FC29786A2001F085FC1C4800780028B1
:1039F00007D12179022001F017FD2179032001F080
:103A000013FD17480078002805D01648164902888B
:103A1000662001F0E7FC0121084601F08FFC70BD33
:103A2000180100202D2D2D2D2D2D2D2D2D2D2D2D41
:103A30002D2D2D2D2D2D2D2D2D2D2D2D2D2D2D2DB6
:103A40002D2D2D2D2D2D2D2D2D2D2D2D7979647391
:103A50000D0A0000A00E0020C0030020E900002095
:103A6000E700002066000020CC03002070B537245A
:103A7000A40221681048016061680171E1688171E8
:103A800021690E4A117062690D490A72A2690A70B1
:103A9000E1698160216A0B480160616A0125AD021C
:103AA0000726760341602046FEF778F96419B44290
:103AB000F9D3FFF723FD70BDA00E0020CC0000203D
:103AC000C00300200401002070B501201349400408
:103AD0000860134C7D21C9002068FDF743FB114DA0
:103AE00001462846FDF7BFFE00212846FDF7BDFE32
:103AF00001212846FDF7A4FE01212846FDF797FE87
:103B00002168094C2046FDF7AEFE00212046FDF756
:103B1000ACFE01212046FDF79DFE70BD00E100E0F6
:103B200038000020006007400070074007273F036F
:103B30000125AD020F263C4636032046FEF72EF93E
:103B40006419B442F9D3094909A0FFF719FD0D49D9
:103B50000020087001213846FEF744F9BFF34F8F6B
:103B60000A490948C860BFF34F8FFEE745060000C9
:103B700025643A666163746F72207265626F6F7458
:103B80000D0A0000E70000200400FA0500ED00E047
:103B900010B50949074808600849086009490848FC
:103BA0000860094908600949FF20087001F016FE05
:103BB00010BD0000300500207C00002080000020A7
:103BC0001C0F002084000020880000207A000020C4
:103BD000012210B59207002804D089B21046FFF7E1
:103BE00049FC10BD0021F9E710B500200322064969
:103BF00002F0D4FA0322044902F0D0FA0146E92087
:103C000000F070F810BD0000ED00002010B5FEF7C8
:103C1000F9FF01F08BFA002830D01A481A4C81784D
:103C20000B00FFF7BDFC06210F040715192102F058
:103C300073FA19E0C078002804D0012805D002F0FA
:103C4000BFF911E001F006FF0EE000F0E5F80BE02F
:103C50000E48006BA07007E0C1780D4800290ED017
:103C600000221021FEF736F9FF220132002105481B
:103C700002F027F9002060816070208110BD0122D0
:103C8000EFE70000450A002040000020000001404E
:103C900000200B4070B5114CFF25A0890835A842C3
:103CA0001BD200F03BFF002817D0FEF7E7FF01F022
:103CB00093FA002811D0002000F01CF920460322BE
:103CC00000210E3002F0FDF82A460021044802F0DF
:103CD000F8F80020E0802070A08070BD4000002037
:103CE0003707002070B5114D55222A70AA226A703C
:103CF0000022AA70E870080A28716971C91D8CB287
:103D0000601E81B2284600F0F3FE29192039C877D9
:103D1000002C09D003E0287802F0D4FC6D1C20466A
:103D2000641EA4B20028F6D170BD00003E08002039
:103D300001780A02417811430A028178C078114360
:103D400009020843704710B5FEF7B8FAFEF72EFBDC
:103D5000FEF7CAFCFEF7B8F910BD000010B5084820
:103D6000006B0005000DFDF7B0FB0B21C943FDF70B
:103D7000A0FB0449FDF760FBFDF7B9FB10BD000097
:103D8000000001400000A54370B51A48006B000513
:103D9000000DFDF79AFB0B21C943FDF78AFB16497D
:103DA000FDF74AFBFDF7A3FB144D044628680021EC
:103DB000A0421DD16868401C6860022815DB69605C
:103DC0007B2C02DB002002F095FC20466F380C288B
:103DD00002D2012002F08EFC6E2C06DA022002F0E4
:103DE00089FC04210C2001F0C9FA00202C6070BD70
:103DF0006960FAE7000001400000A5439000002040
:103E000010B50F20C52100040902024A0123FDF765
:103E1000A7FD10BD5100030110B523490020086023
:103E200022490120087001F015FE7D24E40020469F
:103E3000401E0028FCDC012001F0F2FD641E002C75
:103E4000FCDC01213220FEF74FFD01213220FEF77C
:103E50008DFD142001F080FF01214620FEF744FD76
:103E600001211E20FEF782FD142001F075FF0121C3
:103E70005A20FEF739FD01210A20FEF777FD1420B4
:103E800001F06AFF0A480068012180B2FEF72CFDAC
:103E900001210020FEF76AFD142001F05DFF0549B5
:103EA0000220087010BD000014010020E90000206D
:103EB000A00000200D010020F0B50026F643002AE6
:103EC00004D01268D2430024094F0DE03246FAE7CD
:103ED000035D5A4008235508D20700D032463A40C5
:103EE0006A405B1EF7D1641C8C42F1D3D043F0BD15
:103EF0002083B8EDF1B58AB0A3490A9A6E468C18B2
:103F0000A249E7782EC92EC60020A14D0646A12F52
:103F100078D00DDC01209F4A3B00FFF741FB0F2DBD
:103F2000313437752F772FB92F2F2F2F2FBC2F001C
:103F3000EB2F68D014DCE12F70D0E82F6FD0EA2F80
:103F40001CD107252D030126B6022846FDF726FFC2
:103F5000A81985B20D2000038542F6D3EA2106E0B8
:103F6000EC2F78D0ED2F77D0EE2F07D1EE21012066
:103F70008007FFF77FFAE2E000F040FF0BB0F0BDF2
:103F800002F0A8F8FAE700F0C3FDF7E7A179824F45
:103F900014469170012912D000290ED03970297071
:103FA000FFF700FDFFF7F0FE00210C2001F0E6F91D
:103FB00000210320FFF796FEE0E72E7008E028704E
:103FC000012210217548FDF785FFA078002816D141
:103FD0003878022813D1714C002210212046FDF7B9
:103FE00079FFFF20F53001F0B7FE012210212046B5
:103FF000FDF770FF7D20000101F0AEFE2E7001F094
:10400000F7FBD5E784E0A1E05070B7E7207961794C
:104010000002081880B20026079035E053E06BE0FC
:104020000A98A519811958480818017A407A090296
:1040300040180890AF790497E8790690287A697A51
:104040000002081880B2AD1D059000F05FFD01462A
:104050000020534A07E085E086E04300D35CBB4282
:1040600003D0401CC0B28842F7D34000801841788A
:104070000698814204D1291D059A049800F0AAFBF4
:1040800008983018001D86B207988642C8D375E795
:10409000FFF786FC72E720460D30042241A101F0B3
:1040A000DFFE002804D000210846FFF791FD65E7F8
:1040B000E07E0A223038217F5043303808184042D1
:1040C00041B20120F1E7A07900289ED1E0790128D2
:1040D0009BD1214608310D22684601F0D2FE684688
:1040E00001F07EFE7D22D2000023FDF765F82F4906
:1040F00008602F48067041E703222E4902F04EF86F
:10410000C0B203222B4902F049F8C1B2E82051E7BE
:10411000FFF70CFD214C002210212046FDF7DAFEAE
:10412000FF20F53001F018FE012210212046FDF796
:10413000D1FE7D20000101F00FFE2E701EE72079D8
:1041400061790002081882B2A11D18E01A48EB211B
:10415000066001208007FFF78DF92A210A4802F046
:1041600097FBECE7EC2102E720796179000208185F
:1041700085B2E91D044802F08BFBA11D2A46384692
:1041800001F086FBFAE6000037070020F86800001F
:10419000E1000020780000200C01002000200B40EE
:1041A000D06800007472756500000000A400002053
:1041B0001D010020ED0000201800002004494B22C2
:1041C00012011046401EFDD1491EFAD17047000071
:1041D0007427000010B50C4C55202070AA20607088
:1041E0000020A0700921E170207160710621204635
:1041F00000F070FCA0710721204602F029FA072187
:10420000204602F045FB10BD450B002010B5164CB2
:104210000078A071A27915491548012A14D06422AA
:104220000A60FF214B31018001F0ACFD2068401C89
:1042300002D0022002F080FAA179692001F05AF838
:10424000012800D0002010BD50220A60B421018056
:1042500001F098FD07480068401CEDD1064907A011
:10426000FFF78EF90020E5E7A00E0020A000002057
:10427000B800002004010020A302000025643A4D8C
:10428000757465206D6F6465210D0A00F3B50546F0
:10429000042683B0B1018448FDF753F8E021834838
:1042A000FDF74FF820218248FDF74BF8082181489F
:1042B000FDF747F8602229467F48FDF729F87D4F32
:1042C00004980A3F0D24788024032046FDF766FDFC
:1042D00079882046FDF786FD002408E07648015DD8
:1042E0000D2000033018FDF77DFD641C361D788815
:1042F0008442F3DBFEF704FD70490860096870A092
:10430000FFF73EF900240C2127464F436A492878DD
:104310006C39C85568787E187070A878B070E878E5
:10432000F07028793071012855D10020411DC9B2A3
:10433000614B695C32186C3B517101291CD15D4A9B
:104340001155D95DE1221201514372783C235A4341
:104350008918604A424351185F4A1268914201D855
:104360005E4BC918891A554A1268504B8A181C218D
:104370006143C9188300CA50401CC0B20728D5D376
:104380004C48005D002826D14B48E1216C38C05DC7
:104390000901484371783C22514343185048514920
:1043A0000268981A019000904FA0FFF7E9F8019871
:1043B000002807DA3E490020A20088503E497918BB
:1043C000087108E03D490968A20041183848815049
:1043D00052A0FFF7D5F8307900280ED1334A214694
:1043E0001C2359438A1801468300401CC0B2D15097
:1043F0000728F9D32E48A2008150641CE4B20C3582
:10440000082C80D32C496620049A00F0EBFF012889
:1044100002D0002005B0F0BD2748E0220C384168EA
:10442000FF306D300160FF3820490138FCF770FF24
:1044300020221F493F48FCF76BFF1F4C00216034CE
:1044400000204022571A08E085002E19625973682F
:104450009A4201D963517260401C8742F4DC491CC6
:10446000C9B24129ECD334A0FFF78AF800200E4DE1
:1044700001468200A258002A03D08B00491CEA5052
:10448000C9B2401CC0B24128F3D30024A00029586F
:1044900033A0FFF775F8641CE4B2412CF6D333491E
:1044A00001200870B6E70000C00C0020C00B0020FF
:1044B000A00C00206E000020CC030020A8000020EB
:1044C00063757272656E742052544374696D653AF7
:1044D00025640A0080510100C4000020803A0900D0
:1044E000C80000200603000025642073696E676C15
:1044F000655F74696D696E673A25642074696D65DE
:104500007276616C7565203A2025642074696D654A
:104510005F6368613A25640A00000000363936EFAF
:10452000BC9A54696D696E672074696D653A25643B
:104530000A0000000C0500202D2D2D2D2D2D2D2DD8
:104540002D2D2D2D2D2D2D2D2D2D2D2D2D2D2D2D9B
:104550002D2D2D2D2D2D2D2D2D2D2D0A0000000062
:1045600074696D65723A256409000000B00000208E
:10457000F8B501787D240123214E224A224F234D94
:10458000E400002907D0012919D002290ED1317881
:1045900001292AD002E03178012908D00022102117
:1045A0002846FDF797FC204601F0D6FBF8BD1370B6
:1045B0007B720178012000F0C1FE64201DE0002420
:1045C00014700178012000F0B9FEFEF755FA10488A
:1045D000047010480470104C2179022000F024FF70
:1045E0002179032000F020FFF8BD13700A217972B1
:1045F0000178012000F0A2FE002001F059FEF8BD74
:10460000D5000020D7000020AC0E002000200B4079
:10461000D8000020E9000020A00E0020F0B50C46D4
:10462000C1B00746FF2101316846FCF78AFE5148B8
:104630000026848022463946801DFCF769FE3846F4
:10464000FCF797FE00BA040AF878240204433520E8
:104650008002FDF7A3FB002509E04648801D415D6F
:10466000352080023018FDF7BDFB6D1C361D41481A
:1046700080888542F1D3FA78B97823463EA0FEF7C8
:104680007FFF21466B2000F0CFFE012802D00020E2
:1046900041B0F0BD3E4D3FA0297AFEF771FF287A68
:1046A000012844D1002C63D02E460020404D77686D
:1046B000024681006B58BB4200D16A50401C38282A
:1046C000F7D3FEF71DFB3C214C43221800206C461B
:1046D00072608100364B401C5B5863504028F8D311
:1046E00000213C9200203F22571A08E085002E1935
:1046F000625973689A4201D963517260401C8742C3
:10470000F4D8491C4029EDD30025294F2E46A80096
:104710002158002905D0B000395026A0FEF730FFFF
:10472000761C6D1C402DF2D32749012008701848D3
:10473000017A00291CD11E4D446888002858A042E7
:1047400008D1084604E0820053195B68AB50401C56
:104750003828F8D3491C3829EFD30024A000295861
:104760001AA0FEF70DFF641C382CF7D3FDF74AF9A9
:1047700001208DE76400002074696D657220746902
:104780006D65203D20257820257820256C640A0061
:10479000C003002074696D65722073657474696E5E
:1047A0006720737769746368203D2025640A0000E0
:1047B000C00C0020636F756E74646F776E2074692F
:1047C0006D653A25640A0000B0000020656E643A09
:1047D00025640900F8B506466C48002517460C46C6
:1047E0000560FDF73DFFFFF7CFFA30460126672849
:1047F00054D012DC102841D008DC012817D0022840
:104800001AD0042828D0052820D12CE013283CD029
:1048100065286FD06628F7D180E068380300FEF77E
:10482000BFFE09497782A1905CB3B3A6B3003946B5
:104830002046FFF79DFE6FE03946204600F06AFEF5
:104840005349E0780A78002A01D00D709CE0514964
:104850000E7001F02DFD97E02046394600F058FE1D
:104860000146042005E02046394600F051FE01468D
:10487000052000F063FD012870D069E0204639462C
:1048800000F046FE01461020F3E72046394600F0CE
:1048900041FE0146132000F0C7FDECE724786720B5
:1048A000214600F04BFD012852D13B480470FDF732
:1048B000F3F853E027786820394600F03FFD0128DF
:1048C00046D1364C27702078002847D101F0C2F835
:1048D000334805702570334809E024786D2021465F
:1048E00000F02CFD012833D12F4804702F480570AB
:1048F00034E0FFE724782E48012C07D04571FFF7FC
:10490000B5F82146652000F0F5FCB4E74671F6E7FE
:1049100039462046FFF77AFC044635E03946204602
:10492000FFF7B4FCF8E72178224C6A20217000F0F0
:10493000E1FC01280CD1204821780170FDF734F802
:104940000CE024786C20214600F0D4FC012801D032
:104950002C4619E01848012C02D00572344613E0A9
:104960000672FBE739462046FFF758FED4E70021E0
:104970000C2000F003FD002001F0DEFE074805706A
:104980000E490FA0FEF7FCFD2046F8BD18000020E0
:10499000D6000020D7000020CC000020B500002069
:1049A000D4000020E5000020B6000020B700002061
:1049B000A00E002064000020C0030020A10400001D
:1049C00025643A4661756C742072656D6F76616C12
:1049D000210D0A00F3B581B000280AD00021072577
:1049E00000912D03C821FCF7BDFB06460F460024AD
:1049F0000EE00120FEBDC8221049284600F04BFD04
:104A00006A46C8210D48FFF757FA641CC835009064
:104A1000B442F0D3781EC7280AD23A46074928463E
:104A200000F039FD6A4639460448FFF745FA009020
:104A30000298009901600020FEBD000020010020C6
:104A400070B50125044681B2AD072846FEF712FD78
:104A5000AE1531462846FEF7C9FC0028F9D020469D
:104A600070BD000070B53724A40261680F48017161
:104A7000A1684171E168817120690D49087061691F
:104A80000C480172A1690170216A0B480160616ADA
:104A90000125AD020726760341602046FDF77EF929
:104AA0006419B442F9DBFEF729FD70BDA00E0020A9
:104AB000CC000020C00300200401002010B500F04D
:104AC00039F8FEF7E9FAFCF7CBFFFDF7C9FDFEF771
:104AD00069FF10BD034610B50020024605E01C78B2
:104AE000521C2018C0B292B25B1C8A42F7D310BD90
:104AF000034610B50020024605E01C78521C201821
:104B0000C0B292B25B1C8A42F7D310BD132070472B
:104B100010B500210220FFF7E5F810BD04484168F8
:104B20008068814201D0012070470020704700005A
:104B30007800002070B5104C55202070AA206070BD
:104B40000025A570E120E070257101206071A07141
:104B500007212046FFF7BEFFE0710821204601F043
:104B600077FD06484178491C41700548642105706D
:104B70000448FCF7E6FB70BD450B00208D000020CB
:104B8000DE000020B80E0020F8B53724A40220680B
:104B9000224D286060682871A0686871E068A8717B
:104BA00020691F49087060691E4E3072A06930701C
:104BB000E069A860216A1C480160616A4160286858
:104BC0000127401C0FD02868002801D017484770E3
:104BD0000221682000F0B2FBA979154801291BD0F9
:104BE00064210160F8BD2046FDF7D8F8012080025D
:104BF0002418072040038442F5D30C490020487054
:104C00006421297128606F71A87105490870377295
:104C10003770FEF773FCDFE75021E2E7A00E0020BB
:104C2000CC000020C003002004010020D40000209C
:104C3000A000002070B5012210211046FCF7A4FD51
:104C4000514C1020A062014602222046FDF728F9AF
:104C5000032210212046FDF703F9012210212046EE
:104C6000FDF7F6F80122950329460020FCF78CFD9C
:104C7000A562464E022229463046FDF711F903226D
:104C800029463046FDF7ECF8012229463046FDF76B
:104C9000DFF8002229463046FDF71CF90122D50332
:104CA00029460020FCF770FD002229463046FDF71A
:104CB000CFF8002229463046FDF7F2F801222946B6
:104CC0003046FDF7E5F80122950229460020FCF761
:104CD0005BFD002229463046FDF7BAF8022229463C
:104CE0003046FDF7DDF8012229463046FDF7D0F8C1
:104CF000012211461046FCF747FD0125A56202225C
:104D000029462046FDF7CCF8012211462046FDF742
:104D1000A7F8012211462046FDF79AF80122022148
:104D20001046FCF731FD0220A062024601462046F3
:104D3000FDF7B6F8012202212046FDF791F8012285
:104D400002212046FDF784F8012211460220FCF7DB
:104D50001BFD0F4CA562022201212046FDF7A0F8A1
:104D6000012211462046FDF77BF80122114620461C
:104D7000FDF76EF8012211462046FDF7ABF8002042
:104D800000F04EFE70BD000000200B4000000B4004
:104D900000400B407FB50024FF250135214601234B
:104DA0002A460846FCF7DCFD69460C8010487D2148
:104DB000C9000068FCF7D6F96946401E48800C71AE
:104DC00002940C4C8D812046FEF746F92946204678
:104DD000FEF7A6F8084A290111600122294620465B
:104DE000FEF7E2F801212046FEF79FF87FBD0000A4
:104DF0003800002000E0064000E100E010B50A4B5A
:104E000000201978002907D0012101F0D5F9C1B29D
:104E10000020FEF767FF10BD002101F0CDF9C1B2FF
:104E200001201870F4E7000078000020FEB500248F
:104E3000022100940194224608460294FCF7A4FC47
:104E4000384F002202213846FDF702F800220221E5
:104E50003846FDF725F8012202213846FDF718F8FB
:104E600002210120FCF77AFC0120009068460471C1
:104E7000C48003250572FCF79BFE01210846FCF760
:104E8000A7FE294E10203060002204210220FCF7EA
:104E90007BFC002204213846FCF7DAFF00220421C3
:104EA0003846FCF7FDFF012204213846FCF7F0FFED
:104EB00002210846FCF752FC02200090684604716B
:104EC000C4800572FCF774FE01210220FCF780FE0D
:104ED000052720203060014600220120FCF754FC09
:104EE000002220211148FCF7B3FF002220210F48A7
:104EF000FCF7D6FF012220210C48FCF7C9FF012155
:104F00000520FCF72BFC684600970471C4800572ED
:104F1000FCF74EFE01210520FCF75AFE40203060D0
:104F2000FEBD000000400B4000E100E000200B400F
:104F300010B52F492F4A0868904258DD2E4C206842
:104F4000002854D12D488269002A50D1427A002A83
:104F50004DD1407900284AD1086000F07BFD012046
:104F6000206001F023FB002201212548FCF7B2FF5D
:104F7000012210212348FCF7ADFF0120FCF7FAFDC8
:104F80000220FCF7F7FD0520FCF7F4FD0E20FCF7EE
:104F9000F1FD0F20FCF7EEFD0120FCF73DFE0021A6
:104FA0001948FCF792FBFDF7ABFE18490860096849
:104FB00017A0FEF7E5FA1DA0FEF7E2FA0120800730
:104FC000FEF7F8F91D48FEF7F5F91D48FDF7B8FFA3
:104FD0001C48FDF7B5FF0120FDF71AFDFEF76AFC3E
:104FE00001F0FCFA01F01CFC17A0FEF7C9FA10BD95
:104FF00018000020307500009C000020E000002018
:1050000000400B4000200B4000000140A8000020A1
:1050100043757272656E742052544320636F756ECF
:10502000742074696D652125640D0A00656E7465D0
:105030007220736C657070210D0A00000010004032
:1050400000C00240004007405245424F4F54207379
:105050006C657070210A000010B5FCF7EBFD10BD07
:10506000012109030020FDF7FFFB25A0FEF788FAC8
:1050700001F024FCFEF78CFDFEF7C2FE01F0AEFA53
:1050800001F0CEFBFFF7D2FEFFF7D4FDFEF712FCD6
:10509000FFF780FEFEF718FD01F056F801F0F4F876
:1050A000FFF7DAFFFFF770FDFEF79EFDFFF706FD45
:1050B0000720000300681649164C00250860207878
:1050C00000280AD0FEF74AFE0146582805DA12A049
:1050D000FEF756FA00F0BEFC257000F0C9FC00F0A7
:1050E00011FCFEF730FEFEF7D5FDFEF78FFDFEF753
:1050F00015F801F003FAFFF71BFFFDF7C5FADEE72D
:1051000056455253494F4E20312E322E300A000060
:1051100018010020E90000206C6F77206261747430
:10512000657279203D2025640D0A0000F8B5002540
:10513000274C88280BD06778FF22002625490132AA
:105140003B00FEF72DFA0642092111303C21642074
:1051500000F002FE012024E0628988540320607080
:105160006089401C608130E06389C854608963892C
:1051700008182038C07F0002C95C0843208161897B
:10518000491C6181904207D90021124800F099FE24
:1051900066816670268118E0002801D0042000E0B6
:1051A0000520607011E062898918521C62810870C4
:1051B0002089401E0004000C2081F1D005E06289A6
:1051C0008918521C6281087001252846F8BD00002C
:1051D00040000020450A0020F0B53D4B01465878BC
:1051E000187000279A78FF261C465A7008360E3C25
:1051F00099703D46552803D1AA2A01D1080008D04C
:10520000227834481300FEF7CBF906611A21284FA3
:105210005B3A324600212F4800F053FE03222C490E
:105220002C4800F02EFE03220021294800F049FE00
:105230000320E080012020702846A580F0BDE28890
:105240008018521CE280017002202BE0E288801856
:10525000521CE2800170032024E0E2888318521C73
:10526000E2801970E188E28841182039897F0902BB
:1052700080182038C07F0143A180B1420DD903229C
:105280000021134800F01DFE32460021114800F0B5
:1052900018FEE5802570A58018E0002901D00420C3
:1052A00000E00520207011E0E2888018521CE280A6
:1052B0000170A088401E0004000CA080F1D005E021
:1052C000E2888018521CE280017001273846F0BD48
:1052D0004E00002037070020FEF770FFBFF34F8F0E
:1052E00003490248C860BFF34F8FFEE70400FA0588
:1052F00000ED00E010B50C460F4902460978002089
:10530000012914D0114600F057FF012100F054FF8D
:10531000002100F051FF012100F04EFF002C08D0C9
:10532000012100F049FF01460720FEF7DBFC0120C8
:1053300010BD0021F5E700008C00002010B50C46E0
:105340000D49024609780020012912D0114600F0CB
:1053500033FF042100F030FF002100F02DFF012178
:1053600000F02AFF214600F027FF01460720FEF744
:10537000B9FC012010BD00008C00002070B50C4667
:105380001749024609780020012922D0114600F071
:1053900013FF052100F010FF002100F00DFF210A8E
:1053A00019D0210C250A002917D0042100F004FF90
:1053B000210E00F001FF2102090E00F0FDFEE9B20E
:1053C00000F0FAFEE1B200F0F7FE01460720FEF71A
:1053D00089FC012070BD0121F2E70221EDE7000008
:1053E0008C00002070B50D460E491446024609781F
:1053F0000020012913D0114600F0DEFE002100F04C
:10540000DBFE210A00F0D8FEE1B200F0D5FE224614
:10541000294600F0C3FE01460720FEF763FC012089
:1054200070BD00008C00002010B50C4612490246E9
:105430000978002001291DD0114600F0BDFE02218F
:1054400000F0BAFE002100F0B7FE042100F0B4FE27
:10545000210E00F0B1FE2102090E00F0ADFE210484
:10546000090E00F0A9FEE1B200F0A6FE01460720F9
:10547000FEF738FC012010BD8C00002070B54518E7
:1054800001260446B60203E02046FCF787FCA41977
:10549000AC42F9D370BDF7B50646002082B017467E
:1054A0000546044600900BE0306800900398042203
:1054B00040196946FBF72CFF241D2D1DE4B2361D53
:1054C000BC42F1D305B0F0BDF0B5164687B0044636
:1054D00087190D466846FCF76DFC002006E0215850
:1054E000491C02D0462007B0F0BD001DB042F6D3E3
:1054F0000AE00422294606A8FBF70AFF204606997F
:10550000FCF770FC241D2D1DBC42F2D34F20EAE7AE
:105510000078704700B5FEF70BFC00BDF0B5C3B0D6
:105520000024454901940C60444905460878032845
:1055300002D0087804287AD168782A7800021043CB
:105540003E4A40BA5080E978AB7809029288194304
:10555000521C49BA904203D0002801D0012446E0F1
:10556000C82901D9052442E035480721006B090309
:1055700047183448874200D30124380508D1012157
:1055800009033846FFF77AFF002801D004242EE0F3
:10559000002C2CD1E878A9780002084346BA32469C
:1055A000A91D02A8FBF7B4FE324602A93846FFF750
:1055B0008BFF4628EAD0224A3146683202A8FEF71D
:1055C0007BFC1F498866086B80190863086F801987
:1055D00008671A4801218078C906C006C84206D16A
:1055E000FF221D2079321649C002FFF76DFF684681
:1055F0000470124D0420287001226946019800F0C1
:10560000CDFD0146ED20FEF76DFB002C11D00020F2
:10561000287000F0EDF8FF24793421460848FBF7A4
:1056200090FE1D2022460649C002FFF74DFF43B001
:10563000F0BD6888A880FAE7180000205400002018
:10564000E8010020FF0F0600F0B504468DB00020F1
:105650000B905C480078012874D1207A617A0004AC
:1056600009020818A17A10220D1821460B3156485C
:105670000A910990FBF770FE00282AD00027E07EEF
:10568000217F000609040818617F09020818A17F1C
:105690000E18E07F010620462030027812045118CF
:1056A000427880781202511840180890082247A1C9
:1056B0002046FBF751FE444C543C00280BD00125FA
:1056C00020216846FBF73DFE68460570002D40D05E
:1056D0006CE00127D3E781204002854233D93E495F
:1056E0008E4230D8002F0BD0A06CA84208D1E06CBD
:1056F000B04205D1216D0898814201D100251AE000
:1057000031483C211C38FBF71CFEE6640020A564F0
:10571000A0660898206510220A990998FBF7F8FD01
:10572000206F29492063FF221D200025793254393A
:10573000C002FFF7C9FE0721224809038160E16C1E
:10574000C160BDE73BE0854201D80225B8E70325EB
:10575000B6E70025089508A9206FFFF73BF9002858
:105760000ED1A06E089988420AD025671649A56611
:10577000FF221D2079325439C0022563FFF7A4FEB1
:10578000206F6A46010E5170010C9170010AD170B0
:105790001071A06E010E5171010C9171010AD1714D
:1057A00010720848022101704580858019226946DF
:1057B0000B9800F0F3FC0146EB20FEF793FA0DB0D6
:1057C000F0BD0000540000203C02002062397061EE
:1057D0003475626E00000000FF9F05000348002141
:1057E000017041808180084670470000540000200D
:1057F00010B5084C2078002808D0FF221D207932EF
:105800000549C002FFF760FE002020700020608084
:10581000A08010BD54000020E80100207CB51A4C87
:105820000025217802292DD1017842780906120439
:1058300051188278C07812025118144EC8420DD106
:10584000306F00280AD00020B06630673063FF2236
:105850001D2079323146C002FFF736FE306F6A46AE
:10586000010E1170010C5170010A9170D07003206B
:10587000207004226946284600F090FC0146EC2086
:10588000FEF730FA7CBD000054000020E801002043
:105890003EB50C46EA381A490300FDF781FE0504BF
:1058A0001B20252A1A000878002812D16B46187090
:1058B00001225A7002249C70D8701871C8245C713F
:1058C0000A700622694600F069FC0146EA20FEF7EC
:1058D00009FA3EBD11462046FFF7B6FE3EBD114611
:1058E0002046FFF79BFF3EBD11462046FFF716FE00
:1058F0003EBD08780028FBD0002000F0F9FA3EBD3C
:1059000054000020F8B5384C21683848384D394EDD
:1059100081423AD938480078002836D12168E12000
:10592000C001081800906846FBF7B6FC8169316039
:10593000324B82681A70E12743683F012B707A432B
:105940003C277B43D21800682D4B10182D4A186055
:105950001060002941D02C4A5143091850420818C0
:10596000186025480121017028480078002804D0DB
:10597000274801882748FEF789FC27480078002837
:1059800003D004212548FEF749FE216817488142CB
:1059900022D92168E120C001081800906846FBF771
:1059A0007BFC81693160154B82681A70E124436881
:1059B00024012B7062433C246343D2180068114BCE
:1059C00010180F4A00291060186009D00E4B594377
:1059D0000918584208181060F8BD07203060C0E769
:1059E00007203060F8BD0000A40000201027000050
:1059F000C1000020BC0000201D010020C0000020CC
:105A0000C4000020C800002080510100E7000020F1
:105A100066000020CC030020E80000206A0000207F
:105A200010B50B4C01280CD0002809D1002201210F
:105A30002046FCF74FFA002202212046FCF74AFAE2
:105A400010BD012211462046FCF744FA0122F3E77B
:105A500000200B4010B50020FFF7E2FF01210020DD
:105A6000FCF742FF01210020FCF73EFF10BD0000C3
:105A7000F8B59D4E20213046FCF727FA0127002477
:105A80009A4D002813D1E879002810D00022102167
:105A90003046FCF71FFA9648EC700770954801688D
:105AA0009548814202D995480470EC71AF7120216C
:105AB0008D48FCF70AFA924E002852D0A8790028A7
:105AC0004FD090A0FDF75CFD8A488B490068884262
:105AD00016D28F498FA0FDF753FD01210846FFF72D
:105AE0002DFCFCF7C9FF2C718D4834700179022020
:105AF000FFF79AFC8A4801790320FFF795FC22E022
:105B00007D49C94340187C49491E884202D2FEF7AC
:105B100061FB0FE083A0FDF733FDFEF75BFBFEF7B3
:105B200005F8002210217048FCF7D4F9FF20F53069
:105B300000F012F9012210216B48FCF7CBF97D200F
:105B4000000100F009F9012210216748FCF7C2F9B1
:105B5000AC716748EF710470664804607448347033
:105B6000046074480078012801D1FCF74DFD6349B9
:105B70000878002804D0022805D0012803D00EE0C0
:105B8000FCF77CFE0BE0012210215748FCF7A2F93C
:105B90005A48632101706848046068480460684896
:105BA000007801280ED167480168FF20F530814256
:105BB00008D9012210214C48FCF78CF96148046097
:105BC0005F4804705648407901286DD102215E4833
:105BD000FCF77BF900282FD1E87800282CD1287910
:105BE000002801D0022827D1642000F0B5F8022156
:105BF0005548FCF76AF900281ED1E87800281BD127
:105C00002879002801D0022816D1FCF729FD28792F
:105C1000022852D046482F7104600120FFF700FF90
:105C2000FFF718FF6420401E0028FCDC687801287C
:105C30003BD0FCF715FD2C71434F04213846FCF78F
:105C400044F9002830D1E87800282DD1287900289F
:105C500001D0012828D1642000F07EF804213846C4
:105C6000FCF733F900281FD1E87800281CD12879E7
:105C7000002801D0012817D1FCF7F2FC287901286F
:105C80001BD0022028712A4804600120FFF7C8FEBB
:105C9000FFF7E0FE6420401E0028FCDC6878012845
:105CA00018D0FCF7DDFC2C71F8BD284800780028DE
:105CB00000D0642000F0FCFABEE701210846FFF79F
:105CC0003DFBFCF7D9FE22480472224804602C7187
:105CD0003470F8BD1D480078002803D0002000F083
:105CE000E7FAF8BD6420FAE700200B40D40000205A
:105CF0001C0100201001002088130000E10000209A
:105D0000E9000020786964656E670D0A00000000F4
:105D10004702000025643A73746F700D0A0000009A
:105D2000A00E002063686F6E67207A68690D0A0014
:105D300018000020E0000020F8000020FC000020F7
:105D4000E20000209800002000400B40CC00002022
:105D5000AC0E00202000002010B504460020FDF706
:105D60003DF80120FDF73AF805490C600868002865
:105D7000FCD1801EFDF732F80020FDF72FF810BD92
:105D8000D000002070B53724A402216810480160BB
:105D900061680171A168417121690E4A11706269DF
:105DA0000D490A72A2690A70E1698160216A0B4893
:105DB0000160616A0125AD02072676034160204635
:105DC000FBF7ECFF6419B442F9D3FDF797FB70BD04
:105DD000A00E0020CC000020C00300200401002001
:105DE000F8B50578044600272846FBF748FA00284E
:105DF00002D012E06578641C2846FBF746FA0028BA
:105E0000F8D12B2D02D02D2D02D17F1C6578641C7A
:105E10002846FBF734FA002803D03020461BF5173C
:105E20000EE000200146F8BD0A2200233046294634
:105E3000FBF7E8F9009A30239A1AD51716184D4146
:105E40006078641C0090FBF71AFA0028ECD1002F50
:105E500002D030462946F8BD00217042A941F8BD64
:105E600010B5002A03D1002010BD401C491C521E51
:105E700003D003780C78A342F7D000780978401A51
:105E800010BD30B5002808D0002906D0884202D9BC
:105E90008C18844212D2002305E0002030BDCD5C76
:105EA000C5545B1C9BB29342F9D330BD8B18203B89
:105EB000DC7F8318203B521EDC7792B2002AF5D19A
:105EC00030BD10B5031E07D001E019705B1C1446ED
:105ED000521E92B2002CF8D110BD0021002806D02D
:105EE00000E0491C0278401C002AFAD1084670479D
:105EF000FEB5304C304D206FE9680026884221D134
:105F0000002769460097FEF765FD002804D1A16EC1
:105F10000098814200D0A066216DA06E884201D019
:105F2000022410E0A062E86860620120E06221487B
:105F30003C213830FBF705FA072000032763606631
:105F4000002400E00124684604710020287001222A
:105F500001A9304600F022F90146EE20FDF7C2FE0D
:105F6000FF261D277936FF02002C0DD00020287057
:105F7000FFF73EFC31460F48FBF7E3F932460D4987
:105F80003846FFF7A1FAFEBD32460A493846FFF708
:105F90009BFA3B26B602094F3446751C2046FBF798
:105FA000FDFE641CAC42F9D339463046FBF71AFFBC
:105FB000FFF792F9E801002054000020F5FAAA55F5
:105FC00070B5224900200860214801250570FFF7BF
:105FD00041FD7D24E4002046401E0028FCDC012019
:105FE000FFF71EFD641E002CFCDC01213220FCF7B3
:105FF0007BFC01213220FCF7B9FC1420FFF7ACFE3A
:1060000001211E20FCF770FC01214620FCF7AEFCAC
:106010001420FFF7A1FE01210A20FCF765FC0121F5
:106020005A20FCF7A3FC1420FFF796FE0121002064
:10603000FCF75AFC07480068012180B2FCF796FC87
:106040001420FFF789FE0448057070BD140100207C
:10605000E9000020A00000200D010020F8B51A4E34
:1060600030797D27194C1A4DFF00002805D1207882
:1060700000280CD0642000F01BF93079642805D189
:106080002078012811D0002000F012F9F8BD00227C
:1060900010212846FBF71EFF3846FFF75DFE012260
:1060A00010212846FBF716FFE7E7002210212846BB
:1060B000FBF710FF3846FFF74FFE0122102128465C
:1060C000FBF708FFF8BD0000A00E002064000020D0
