:020000040000FA
:1000000018080020AD0000001701000011040000D6
:10001000FFFFFFFFFFFFFFFFFFFFFFFFFFFFFFFFF0
:10002000FFFFFFFFFFFFFFFFFFFFFFFF1B010000C0
:10003000FFFFFFFFFFFFFFFF1D0100001F0100008A
:100040000348854600F094F800480047190800006E
:100050001808002001688D464168084730B50B46F6
:10006000014600202022012409E00D46D5409D4292
:1000700005D31D469540491B254695404019154618
:10008000521E002DF1DC30BD10B5092103200022E5
:10009000C9020004012300F017F910BD70470000E9
:1000A0000000000000000000E90600001C48804736
:1000B0001C4880471C4800471C480169002908D19A
:1000C0004169002905D18169002902D1C16900294E
:1000D00009D01748C1680901090D00290ED005296A
:1000E0000CD006290AD0BFF34F8F12481249016085
:1000F00012491148C860BFF34F8FFEE70D480168F1
:100100000D48884200D070470D480E4901600948EB
:100110000D4901607047FEE7FEE7FEE7FEE7FEE7F8
:10012000B90000002D050000410000000003084058
:1001300080010840000000200400FA0500ED00E006
:1001400000810840010000000000000003460B434E
:100150009B0703D009E008C9121F08C0042AFAD27D
:1001600003E00B780370401C491C521EF9D2704703
:10017000064C0125064E05E0E36807CC2B430C3CFA
:1001800098471034B442F7D3FFF75EFFC809000068
:10019000E8090000F0B596460A461349C000461823
:1001A00000230025FF2098402C46104216D0002046
:1001B000012199408C461146C1406746394206D01C
:1001C00087000F21B9400D437146B9400C43401CD4
:1001D0000828F0D33068A843204330600833361D28
:1001E000082BDEDDF0BD00002020024070B5184D68
:1001F0000446686B4607760F00F02EF8154920601C
:10020000330000F0ABFA081405070714140E11149C
:10021000606000E06160296A6068052909D34009CF
:1002200008E00120C003F3E77D200002F0E7002092
:10023000EEE7C840A060A96A4903490F072902D028
:10024000C840E06070BD0321FFF708FFF9E7000038
:100250000080084000127A000C490868C869C20F83
:100260004868400AC007C00F0ED00948002A0BD1C9
:100270008869C00D0007000F00D110208969044A69
:100280004902890F5043C840704700000080084071
:1002900000127A001FB541090A4A89008A18002114
:1002A0002E2800D10221C006C00E1268032383400D
:1002B0001A40C24054186846FFF798FF029804B0ED
:1002C000E04010BD38800840F0B5084F7C6AFD6AF8
:1002D0003E6B84438D439643002B02D004430D4371
:1002E00016437C62FD623E63F0BD00000080084062
:1002F000F7B582B01546002808D000210091C8212A
:10030000FFF7ACFE06460F4600240FE0012005B0C3
:10031000F0BDC8221049284600F0DAFA6A46C82122
:100320000D4800F037FA641CC8350090B442F0D391
:10033000781EC7280AD23A460749284600F0C8FA6C
:100340006A463946044800F025FA0090039800995F
:1003500001600020DBE700003404002000B5044900
:1003600008600820C8601420086100F029F800BD6A
:100370000000084010B50A4B03218A00D418246AF3
:10038000E4438450491EF8D5196BC907C917491CA5
:100390000161196B8907C917491C416110BD000033
:1003A0000000084000B5054A106051600420D0608C
:1003B0001420106100F004F800BD000000000840A7
:1003C00010B5124910484A6902231A434A6114229F
:1003D0000A6104E00A691207920F032A01D0401E45
:1003E000F8D28A698C699C438C61910301D5022003
:1003F00010BD910701D5012010BD002801D00020BB
:1004000010BD032010BD0000FFFF0F0000000840DA
:10041000024801680029FCD0704700001800002045
:1004200010B50124240320680721490740180B490F
:10043000884212D260683B21001B890288420CD29C
:100440000749A0030860074800F0EAF821460020A9
:1004500000F04EF82046FFF7FDFD10BD0120000022
:1004600080E100E000100440FFB5044681B002982E
:100470001746221826460720C73600032546844221
:1004800001D1012300E000232946082000F040F9B3
:100490004F2813D00BE0C8221049384600F0FEF96F
:1004A000C8220E49204600F021FA4F2802D04620EB
:1004B00005B0F0BD751CC936C834C8370720000325
:1004C0008542E8D9024669460298FFF711FF009974
:1004D00004988142ECD14F20EAE700004D0500204E
:1004E00001200249800608607047000000E100E03A
:1004F000024A1140014302488160704780FFFF1F9C
:1005000000ED00E0F0B5084F7C68BD68FE688443EC
:100510008D439643002B02D004430D4316437C6069
:10052000BD60FE60F0BD000000810840F0B53749B5
:100530001020C860364E012030603649086B4025D7
:10054000284308633448002344158268272AFCD1D5
:1005500000E0446042689205FBD500E043604268D9
:100560009205FBD43360486A0322920290434862AA
:1005700048680122D202104348608868C008C0075A
:10058000FBD04868C008C000C01C4860486B4007EA
:10059000400F0328FAD1214A1068C008C000401C4F
:1005A00010600B624868A0434860086896153043A5
:1005B0000860486817153843486088688008C00795
:1005C000FBD0086BA84308630868B04308600520A7
:1005D000C005886148682043486088684008C007B3
:1005E000FBD01068C008C000801C10600B62486817
:1005F000C008C000401C4860486B4007400F0128FD
:10060000FAD11168102001431160F0BD008108404B
:10061000008308400080084000A106400002084016
:100620000021012310B59B070A46984200D181158D
:10063000074B984201D103151943064B984201D14B
:10064000C014014301231046FFF75CFF10BD0000FA
:10065000001000400010044070B504460D46C888E4
:100660008988626808432989134B1A40114308435B
:1006700069890843606001208007844206D1182000
:10068000FFF708FE2968FFF7E9FC60620B48844227
:1006900006D11C20FFF7FEFD2968FFF7DFFC606232
:1006A0000748844206D11E20FFF7F4FD2968FFF7B2
:1006B000D5FC606270BD0000FCE0FFFF0010004050
:1006C00000100440002AC26801D00A4300E08A43B7
:1006D000C260704710238B404168002A01D0194343
:1006E00000E099434160704706490869800608D5D3
:1006F000054A10680968054B1954401C8005800D97
:1007000010607047001004401C00002034000020DE
:1007100070B51546521A002B08D00A2810D00120B7
:10072000C00381420CD31F20800207E00A2807D0B3
:1007300001200003814203D33B208002824201D981
:10074000462070BD01260C46B60203E02046FFF7A6
:1007500005FEA419AC42F9D94F2070BD30B47446DF
:10076000641E2578641CAB4200D21D46635D5B00AD
:10077000E31830BC184702E008C8121F08C1002A5D
:10078000FAD17047002001E001C1121F002AFBD1FD
:1007900070470000F0B50026F643002A04D0126826
:1007A000D2430024094F0DE03246FAE7035D5A4078
:1007B00008235508D20700D032463A406A405B1EF3
:1007C000F7D1641C8C42F1D3D043F0BD2083B8ED47
:1007D00070B50E4800F0A8F80E480D4C0546806D27
:1007E000A0600C484035C06D20600A48006E606013
:1007F0000848014664314EC948304EC03B20800253
:1008000000F092F8A869E06070BD000048E80000C0
:1008100024000020B4040020FFF762FEFFF734FC40
:1008200000F09AF8FFF7D4FF174E184801681848EF
:10083000814226D1072730683F031D24C119E402F5
:10084000A1421ED23A461349FFF752FD114D1249FB
:100850002D1F68680B68984213D101203A460003A7
:100860003168FFF701FEC0B228704F28DDD10125A5
:10087000AD020F273F032046FFF770FD6419BC420D
:10088000F9D3FFF7CDFDD0E7240000203000002091
:10089000F5FAAA551400002028000020F8B50646F5
:1008A000002017460546044600900CE03068009092
:1008B0000648042240196946FFF748FC2D1D241DF7
:1008C000EDB2E4B2361DBC42F0D3F8BD4D050020B8
:1008D00070B50024234605E020C80E191B1DDBB2AD
:1008E000241D35609342F7D370BD0000F0B587B08A
:1008F000054686186846FFF73DFD0024094F0BE0CA
:100900003919042206A8FFF721FC28460699FFF7AB
:1009100049FD241DE4B22D1DB542F1D34F2007B08F
:10092000F0BD00004D050020F8B506460020094F37
:100930000546044600903068009078190422694604
:10094000FFF704FC641CE4B22D1D361D102CF2D3FD
:10095000F8BD00000C0500203EB501239B031943A0
:100960009C1107231B04184321430123FFF7ACFC10
:10097000062210210220FFF70DFC06222021022072
:10098000FFF708FCE1204002009069468C800020BF
:10099000C88008814881A4052046FFF75DFE01223A
:1009A00011462046FFF78EFE012200212046FFF768
:1009B00091FE012211462046FFF78CFE0149E0110D
:1009C00008603EBD00E100E0E809000010000020E2
:1009D00024000000760700000C0A0000340000200C
:1009E000E407000084070000000000000000000091
:1009F00000000000000000000000000000000000F7
:0C0A0000000000000000000000000000EA
:020000040000FA
:1010000030130020AD100000592D00000521000014
:10101000FFFFFFFFFFFFFFFFFFFFFFFFFFFFFFFFE0
:10102000FFFFFFFFFFFFFFFFFFFFFFFF7133000028
:10103000FFFFFFFFFFFFFFFFB1310000D5330000CE
:10104000792A0000C932000021110000891B00002C
:10105000E91B0000F11B0000F91B0000FFFFFFFF70
:1010600029170000FFFFFFFF21110000FFFFFFFF16
:101070007D1F00002111000021110000211100003E
:101080002111000019180000211100002111000099
:10109000211100002111000021110000FB39000086
:1010A000FFFFFFFFB5390000F93900001D488047F8
:1010B0001D4880471D4800471D480169002908D187
:1010C0004169002905D18169002902D1C16900293E
:1010D00009D01848C1680901090D00290ED0052959
:1010E0000CD006290AD0BFF34F8F13481349016073
:1010F00013491248C860BFF34F8FFEE70E480168DE
:101100000E48884200D070470E480F4901600A48D7
:101110000E4901607047FEE7FEE7FEE7FEE7FEE7E7
:10112000FEE70000B9100000DD330000511100009F
:101130000003084080010840000000200400FA0578
:1011400000ED00E000810840010000000000000008
:101150000348854600F096FA004800475D580000B5
:101160003013002030B50B46014600202022012418
:1011700009E00D46D5409D4205D31D469540491BCB
:101180002546954040191546521E002DF1DC30BD14
:1011900070B500242546002801DA012440420029C8
:1011A00001DA01254942FFF7DDFFAC4200D04042A1
:1011B000002C00D0494270BDF8B500242546002916
:1011C00004DA0E46012400214042B141002B04DA2A
:1011D0001E46002352420125B34100F0BFF98C4660
:1011E00017461E46AC4203D0002540428D41AC4616
:1011F000002C02D0002657429E4161463A463346B3
:1012000001B0F0BDF0B51FB486B000200090019091
:1012100002900698069980B204900798090C02047F
:101220000014114307900027089D099806913E4637
:101230003C4603900398A9B20204000C0390049862
:101240002D0C154348430021224600F0B7F9C71979
:10125000714110340E46402CECDB3846029A00F007
:10126000ADF9009A019B80180090594102980191B4
:10127000103002904028CCDB00980BB0F0BD10B5C8
:10128000C0B2802100F0AAF910BD10B50F21C0B284
:10129000490200F0A3F910BD70B5194C00683C215B
:1012A000FFF760FF21603C21FFF75CFF61601821C0
:1012B000FFF758FF0546A1600721001DFFF752FF09
:1012C000A1611048A90008180F49FFF74BFF4430EF
:1012D00060618808E0613B2803D3217D890700D045
:1012E000401C0021094B0A462161995C814203D8C8
:1012F000401A521C2261F8E7401CE060204670BD95
:10130000041100206C0B0000B5050000326F0000D6
:1013100003460B439B0703D009E008C9121F08C00E
:10132000042AFAD203E00B780370401C491C521EB9
:10133000F9D27047D2B201E00270401C491EFBD2C4
:1013400070470022F6E710B513460A4604461946D0
:10135000FFF7F0FF204610BD30B5044600200346DD
:1013600000E05B1C934203D2E05CCD5C401BF8D0F4
:1013700030BD0321001D401E037812021A43491E8E
:10138000F9D510467047F8B502464A40D40F4200DE
:101390004B0052085B089A4202D2024608461146A8
:1013A0004A0023D0C30D4A00DDB2120EAD1A202D23
:1013B00035DA49020126490AF6058A19002C00D0BF
:1013C000524220214F1B1146B9402A411018C20D2C
:1013D0009A4221D0002C17D0012D08DCDA05801AA2
:1013E000D20F8019D207DBB200F012F9F8BDDA058E
:1013F000801A012340001B06C01880185A4280182A
:10140000CA0F1043490007E04908C2071143DA0533
:10141000801A80194008801800F0F2F8F8BD6100C9
:101420000122511A001BF7E70122D2075140AAE717
:101430000122D2075040A6E7024670B54A40D30FBA
:10144000DB0740002DD04A002AD0010E140E000206
:1014500012020919400A520A8418E501044654434D
:10146000000A120A2E045043A4194219200CC54345
:10147000AA18120C0125AD03521C521912047F390F
:10148000240400D0521C104301D44000491EC2B2B3
:101490000C06C0092018401C4008802A02D003E036
:1014A000002070BD40084000002900DA00201843E9
:1014B00070BD420005D04200120E52428A4201DB4A
:1014C00000207047C90508187047C217C10F504067
:1014D00010B54018CA079623002100F099F810BDF6
:1014E00010B500229623114600F092F810BDC20FED
:1014F000410040020123400ADB05D207090EC01853
:101500007F2901DA00207047962903DC9623591AB7
:10151000C84001E096398840002AF4D04042704724
:10152000410040020122400AD205090E80187F299D
:1015300001DA00207047962903DC9622511AC84030
:1015400070479639884070470122D207002800DB97
:10155000101A002900DB511A81427047F0B51FB400
:101560000646002082B005464024019100901BE011
:10157000019922460F46304600F096F8049A059BE2
:10158000801A994110D310461946224600F016F8E9
:10159000361A8F410197224601200021009F00F05A
:1015A0000DF838184D4100902046641E0028DFDCFD
:1015B000019B00982946324607B0F0BD10B5202A9D
:1015C00004DB0146203A9140002010BD91402023C9
:1015D0009C1A0346E3401943904010BD7F2801D96F
:1015E000002207E0054B42089A5CC00700D11209AF
:1015F0001207120F01209040084070473E6F000014
:10160000002904DA401C490001D14008400070471D
:1016100070B40024050C05D11024000402D1002967
:1016200021D01124050E01D100020834050F01D18B
:101630000001241D850F01D18000A41C002801DBBE
:101640004000641C002908D020252E1B0D46F540C3
:10165000A14000D001212943084301061B1B000AB9
:10166000DB1D02D5002070BC7047DB051818801800
:101670000029F8DA401C4900F5D170BC4008400050
:1016800070470000064C0125064E05E0E36807CCD4
:101690002B430C3C98471034B442F7D3FFF75CFD62
:1016A000806F0000A06F000010B5202A04DB084600
:1016B000203AD040002110BD0B46D340D04020241A
:1016C000A21A91400843194610BD30B58C18027813
:1016D000401C13071B0F01D10378401C120906D1CF
:1016E0000278401C03E005780D70401C491C5B1E0D
:1016F000F9D101E00B70491C521EFBD1A142E6D387
:10170000002030BD80220029016801D0114300E093
:1017100091430160704710B5002001221206012399
:10172000014601F099FD10BD70478030002A026823
:1017300001D00A4300E08A4302607047930810B565
:101740009B00181843689207D20E1F249440A343AD
:1017500091400B43436010BD5B1E12021B04FF3A15
:10176000013A13430B430168802211400B4303608D
:101770007047CA06D20E026749094901416770479E
:101780000029416F02D00122114301E049084900BC
:101790004167704710B50022072802D90122083896
:1017A000C0B29300054A9A18136880000F24844041
:1017B000A34381401943116010BD00000020024086
:1017C000F0B596460A461349C00046180023002586
:1017D000FF2098402C46104216D00020012199404D
:1017E0008C461146C1406746394206D087000F211A
:1017F000B9400D437146B9400C43401C0828F0D352
:101800003068A843204330600833361D082BDEDDE6
:10181000F0BD00002020024010B50A4800F01CF87E
:1018200009480168491C016008488168491C8160B9
:1018300007480068012803D106480168491C016077
:1018400010BD000000600740A40000201000002030
:101850001C01002020010020416849084900416026
:10186000BFF34F8F704704220029016801D0114354
:1018700000E09143016070470029016802D0012215
:10188000114301E049084900016070470222002924
:10189000016801D0114300E0914301607047C160CD
:1018A000704781607047000003498968014201D098
:1018B00001207047002070470080084070B5184D27
:1018C0000446686B4607760F00F02EF81549206035
:1018D000330002F0DBF9081405070714140E111485
:1018E000606000E06160296A6068052909D34009E9
:1018F00008E00120C003F3E77D200002F0E70020AC
:10190000EEE7C840A060A96A4903490F072902D041
:10191000C840E06070BD0321FFF724FCF9E7000038
:101920000080084000127A000C490868C869C20F9C
:101930004868400AC007C00F0ED00948002A0BD1E2
:101940008869C00D0007000F00D110208969044A82
:101950004902890F5043C84070470000008008408A
:1019600000127A001FB541090A4A89008A1800212D
:101970002E2800D10221C006C00E12680323834026
:101980001A40C24054186846FFF798FF029804B006
:10199000E04010BD38800840F0B5084F7C6AFD6A11
:1019A0003E6B84438D439643002B02D004430D438A
:1019B00016437C62FD623E63F0BD0000008008407B
:1019C00010B50446094900204871497908A002F081
:1019D0004DF90C2044430E4820188178012903D08A
:1019E000C07804F0ABFF10BD0020FAE7E00E002045
:1019F0007661726961626C652E6175746F5F727574
:101A00006E5F6D6F6465203D3D2025640D0A00000A
:101A1000A003002010B537208002C0690349087078
:101A2000034800F009FA02F011F910BD000400208B
:101A300004DC000010B5372080028069034948703B
:101A4000034800F0F9F902F001F910BD000400208C
:101A500004DC0000FEB52B48417800290BD00021A2
:101A600035229202009110680B46274CFF28206314
:101A700005D3A372FEBD25A002F0F8F8FEBD294DE6
:101A800000208B181B682B54401C091D0428F8D318
:101A9000106AC7B268460770506AC6B26846467098
:101AA000906A3246C1B2684681700B460191394650
:101AB0001DA002F0DBF8E120000147433C20464333
:101AC0000199B81940182064E8780090AB786A78DA
:101AD00029781AA002F0CAF81248FFF74AFC00BAA7
:101AE000020AE878120202430648134642603C208C
:101AF0004243626417A0216C02F0B8F80120A07282
:101B0000FEBD000000040020F4000020636F756E2D
:101B1000745F6F70657220666C6167203D25640D8F
:101B20000A0000007A0000207473203D2025642004
:101B30002564202564200D0A0000000076616C7584
:101B400065203D2025782025782025782025780DD2
:101B50000A00000049345F4F544154696D65203DCF
:101B6000202564202C2056535F436F756E74666188
:101B70006C736854696D65203D20256420202564C0
:101B80000D0A00007047000010B5134C00211348E7
:101B9000E1600268012A0CD1114B1A60016001F06A
:101BA00087FBA06205F01AF8012211460D4800F0EB
:101BB000DFF9002000F07EF8012000F029F8022073
:101BC00000F026F8052000F023F80E2000F020F8A1
:101BD0000F2000F01DF810BD10000020A80000200C
:101BE000B400002000400B4010B501F06BFF10BDA9
:101BF00010B501F067FF10BD10B501F063FF10BD17
:101C000001218140014841608160704740400240AD
:101C10000121814002488161BFF34F8F704700006E
:101C20004040024010B5084A5368012484402342D2
:101C300007D09268C240D007C00F884201D001206F
:101C400010BD002010BD0000404002400179027A22
:101C5000C90712071143C28800681143024A800075
:101C60008018016070470000004002400122054BCF
:101C700082401868012902D09043186070471043D1
:101C8000FBE700004040024010B50123084C8340B0
:101C9000012A02D02069984306E06069002905D036
:101CA0001843606120691843206110BD9843F8E72C
:101CB0004040024005490128086903D0400040081F
:101CC000086170470122D2071043F9E74040024003
:101CD00070B500240125ED03224601232946104654
:101CE00001F0BAFA072003216E10000489030123D2
:101CF0002246FFF751FE4D4C00220221204600F003
:101D00001DF9022101220846FFF75AFD0122022196
:101D1000204600F00BF902210120FFF73BFD0122D4
:101D200011461046FFF7B0FF0120FFF7C3FF032065
:101D300001F014F800220421204600F0FFF80122EF
:101D400004210220FFF73CFD01220421204600F07F
:101D5000EDF802210846FFF71DFD01221146022081
:101D6000FFF792FF0120FFF7A5FF032000F0F6FF29
:101D70002F4C00222021204600F0E0F801222021F3
:101D80001046FFF71DFD01222021204600F0CEF86D
:101D900001210520FFF7FEFC012211460520FFF777
:101DA00073FF0120FFF786FF032000F0D7FF214CCF
:101DB00000223146204600F0C1F8012231460020C1
:101DC000FFF7FEFC01223146204600F0AFF800216B
:101DD0000E20FFF7DFFC012211460E20FFF754FF13
:101DE0000120FFF767FF032000F0B8FF002229461B
:101DF000204600F0A3F8012229460020FFF7E0FC6E
:101E000001222946204600F091F800210F20FFF71B
:101E1000C1FC012211460F20FFF736FF0120FFF71A
:101E200049FF032000F09AFF70BD000000400B4006
:101E300000200B4000000B4000B50449086008205A
:101E4000C8601420086100F029F800BD00000840B7
:101E500010B50A4B03218A00D418246AE443845045
:101E6000491EF8D5196BC907C917491C0161196BBF
:101E70008907C917491C416110BD000000000840D6
:101E800000B5054A106051600420D0601420106134
:101E900000F004F800BD00000000084010B5124931
:101EA00010484A6902231A434A6114220A6104E075
:101EB0000A691207920F032A01D0401EF8D28A69DC
:101EC0008C699C438C61910301D5022010BD910760
:101ED00001D5012010BD002801D0002010BD032035
:101EE00010BD0000FFFF0F0000000840002A02683C
:101EF00001D00A4300E08A4302607047F0B5002435
:101F000025462346CE0706D05E001746B7403C4321
:101F10000327B7403D4349085B1C102BF2D34169AE
:101F2000A9434161416921434161F0BD002A4268F2
:101F300001D00A4300E08A4342607047002A08D07B
:101F4000012A09D082688A438260C2688A43C260DB
:101F5000704782680A43F7E7C2680A43C260826832
:101F60008A4382607047C069084000D001207047F2
:101F7000002A01D04162704781627047FEB5FF219F
:101F800001314F4801F0A4FA4E480168491C016034
:101F90004D490868401C08604C48C168491CC16034
:101FA0004B490978002906D04A4909780B2902D102
:101FB0000169491C016148490978002903D0474952
:101FC0000A68521C0A60414800278169491C8161E6
:101FD00043490868401C0860FF21913188423BD981
:101FE00000242546264600943E48406B37490005AC
:101FF000000DC861FFF774FA0B21C943FFF759FAC6
:102000003949FFF719FA019038480088FFF768FA54
:102010000199FFF799FA0BD26D1CEDB20098FFF70A
:102020005FFA0199FFF7AFF9FFF77AFA009001E044
:10203000761CF6B2641CE4B20A2CD5D32C4C052DC8
:1020400004D929460098FFF78DF82080082E01D981
:1020500032202080224807602648007A012803D1D8
:102060001A484169491C41611848234A81699142D3
:102070000EDD876141780023491C4170016B426B82
:10208000491C5A4142631D4A01631168491C116091
:1020900041783B2903D947708178491C8170817848
:1020A0003B2903D98770C178491CC1701449C268A3
:1020B0008A4200DDC76002698A4200DD0761FEBD19
:1020C00000E0064028010020300100201000002020
:1020D00000010020BD000020540100204801002024
:1020E0004C0100200000014000404E45C00000208F
:1020F000E8000020F00E0020E7030000AC00002004
:10210000005C26050248416A0029FCD070470000A7
:102110001000002010B5134C1349206888420CDDD4
:1021200012490978002908D002210C2003F030FD63
:1021300004F00EF80020206010BD0028FCD00C49EF
:102140008842F9DA0B480C4A818912889142F3D906
:1021500000780028F0D104210C2003F019FD03F0D1
:10216000F7FF10BD20000020C0D4010000010020B6
:10217000B80B0000DC000020C0000020F8B5434888
:10218000007802286FD1424900200870414801219F
:10219000417003F0DDFF404E3078404F404D414CE0
:1021A00000280FD13878012806D02878002807D0D9
:1021B0002878022804D005E03B480068A06001E0D0
:1021C00000F0E8F9307801280FD13878012806D0DE
:1021D0002878002807D02878022804D005E0324863
:1021E0000068A06001E000F0D5F921682FA001F09F
:1021F0003DFD2068364940182060216835A001F077
:1022000035FD64202071002004F0C2FD012107206B
:1022100003F014FD2179022003F010FD2179032041
:1022200003F00CFD0221072003F008FD2068A068E0
:10223000A268216832A001F019FD164E0120B0708D
:102240003848002505703570374805600F48B5716E
:102250000570364F3878012802D0022804D00CE0EF
:1022600002F07CF902E00FE004F0C4F97D20C00028
:1022700004F0BAF803F06CFF3D702D4805700220A1
:10228000E071F57001206071F8BD0000BD00002014
:10229000FA000020DC000020D4000020BF00002055
:1022A000BE000020E00E0020200000202564203D1C
:1022B0003D3D3D3D3D3D3D3D3D3D3D3D3D3D3D3D4E
:1022C0003D3D3D3D3D3D3D3D3D3D3D3D3D0D0A00DE
:1022D00024FAFFFF2564203D7265647563653D3D0A
:1022E0003D3D3D3D3D3D3D3D3D3D3D3D3D3D3D3D1E
:1022F0003D3D3D3D3D3D3D3D3D3D3D0D0A00000028
:1023000071696368656E67203D202564202C20720A
:10231000657475726E2074696D65203D2025640DAD
:102320000A000000450100201C000020F7000020EA
:102330000001002010B5124C55202070AA206070BA
:102340000020A0700721E1702071082161716B21CC
:10235000A1710221E171207204216172A072E07208
:10236000207360730E21204602F08DFFA0730F21B1
:10237000204604F077FC1721204604F09FFD10BD95
:10238000850B0020F8B5074608481C46007915461D
:102390000E4660436421FEF7E5FE38602846604340
:1023A0006421FEF7DFFE3060F8BD0000E00E002083
:1023B000F8B51B480078012831D10126194D1A4F74
:1023C000EE7000247C7119A001F050FC1D480670CD
:1023D00003F0BEFE6C716C701B4D2878002809D08C
:1023E0003C60BC6019480460194804720121084629
:1023F00003F0AEFB174F3878002801D102F0AEF899
:102400003878012801D104F0F5F813480460134826
:10241000067003480B21017011482E700470F8BD3E
:10242000BD000020DC000020E00E0020737461720B
:10243000742063616C6962726174696F6E2E200D25
:102440000A000000FA000020000100202400002003
:10245000F00E0020D400002020000020BF0000204B
:10246000FB000020F8B52948007803284DD1284802
:10247000284E0078284C294D002822D0306828604A
:102480002078FF27F53701280BD12278244925A091
:1024900001F0ECFB04F0C4F9384603F0A5FF02F0AC
:1024A0005DF8207802280CD122781D491DA0C91D95
:1024B00001F0DCFB04F0B4F9384603F095FF04F0BA
:1024C00099F80020306060711D4801260670A671E1
:1024D0001C4C20781C4F002808D104F08BF82A6887
:1024E0000F491AA01B3101F0C1FB3E702078012872
:1024F00008D102F033F82A6809491DA0203101F003
:10250000B5FB3E7001480B210170F8BDBD000020F5
:102510000001002020000020DC000020E00E002050
:102520001B04000025643A6D6175616C2072756E44
:102530005F7374617465203D2025640D0A000000FE
:10254000BF000020D40000204501002025643A523D
:10255000657475726E4A6F75726E657920737461F9
:102560007274206F70656E3D2025640D0A000000B6
:1025700025643A52657475726E4A6F75726E65792C
:1025800020737461727420636C6F73653D202564E1
:102590000D0A0000F8B503F0DBFD294F3C78294E09
:1025A000294A002329492A48012C1BD13478002CC0
:1025B00007D18C79012C08D08C68056864198C606F
:1025C00003603478012C05D00CE054680568641968
:1025D0005460F5E78C79012C08D08C680568641B81
:1025E0008C6003603C78022C05D020E054680568BC
:1025F000641B5460F5E73478002C07D18C79012CEA
:1026000008D08C680568641B8C6003603478012CEA
:1026100005D00CE054680568641B5460F5E78C79BC
:10262000012C07D08A68046812198A6003600320AD
:102630003870F8BD5168046809195160F6E7000068
:10264000DC000020D400002058010020E00E002013
:102650002000002010B5164C55202070AA20607074
:102660000020A0700721E1702071102161716621A6
:10267000A171E07120720C206072FF20A072E072E4
:1026800020736073A073E07320746074A074E074AE
:10269000207560751621204602F0F5FDA075172102
:1026A000204604F0DFFA1721204604F007FC10BD95
:1026B000850B00202C4E012210213046FFF758FCDC
:1026C00000F094F8012210213046FFF751FC274D0D
:1026D000274F20213046FFF746FC002801D103F0A8
:1026E00037FD244C02212046FFF73DFC002801D194
:1026F00001F034FF04212046FFF735FC002801D10A
:1027000003F078FF1C4801881C480088814202D8E9
:1027100038780028DDD00124002210213046FFF750
:1027200027FC03F015FD164803F05EFEE87802284A
:1027300007D103F05FFF0024012210213046FFF78C
:1027400017FCE878012808D1002C06D001F006FF1C
:10275000012210213046FFF70BFC002038707D204D
:10276000C00003F041FEB4E700200B40F40000205D
:102770001000002000400B40E8000020C0000020B6
:10278000B80B0000F8B5164C2078012801D100F0F4
:1027900033F961780025134E002904D0022905D0B1
:1027A000012903D00BE000F0EDFA08E0012210212E
:1027B0003046FFF7DDFB63206070A562E562A0781C
:1027C00001280CD1084FFF213868F531884206D91D
:1027D000012210213046FFF7CBFB3D60A570F8BD0C
:1027E000F400002000200B40A400002010B5084C8D
:1027F000002210212046FFF7BBFB7D20C00003F024
:10280000F3FD012210212046FFF7B2FB10BD0000AE
:1028100000200B40F8B5104E01207D273070FF00DE
:10282000384603F0E1FD0D4D0024E878012802D080
:10283000022803D00AE001F091FE01E003F0DAFE85
:10284000384603F0D1FD03F083FCEC70034834708C
:1028500016300470F8BD0000DF000020F4000020F6
:102860000C4CFFF78FFF03F081FC01F0F0FD01F04D
:1028700095FDA07B002801D0FFF71CFF00F026FF8C
:1028800002F072FF04F01EF900F01EF900F036F8B5
:10289000E7E70000F4000020FFF7A8FF0127144E2F
:1028A0000025144C01F0E4FC01F078FD02213046D3
:1028B000FFF759FB002804D1FFF798FF277402F0B7
:1028C00053FF04213046FFF74EFB002804D1FFF7E9
:1028D0008DFF01F043FE257420210748FFF743FBDD
:1028E0000028DFD1FFF782FF03F032FC2574D9E71F
:1028F00000400B40F400002000200B40F8B5314BA5
:1029000018683149884258D9304E717B3046808AE8
:10291000002904D001F0FEFD1968401803E001F021
:10292000F9FD1968081A00906846FEF7B5FC2849B9
:1029300083690B60274985680D70274942680A70D2
:10294000E1242401294661433C24544309190468C5
:10295000224F0C191D493C6018310D704A700078E7
:102960001F4D88702C60002B28D01E481D49434302
:102970001819494240183860F07A00281DD1707A41
:10298000002804D018480188184802F009F8B07AE5
:10299000002810D0716C306C4018296888420AD920
:1029A000401AB063124801786A2003F0ADF80421A0
:1029B000104802F0E5F90120F072F8BD0448072143
:1029C0000160D9E7AC00002010270000F4000020CF
:1029D000C4000020C8000020C9000020CC00002056
:1029E000D000002080510100760000200C0400205F
:1029F000000400207A00002070B51248002501680C
:102A0000114CFA290FD96178082913D8056021786B
:102A10000E4800290FD001221021FFF7A9FA2570D6
:102A20006078401C60706078082803D1064812382E
:102A30000570657070BD00221021FFF799FA012022
:102A40002070EDE7180000200601002000200B4058
:102A500010B5002210210548FFF78AFA044900202A
:102A6000086004490120887010BD000000200B4060
:102A7000A4000020F400002070B501240A4E0B4D84
:102A80000DE0002201213046FFF772FA00220221F8
:102A90003046FFF76DFA06A001F0E8F82C7000F060
:102AA00089FA0028EDD170BD00200B4010000020F5
:102AB0004C56445F424F445F49525148616E646CCA
:102AC00065720D0A00000000F8B51848007800286B
:102AD0002BD0174E002430780127164D00280DD03A
:102AE000EF7315A001F0C2F80121084603F030F899
:102AF00000F08EFA2C733470FFF7AAFF134E1449BE
:102B000030880988884210D9287A00280DD1EF73BF
:102B100010A001F0ABF80121084603F019F800F00D
:102B200077FA2C73FFF794FF3480F8BDDD000020A6
:102B300010000020F40000204C6F77566C6F746119
:102B40006765666C616720210D0A0000E8000020BF
:102B5000C00000204C6F636B6564526F746F7244E9
:102B60006574656374696F6E0D0A000070B50E4C74
:102B700001207D252070ED00284603F035FC0B4830
:102B8000C178012902D0022903D009E001F0E6FC56
:102B900001E003F02FFD284603F026FC03F0D8FAED
:102BA0000020207070BD0000DF000020F400002035
:102BB00010220029016F01D0114300E09143016709
:102BC00070470000F8B53A4800780B285FD1FFF74E
:102BD000A1FA384F3878384D0024384E002811D1EA
:102BE0003748007800280DD1307803280AD1012019
:102BF000307034480278344934A001F037F803F0DB
:102C0000F9FC2C603878022812D12D480078002871
:102C10000ED1307803280BD1022030702948027879
:102C20003B2109012FA001F021F801F097FC2C6055
:102C30003349B0890A8890420AD8324A1278002A69
:102C400006D13A78012A22D11D4A1278002A1ED1D3
:102C50000988884203D92CA001F008F8B4812948DA
:102C60000078002804D031A001F000F82548047055
:102C700036480470042038707079354C002807D02D
:102C80002078012811D003F0CBFD01207071F8BD30
:102C90000320307003F05CFA21782E48012929685E
:102CA00001D00160F1E78160EFE7FFF773FCECE72B
:102CB000BD000020BE00002020000020DC0000201D
:102CC000BF000020D4000020A603000025643A6F56
:102CD00070656E206375727461696E2025640D0ADB
:102CE0002000000025643A636C6F73652063757281
:102CF0007461696E203D202025640D0A00000000EB
:102D0000C00000201000002063616C696272617471
:102D1000696F6E2043757272656E74206C6F636BA1
:102D2000656420726F746F720D0A000063616C69D4
:102D300062726174696F6E20496E7465727275702B
:102D400074207374616C6C0D0A0000000001002097
:102D500045010020E00E002070470000C106C90EAA
:102D600001208840014908607047000000E100E050
:102D7000024A1140014302488160704780FFFF1FF3
:102D800000ED00E0F8B51649164F08680026164C0D
:102D9000FA2810D9E06AB8420DD80120A062254671
:102DA00012350E602878002812D0012210210F4819
:102DB000FFF7DEF82E70E06AB84208D30122102136
:102DC0000A48FFF7D5F863206070A662E662F8BD96
:102DD000002210210548FFF7CBF801202870EAE710
:102DE0001800002020BF0200F400002000200B404B
:102DF000F3B501250746002489B0A9032B462A46CE
:102E00002046FEF7C9FD042211460120FEF7D8FC3A
:102E10001648694648820C820C75280206948883FD
:102E2000134E04A9304600F0EFFB022069460870FB
:102E300064207D21C01B490148436421FEF7A8F9A5
:102E400069464881062048800D718D710D728C8114
:102E5000304600F089FB01213046FFF7A9FE3046DD
:102E60000A9900F03AFB0BB0F0BD00009F0F000084
:102E700000C00240F3B5012206460024520789B083
:102E8000D11301232046FEF787FD0D2208210120E2
:102E9000FEF796FC1748694648820C820C75FF279E
:102EA00001370694144D8F8304A9284600F0ACFB2B
:102EB0003946284600F00CFB69460C7064207D21E1
:102EC000801B490148436421FEF762F96946488145
:102ED00007204880012008714C718C71CC710C72F4
:102EE0004872284600F040FB28460A9900F0F5FA9F
:102EF0000BB0F0BD9F0F00000040074005490028BF
:102F0000086902D00122104301E040084000086136
:102F10007047000000A10640044902220028086909
:102F200001D0104300E090430861704700A10640C3
:102F3000054801214160090342688A43FCD10168C8
:102F40000029FCD17047000000A1064070B5164D65
:102F5000296B4906CA0F296B40263143296313495F
:102F60004B68DB0BDB0706D14C6880239C434C602D
:102F70004C681C434C604B680824A3434B60002AF8
:102F800002D1296BB143296309490B690422134318
:102F90000B61002804D030BF08699043086170BD00
:102FA00040BF20BF20BFF7E70080084000A10640D7
:102FB00000ED00E0024800690003C00F7047000008
:102FC00000A106400122054912040028086901D029
:102FD000104300E0904308617047000000A10640E4
:102FE0000122054912050028086901D0104300E0BC
:102FF000904308617047000000A10640034A116930
:1030000023235B04994301431161704700A10640EB
:10301000F8B53A4D0026287B00286DD0002003F03B
:10302000B7FE6879364C012802D0022802D009E0A8
:10303000216800E0A1683348642200685043FEF72D
:1030400091F82871297930A000F010FE3548417AB6
:1030500000270A2904D121792A7989182971477210
:103060003048407A012805D120792979401A287101
:103070002C484772E87B642100280FD02879462825
:1030800005D92279462A02D8297101260AE01E288C
:1030900004D220791E2801D32F7103E028796428F7
:1030A00000D92971EF7329791FA000F0DFFD1D48B9
:1030B00007721448076021792A7922A000F0D6FD12
:1030C0000120E87129792171022002F0B7FD2979E8
:1030D000032002F0B3FD03F03BF800F06AF8002E85
:1030E00004D028A000F0C2FDFFF740FD2E48077075
:1030F0002E48077002F0A4FAF8BD0000F40000208A
:10310000E00E002024000020767369676E53746F10
:103110007050657263656E7420313A2025640D0A23
:1031200000000000F00E0020767369676E53746F24
:103130007050657263656E7420333A2025640D0A01
:10314000000000000D0A2073746F702076617269B0
:1031500061626C652E676C6F62616C5F7065726333
:10316000656E74203D202564202C20767369676E7F
:1031700053746F7050657263656E74203D202564D2
:10318000200D0A0043616C6C6261636B20616674A0
:103190006572206F666673657420636F7272656313
:1031A00074696F6E0D0A0000E0000020DF0000204F
:1031B0007047704710B50C4C216A626A914211D079
:1031C000606A0A49884207D1606A002182B20848D1
:1031D00003F091F9002060620548616A405C616A11
:1031E000491C616210BD0000F400002007020000CD
:1031F000FC0E002070B50A4C0546206A0949884239
:1032000007D1206A002182B2074803F074F9002038
:1032100020620548216A4554206A401C206270BD26
:10322000F400002007020000FC0E0020074A53684B
:103230009168994208D00648814201D305489060C0
:1032400091680878491C9160704700008800002050
:103250007707002070050020F0B5084F7C68BD6836
:10326000FE6884438D439643002B02D004430D43F4
:1032700016437C60BD60FE60F0BD00000081084028
:1032800003498A6802239A43400002438A607047D8
:1032900000A0064005490028886802D0012210439A
:1032A00001E04008400088607047000000A0064030
:1032B000014800687047000000A006400148C0684F
:1032C000C0B2704700A0064010B5FFF7F7FF8007B7
:1032D00002D502490220087010BD0000B80000208D
:1032E000044A0029116901D0014300E081431161C2
:1032F0007047000000A00640084A0823002808493B
:10330000906805D0184390608868C006FCD5704767
:10331000984390608868C006FCD4704700A00640BF
:103320000080084003498A6820239A4340010243F1
:103330008A60704700A0064001494860704700005D
:1033400000A00640034A91680F231B0299430143E2
:103350009160704700A00640044A0029116901D01D
:10336000014300E0814311617047000000A0064066
:1033700070470000042204490428086902D09043E1
:10338000086170471043FBE700E000E007490028B0
:1033900006D00128086906D040084000086170473F
:1033A00000208861704701221043F7E700E000E049
:1033B000044902220028086901D0104300E090432C
:1033C0000861704700E000E0014948617047000073
:1033D00000E000E010B503F0E9FB10BDF0B537499F
:1033E0001020C860364E012030603649086B4025F9
:1033F000284308633448002344158268272AFCD1F7
:1034000000E0446042689205FBD500E043604268FA
:103410009205FBD43360486A0322920290434862CB
:1034200048680122D202104348608868C008C0077B
:10343000FBD04868C008C000C01C4860486B40070B
:10344000400F0328FAD1214A1068C008C000401C70
:1034500010600B624868A0434860086896153043C6
:103460000860486817153843486088688008C007B6
:10347000FBD0086BA84308630868B04308600520C8
:10348000C005886148682043486088684008C007D4
:10349000FBD01068C008C000801C10600B62486838
:1034A000C008C000401C4860486B4007400F01281E
:1034B000FAD11168102001431160F0BD008108406D
:1034C000008308400080084000A106400002084038
:1034D000C943C167BFF34F8F70470029016902D00C
:1034E0000122114301E049084900016170470000D1
:1034F0000022134B10B51146984201D1821519E0F4
:10350000104B984201D1012214E00F4B984202D196
:10351000012212070EE00D4B984202D10122520700
:1035200008E00B4B984201D1820403E0094B98421A
:1035300000D1C20401230846FFF78EFE10BD000033
:1035400000E0064000C00240004003400040074049
:103550000050034000500740002A426F01D00A4348
:1035600000E08A4342677047F0B50C78A200121859
:10357000154613469035A032AE4694466206214D5C
:103580004033120EA84201D1032400E001249440EC
:103590001C4E056DE44325400565456D2540B04250
:1035A0008E7902D1CF797F003E4396402E43466507
:1035B000144FB84208D1C66E4D7A26400C7A6D0081
:1035C0002C4394403443C4661C68FF250835AC4343
:1035D0001C601C684D882C431C604C8973461C6021
:1035E0008C8963461C60B84206D10B794979490041
:1035F0000B439340016D02E0036D097991400B4349
:103600000365F0BD00C0024010B502464B88803211
:1036100093600B885360036803242404A34303606E
:10362000036801242406A343036003688C682343D2
:103630000360044B984201D10B79D360898981677B
:1036400010BD000000C0024070B504210D231B0313
:1036500018680B4C82B20948FF2A028001D300206F
:103660000AE00020074D04E0CE1836682E54401CB6
:10367000091D9042F8D30120607270BD76000020D1
:10368000F40000200C04002030B50F4C002125462A
:10369000224620354032030000F0F8FA08050709F9
:1036A0000B0D0F111306217130BD217430BD217730
:1036B00030BD297230BD297530BD117030BD117318
:1036C00030BD117630BD00000C040020F8B5874CE9
:1036D00004262078864D012802D0022806D0F1E089
:1036E0002868FFF729FE00202070EBE00024FFF798
:1036F000DFFD074601207E4A810055581368AB4222
:1037000002D18B185B685350401C3828F3D379489A
:1037100000214171784DA868B84220D17448002436
:1037200004607648AC60017875A000F09FFA71489B
:103730000179642910D0017900290DD044714179B3
:1037400076A000F093FA2878012803D0002003F037
:10375000F5F876E06420FAE702F09CFF71E0002CB7
:103760006FD100257548405D012824D060490020B4
:1037700008607348AC000059B84241D12846FFF7B1
:1037800083FF7049012008706D48394602596EA0C8
:1037900000F06CFA774C78492288662002F02CFA07
:1037A0000D200003FEF748FB0D2021880003FEF7E3
:1037B00067FB002411E04E48002101606F48391872
:1037C0004B488030C167D4E76B48015D0D20000392
:1037D0003018FEF755FB641C361D6648008884428D
:1037E000F2D344480179642906D00079002803D037
:1037F0002846FEF7E5F821E0284600F005FC1DE02C
:1038000028461C2148435E49002440180090A1002E
:103810004058B8420DD137480179642906D0007963
:10382000002803D02846FEF7CBF802E0284600F037
:10383000EBFB641C072C01D20098E8E76D1C082DF7
:1038400090D32B4C6068002804D0002100203F2238
:10385000571A0EE00020C043FFF76EFD00202FE056
:1038600085002E19625973689A4201D963517260BA
:10387000401C8742F4D8491C4029E7D30020414D21
:1038800001468200A258002A02D08B00EA50491C4F
:10389000401C4028F5D3FF2101311548FDF751FDAB
:1038A000002081006A58401C62503828F9D3E0217A
:1038B0003448FDF746FD34A0216800F0D7F9012017
:1038C0000A490870384C206801280ED1FFF7F0FC37
:1038D0002060206835490968401A20603448016832
:1038E00022688918016001F0FFFCF8BDB8000020D3
:1038F000000D0020E00E00200004002074000020D5
:1039000020636F756E74646F776E207461736B20C3
:103910007374617274203D25640A000076617269D7
:1039200061626C652E6175746F5F72756E5F6D6F2D
:103930006465203D3D2025640D0A00007E000020C6
:10394000E00C0020FD00002063757272656E745FEC
:10395000636E74203D2025642074696D65725F621A
:1039600075665F73696E676C655B695D203D2025D8
:10397000640D0A00760000200C040020803A090043
:10398000000C0020000E00204952515F6576656EE4
:103990007420302074696D696E675F627566666554
:1039A000723A2564210A0000B4000020B000002013
:1039B000AC00002010B50D4C2021204600F032F85C
:1039C000002811D02068C0B203F064F9206855289F
:1039D00002D107A000F04AF9216806A000F046F9DC
:1039E0002021204600F01AF810BD00000010004011
:1039F0000D0A000025780000704710B520214C0604
:103A0000204600F00FF8002807D02068C0B2FFF76A
:103A1000F1FB2021204600F001F810BD02690A40A8
:103A2000026170470069084000D001207047000023
:103A300070B504460D46C88889886268084329899C
:103A4000134B1A4011430843698908436060012001
:103A50008007844206D11820FDF784FF2968FDF70E
:103A600081FB60620B48844206D11C20FDF77AFF7F
:103A70002968FDF777FB60620748844206D11E2063
:103A8000FDF770FF2968FDF76DFB606270BD0000F7
:103A9000FCE0FFFF0010004000100440002AC26854
:103AA00001D00A4300E08A43C2607047016070475A
:103AB00010238B404168002A01D0194300E099434C
:103AC00041607047F8B501210846FEF7ABF8424E59
:103AD0000124002809D03079002806D1FFF7E8FB3F
:103AE000B06234710120FEF78BF800210120FEF74F
:103AF00099F80027394D002818D037710120FEF7BA
:103B00007FF8FFF7D5FBB16A401A306202280CDA61
:103B1000334801783348012912D0334949790029C3
:103B20000ED0047031A000F0A1F82C600121022019
:103B3000FEF778F800280DD03079002803D009E08E
:103B400007702FA0EFE7FFF7B3FBB06234710220DC
:103B5000FEF756F800210220FEF764F8002818D07E
:103B600037710220FEF74CF8FFF7A2FBB16A401A4A
:103B7000306202280CDA1A4827490078012827D039
:103B800019484079002823D00C7024A000F06EF86A
:103B90006C6000210520FEF745F8002803D00520C1
:103BA000FEF72EF8AC6000210E20FEF73BF800284F
:103BB00003D00E20FEF724F8EC6000210F20FEF762
:103BC00031F8002803D00F20FEF71AF82C61F8BD59
:103BD0000F7018A0DAE7000010000020EC0B0020A6
:103BE000DF000020E6000020E00E00206C65667417
:103BF0006B65795F7570203D20545255450D0A0064
:103C00006C6566746B65795F7570203D2046414C2C
:103C100053450D0A00000000E70000207269676844
:103C2000746B65795F7570203D20545255453B0D8E
:103C30000A00000072696768746B65795F757020AF
:103C40003D2046414C53453B0D0A000010B5054C44
:103C500005486178FEF714F903482178001DFEF746
:103C60000FF910BD0004002018DC00000FB410B5DF
:103C700003A9044B044A029800F024F810BC08BCC5
:103C800004B01847515200004C00002030B4744674
:103C9000641E2578641CAB4200D21D46635D5B0048
:103CA000E31830BC184702E008C8121F08C1002AF8
:103CB000FAD170477047002001E001C1121F002AAD
:103CC000FBD17047FFB58FB00F460446002606E0D3
:103CD00025280AD0129A11999047641C761C2078E6
:103CE0000028F5D1304613B0F0BD00250121A14ACE
:103CF000009500E00543641C23780846203B98406B
:103D00001042F7D120782E2815D104200543607881
:103D1000641C2A280AD101CF641C00900BE0009992
:103D20000A22514330394018641C00902078014623
:103D300030390929F3D920786C280ED004DC4C28BE
:103D400013D06A2812D104E074280ED07A280DD13D
:103D50000BE001204005054307E0012109056278D9
:103D60000D43824201D16D18641C641C2078864684
:103D700069284AD008DC0028B4D058286DD06328C0
:103D800010D0642808D140E070286BD0732812D07E
:103D9000752860D0782860D0129A704611999047A3
:103DA000761CE5E03878694608720020487202A85F
:103DB0000190012003E0386801900020C0433F1DBE
:103DC00069070CD5002500E06D1C00998D420FDAC3
:103DD0008542F9DB0199495D0029F5D108E000250C
:103DE00000E06D1C8542FCDB0199495D0029F8D19A
:103DF000761907E0019801990078491C0191129AFF
:103E0000119990476D1EF5D2B2E00A200290002170
:103E10006802400F039102280CD001CFC1178446DD
:103E200000290DDA6246084652420021814194463B
:103E30002D2008E0FF1DFF08FF0003CF8446EFE7B9
:103E4000280504D52B206A46107401203CE0E807C1
:103E50003AD02020F7E70A2000E01020002103914B
:103E6000029007E010200290002104200543082062
:103E7000039100906802400F022810D001CF00216A
:103E8000844600200D9028071FD5704670280CD05E
:103E9000029A1020039B42401A430CD015E0FF1DEC
:103EA000FF08FF0003CF8446EBE740206A4610740A
:103EB00001200D900CE06046084306D030206A4691
:103EC00010747046507402200D907046582804D02B
:103ED00029A001900DA80E900DE02CA0F9E76046F6
:103EE000039B029AFDF73AFB019B84469B5C0E9A6A
:103EF000521E0E92137060460843F0D10E9805A929
:103F0000081A20300190680701D5009801E00120CF
:103F100000900199884203DD01460198081A00E0EB
:103F200000200025009006E004A8129A405D119937
:103F300090476D1C761C0D988542F5DB04E0129AC3
:103F4000302011999047761C0099481E0090002956
:103F5000F5DC08E00E980E990078491C0E91129A33
:103F600011999047761C0199481E01900029F1DCB7
:103F7000641CB4E609280100303132333435363759
:103F800038396162636465660000000030313233A5
:103F90003435363738394142434445460000000045
:103FA00010B5184C2046FDF7B6FB02221021002068
:103FB000FDF706FC022220210020FDF701FC022271
:103FC000012311462046FDF7C7FB002206212046AB
:103FD000FDF7B4FB012207212046FDF7AFFB0121CD
:103FE0002046FDF7C6FB012211462046FDF79DFB4A
:103FF00001212046FDF786FB01212046FDF7C0FB8D
:1040000010BD000000000140F8B50C2148431C49D8
:104010007D274418A0781B4D1B4EFF00012805D1B9
:104020002879002809D0002002F088FCA078002818
:1040300017D1287964280ED010E0002210213046D4
:10404000FDF796FF384602F0CFF9012210213046E5
:10405000FDF78EFFEAE7E078642803D0E07802F00D
:104060006DFCF8BD002210213046FDF781FF384677
:1040700002F0BAF9012210213046FDF779FFF8BDB0
:10408000A0030020E00E002000200B40704700003D
:1040900010B51D4C206801282BD01C4C1CA0616859
:1040A000FFF7E4FD21786A2001F02EFD61786C2095
:1040B00001F02AFD6B20616801F0C0FD1C480288F8
:1040C0001C48824203D01C49662001F095FD1B4C20
:1040D0006179652001F018FD2179032001F0AEFD22
:1040E000E179682001F034FD0121084601F030FD3E
:1040F00010BD002002F02AFEFEF7ACFAFEF71AF916
:1041000000202060E3E700005001002000040020B0
:10411000636F756E745F6F7065722E757064617415
:104120006174696D65203D202564200D0A00000042
:1041300076000020FFFF00000C040020E00E0020AD
:104140007047000070B50120134940040860134C0B
:104150007D21C9002068FDF705F8114D014628466C
:10416000FDF79DFB00212846FDF79BFB012128461A
:10417000FDF782FB01212846FDF775FB2168094CFC
:104180002046FDF78CFB00212046FDF78AFB01212C
:104190002046FDF77BFB70BD00E100E048000020F9
:1041A000006007400070074007273F030125AD026C
:1041B0000F263C4636032046FDF73EFE6419B44206
:1041C000F9D3094909A0FFF751FD0D4900200870F6
:1041D00001213846FDF754FEBFF34F8F0A490948C5
:1041E000C860BFF34F8FFEE72906000025643A66DA
:1041F0006163746F72207265626F6F740D0A0000E4
:10420000FD0000200400FA0500ED00E010B50949AA
:1042100007480860084908600949084808600949D2
:1042200008600949FF20087001F0E2FE10BD00009F
:10423000700500208C00002090000020FC0E002063
:1042400094000020980000208A00002010B5002073
:104250000322064902F0CEFA0322044902F0CAFA08
:104260000146E92000F0C2F810BD00000F01002057
:10427000F0B585B000250095019502950395FEF7F0
:1042800099FF01F04DFB002877D03E493C4E8978DC
:10429000F078002909D0FD2424020300FFF7F6FC82
:1042A0000763071D22633742630037A04FE0FD20FC
:1042B0000002FDF7C1FD0024FD26274636023048E6
:1042C00000190179B819FDF7DBFD3F1D641CE4B24C
:1042D000FFB2102CF3D32DA039E0FEF787FA02F0DD
:1042E00047FA40E03079002804D0012805D00228A0
:1042F00008D038E001F02CFFEDE701F029FF00F0D5
:104300002DF9E8E701F024FF02F074F9E3E73179D1
:104310001F48002904D000221021FDF729FEDAE70A
:104320000122F9E70022104611466E460B191B6860
:10433000091DDBB23354C9B2FF2B01D1521CD2B2DA
:10434000401CC0B21028F1D3052A03D911A0FFF7F1
:104350008DFC08E00024315D0FA0FFF787FC641C92
:10436000E4B2102CF7D3FF2201320021044802F0FE
:10437000C2F8044845814570058105B0F0BD0000D4
:10438000850A0020500000203000000031000000AD
:1043900000200B406E0000002563000070B5114C3A
:1043A000FF25A0890835A8421BD200F091FF002804
:1043B00017D0FEF73BFF01F019FB002811D00020B9
:1043C00000F03CF92046032200210E3002F093F861
:1043D0002A460021044802F08EF80020E080207078
:1043E000A08070BD500000207707002070B5114DEF
:1043F00055222A70AA226A700022AA70E870080A60
:1044000028716971C91D8CB2601E81B2284600F006
:1044100048FF29192039C877002C09D003E02878F3
:1044200002F05AFC6D1C2046641EA4B20028F6D18E
:1044300070BD00007E08002001780A024178114317
:104440000A028178C078114309020843704710B509
:10445000FDF7AEFFFEF706F8FEF7B4FBFDF78EFEA4
:1044600010BD0000F8B52048006B0005000DFDF7F9
:104470002CF80B21C943FDF71CF81C49FCF7DCFFA5
:10448000FDF735F81A4D04462868012800D1641F4D
:10449000184F3878002806D017A0FFF7E7FB022056
:1044A00002F032FC1EE01A48844203DB0020286040
:1044B00002F02AFC4D200001201A0126342803D2E4
:1044C00001202E6002F020FC11483538844209DAC0
:1044D0003E70022002F018FC01210C2001F058FB74
:1044E00001F036FE0020F8BD0000014000404E45BE
:1044F000A0000020550100206C6F77706F77657207
:104500005F666C616720706F7765720D0A0000004E
:104510000405000001460A460020FF3A913A05D002
:1045200019225201914203D1082006E0042004E040
:10453000E1229200914200D10920E1210901484382
:104540007047000010B5C52100200902024A01236E
:10455000FDF722FA10BD00005100030110B52549F6
:104560000020086024490120087001F0F1FD0120BD
:1045700001F0D4FDFF202D3001F036FF0121642031
:10458000FEF736FC01215020FEF774FC142001F0E8
:104590002BFF01216420FEF72BFC01213C20FEF7BC
:1045A00069FC142001F020FF01216420FEF720FCAB
:1045B00001212820FEF75EFC142001F015FF0121E7
:1045C0006420FEF715FC01211420FEF753FC142093
:1045D00001F00AFF01216420FEF70AFC01210020FE
:1045E000FEF748FC142001F0FFFE04490220087089
:1045F00010BD00004C01002000010020F700002049
:10460000F0B50026F643002A04D01268D2430024F5
:10461000094F0DE03246FAE7035D5A40082355087A
:10462000D20700D032463A406A405B1EF7D1641C84
:104630008C42F1D3D043F0BD2083B8EDF1B58AB000
:10464000AD480A996E464418AC48E77827C827C693
:104650000023AB4E38461D46A12F76D00DDC012736
:10466000A8490300FFF712FB0F2D313437722F7466
:104670002FB72F2F2F2F2FBA2F00EB2870D014DC3D
:10468000E1286ED0E8286DD0EA2F1CD107252D0334
:104690000126B6022846FDF7CFFBA81985B20D20EA
:1046A00000038542F6D3EA2106E0EC2876D0ED2817
:1046B00075D0EE2F07D1EE2101208007FFF7F6F924
:1046C000F6E000F06BFF0BB0F0BD02F02FF8FAE758
:1046D00000F0F7FDF7E7A0790C468870012810D0AC
:1046E00000280CD0884908703070FFF7D1FC0020FA
:1046F000FFF7B8FE00210320FFF778FEE3E73570EF
:1047000008E03770012210218048FDF731FCA078C5
:10471000002817D17C480078022813D17B4C002256
:1047200010212046FDF724FCFF20F53001F05CFE4F
:10473000012210212046FDF71BFC7D20000101F025
:1047400053FE357001F05EFCD4E79BE04F70BAE792
:10475000207961790002081880B20026079036E0BF
:10476000ADE057E081E00A98A51981196248081860
:10477000017A407A090240180890AF790497E879E5
:104780000690287A697A0002081880B2AD1D05905B
:1047900000F095FD014600205D4A07E09BE09CE0AB
:1047A0004300D35CBB4203D0401CC0B28842F7D365
:1047B0004000801841780698814204D1291D059A4D
:1047C000049800F0B7FB08983018001D86B20798CF
:1047D0008642C8D377E7FFF759FC74E720460D30CF
:1047E00004224CA101F056FE4C4E002804D04CA0EF
:1047F000FFF73CFA357066E7E07E0A223038217F09
:10480000504330380818404241B246A0FFF72EFA14
:10481000377058E7A079002899D1E079012896D11E
:10482000214608310D22684601F045FE684601F038
:10483000F1FD7D22D2000023FCF7BEFC3A4908605E
:10484000A07D617D0002084340BA38494B22120125
:104850000880904204D9401EC04308803448057047
:10486000098834A0FFF702FA2DE7032238491846D9
:1048700001F0C0FFC0B20322354901F0BBFFC1B255
:10488000E82039E7FFF790FC204C00221021204659
:10489000FDF76EFBFF20F53001F0A6FD012210218F
:1048A0002046FDF765FB7D20000101F09DFDA1E79D
:1048B000207961790002081882B2A11D18E025480C
:1048C000EB21056001208007FFF7F0F82A210A4854
:1048D00002F0F4FAECE7EC21EEE6207961790002CF
:1048E000081885B2E91D044802F0E8FAA11D2A461D
:1048F000384601F0D7FBE6E677070020246F00007A
:10490000F5000020880000204401002000200B401A
:10491000FC6E00007472756500000000020100204A
:104920003000000025640000AC00002008010020D9
:104930000101002074696D655F7A6F6E655F3130CB
:10494000302074696D65203D202564200D0A00002B
:104950000F0100201C00002004494B2212011046C8
:10496000401EFDD1491EFAD1704700007427000097
:1049700010B50A4C55202070AA2060700020A0704D
:104980000921E170207160710621204600F07BFC56
:10499000A0710721204602F065F910BD850B0020AB
:1049A000F3B50546042683B0B1018B48FCF7C9FC7A
:1049B000E0218A48FCF7C5FC20218948FCF7C1FCAE
:1049C00008218848FCF7BDFC602229468648FCF790
:1049D0009FFC844F04980A3F0D24788024032046CE
:1049E000FDF72AFA79882046FDF74AFA002408E004
:1049F0007D48015D0D2000033018FDF741FA641C6D
:104A0000361D78888442F3DBFEF752FC7749086054
:104A1000096877A0FFF72AF900240C2127464F43A5
:104A2000714928786C39C85568787E187070A878F4
:104A3000B070E878F07028793071012862D10020D8
:104A4000411DC9B2684B695C32186C3B5171012938
:104A500028D1644901220A55D95DE122120151434E
:104A600072783C235A438918674A42435118674A6F
:104A7000126891420CD8664BC918891A5B4A1268B1
:104A8000564B89181C226243D2188300D15009E08A
:104A9000891A564A1268514B8A181C216143C91859
:104AA0008300CA50401CC0B20728C9D34D48005DDE
:104AB000002827D14C48E1216C38C05D09014843EA
:104AC00071783C2251434318524853490268981A5E
:104AD0000190009051A0FFF7C9F8019800280BDA67
:104AE000424800684849A20041183D4881503E496B
:104AF00001207918087105E03C49096841183848D7
:104B0000A2008150307900280ED1344A21461C235E
:104B100059438A1801468300401CC0B2D15007286F
:104B2000F9D32F48A2008150641CE4B20C35082C44
:104B300000D272E72C496620049A01F05DF8012842
:104B400002D0002005B0F0BD2748E0220C38816873
:104B5000FF306D300160FF3820490138FCF7D8FB89
:104B600020221F493A48FCF7D3FB1F4C0021603438
:104B700000204022571A08E085002E1962597368F8
:104B80009A4201D963517260401C8742F4DC491C8F
:104B9000C9B24129ECD32FA0FFF768F800200E4DD1
:104BA00001468200A258002A03D08B00491CEA501B
:104BB000C9B2401CC0B24128F3D30024A000295838
:104BC0002EA0FFF753F8641CE4B2412CF6D32E4913
:104BD00001200870B6E70000000D0020000C002046
:104BE000E00C00207E0000200C040020B00000201B
:104BF00063757272656E742052544374696D653AC0
:104C00002564200D0A00000080510100CC00002026
:104C1000803A0900D0000020DF02000025642073E4
:104C2000696E676C655F74696D696E673A256420AB
:104C300074696D657276616C7565203A2025642013
:104C400074696D655F6368613A25640A000000005D
:104C50004C0500202D2D2D2D2D2D2D2D2D2D2D2DC7
:104C60002D2D2D2D2D2D2D2D2D2D2D2D2D2D2D2D74
:104C70002D2D2D2D2D2D2D0A0000000074696D6540
:104C8000723A256409000000B8000020F8B53149E7
:104C900004462E4F00780A7801262B4B2C4D39788C
:104CA000002807D0012822D002281FD11878012817
:104CB00036D012E0187801280FD1002A0DD1002932
:104CC0000BD125A0FEF7D2FF26482E704672217820
:104CD000012000F03DFF642032E000221021224834
:104CE000FDF746F97D20C00001F07EFBF8BD0026EF
:104CF0002E702178012000F02BFFFEF789F91B4868
:104D0000067001F025FA1348194C06703E7021799F
:104D1000022000F093FF2179032000F08FFFF8BDFF
:104D2000002ADAD10029D8D112A0FEF79FFF0D4842
:104D30002E700A2141722178012000F009FF002025
:104D400001F0FCFDF8BD0000DD00002000010020A6
:104D5000DF000020FC000020316372635F666C613D
:104D6000670D0A00F00E002000200B40E00000203C
:104D7000E00E0020326372635F666C61670D0A00AB
:104D8000F0B50E46C1B00446FF21013101A8FCF781
:104D9000D8FA574F00250095BE8032462146B81DEF
:104DA000FCF7B6FA2046FCF7E4FA00BA060AE07807
:104DB0003602064335208002FDF73EF800240FE05E
:104DC0004B48801D015D352080022818FDF758F8FA
:104DD0004848015D48482818FDF752F8641C2D1D0D
:104DE000B8888442ECD331466B2000F027FF43495A
:104DF00001284E6002D0002041B0F0BD3F4840780D
:104E000001284FD1002E67D03C4D00203C4CAA68B1
:104E1000074681006358934200D16750401C3828F0
:104E2000F7D3FEF745FA37490A78002A04D0364806
:104E30000068A8600F7003E03C214E433018A86062
:104E400032A0A968FEF712FF002001AE81002C4AB3
:104E5000401C525872504028F8D3A86800213D9059
:104E600000203F22571A08E08400A51932596B68C8
:104E70009A4201D933516A60401C8742F4D8491CD8
:104E80004029EDD300201E4B01468200B258002A73
:104E900002D08C001A51491C401C4028F5D32249ED
:104EA00001200870154D6878002815D1144A06466F
:104EB00081005358AC68A34202D1AE6056500090B6
:104EC000401C3828F4D3009804E081008B185B68FC
:104ED0005350401C3828F8D3094D0024A00029580D
:104EE00012A0FEF7C3FE641C382CF7D3012083E721
:104EF000740000200C01002020D4000000040020D9
:104F0000000D0020FE0000202C010020636F756E54
:104F1000745F6F7065722E6C6F63616C74696D6520
:104F2000203D2025640D0A00B8000020656E643A1B
:104F300025640900F8B506467A48002517460C4650
:104F40000560FDF785FD314677A0FEF78FFE7A48B4
:104F500042797A4801787AA0FEF788FE3046012629
:104F6000672854D012DC102841D008DC012817D063
:104F700002281AD0042828D0052820D12CE0132894
:104F80003CD0652873D06628F7D182E068380300EA
:104F9000FEF77CFE0949C585B49960C5C5B9C50051
:104FA00039462046FFF772FE77E03946204600F08A
:104FB000BBFE6C49E0780A78002A01D00D70AEE0A3
:104FC0005E490E7001F0BAFCA9E02046394600F0B7
:104FD000A9FE0146042005E02046394600F0A2FE65
:104FE0000146052000F0B4FD012850D072E02046B3
:104FF000394600F097FE01461020F3E72046394677
:1050000000F092FE0146132000F018FEECE7247831
:105010006720214600F09CFD01285BD152480470B6
:10502000FCF7B0FD33E027786820394600F090FDAA
:1050300001284FD14D4C277021784DA0FEF716FE68
:105040002078002823D101F083F85048057025709E
:105050004F4809E024786D20214600F079FD0128B1
:1050600038D14C4804704C48057010E0FFE72478B4
:105070003148012C08D045710573FFF761F82146CE
:10508000652000F041FDAFE746710673F5E7344651
:1050900045E039462046FFF783FC04463FE021788F
:1050A0003E4C6A20217000F02FFD012812D120789B
:1050B0003B4C2070FCF7BEFC37208002C069C1B2B7
:1050C000217038A015E024786C20214600F01CFDEA
:1050D000012801D02C4622E03148012C0CD045702B
:1050E000FCF798FC372080028069C1B22C484170DF
:1050F00030A0FEF7BBFDCAE74670F1E7394620460F
:10510000FFF73EFEC9E700210C2000F041FD01F051
:105110001FF8164805702A492AA0FEF7A7FD204669
:10512000F8BD00001C0000204450206973737565B1
:10513000643A25640D0A0000E00E0020DF00002024
:105140002074795F636F6E74726F6C3A25642061AE
:1051500075746F5F72756E5F6D6F64653A25640D6F
:105160000A000000DE000020D4000020BD00002066
:1051700063616C6962726174696F6E2073746174CB
:1051800075733A25640D0A2000000000DC00002041
:10519000FA000020BE000020BF00002074000020A4
:1051A0000004002067737769746368203D202564DC
:1051B0000D0A0000666C6167203D2025640D0A0021
:1051C0008204000025643A436C6F7365207468653F
:1051D0002070726F6D70742077696E646F77210D27
:1051E0000A000000F3B581B000280AD0002107258D
:1051F00000912D03C821FBF7B5FF06460F4600249A
:105200000EE00120FEBDC8221049284600F04DFDE9
:105210006A46C8210D48FFF7F3F9641CC8350090B1
:10522000B442F0D3781EC7280AD23A460749284626
:1052300000F03BFD6A4639460448FFF7E1F900906B
:105240000298009901600020FEBD0000600100206E
:1052500070B50125044681B2AD072846FEF726FC4D
:10526000AE1531462846FEF7DDFB0028F9D0204672
:1052700070BD10B500F038F8FEF7E6F9FCF7EAFB70
:10528000FDF7E6FB10BD034610B50020024605E021
:105290001C78521C2018C0B292B25B1C8A42F7D311
:1052A00010BD034610B50020024605E01C78521CD4
:1052B0002018C0B292B25B1C8A42F7D310BD1320F3
:1052C000704710B500210220FFF790F810BD0000D4
:1052D000044841688068814201D001207047002065
:1052E000704700008800002010B50B4C552020703E
:1052F000AA2060700020A070E121E17020710120DF
:105300006071A07107212046FFF7BDFFE071082101
:10531000204601F0A7FC10BD850B002070B5372199
:105320008902886986B0174DC0B26870C969164C89
:10533000C9B22970A268154E337801930292049184
:105340000390E079009063792268217910A0FEF73C
:105350008DFC19A0FEF78AFC1C48FCF76DFD1C496A
:105360000020487064212171206001216171217346
:10537000E0713070A06069702970FEF767FC06B0BC
:1053800070BD000000040020E00E0020D4000020CA
:1053900035333A25640925640925640925640925FE
:1053A000642025642035335F636F756E743A202561
:1053B000642025640D0A00006167652063616C69E3
:1053C00062726174696F6E2E200D0A0004DC0000A9
:1053D000DC00002070B5012210211046FCF7F0F926
:1053E000514C1020A062014602222046FCF7A6FD87
:1053F000032210212046FCF781FD012210212046C6
:10540000FCF774FD0122950329460020FCF7D8F92A
:10541000A562464E022229463046FCF78FFD032244
:1054200029463046FCF76AFD012229463046FCF742
:105430005DFD002229463046FCF79AFD0122D50386
:1054400029460020FCF7BCF9002229463046FCF72B
:105450004DFD002229463046FCF770FD0122294609
:105460003046FCF763FD0122950229460020FCF737
:10547000A7F9002229463046FCF738FD02222946CA
:105480003046FCF75BFD012229463046FCF74EFD15
:10549000012211461046FCF793F90125A56202226C
:1054A00029462046FCF74AFD012211462046FCF71A
:1054B00025FD012211462046FCF718FD012202219C
:1054C0001046FCF77DF90220A06202460146204604
:1054D000FCF734FD012202212046FCF70FFD0122DA
:1054E00002212046FCF702FD012211460220FCF7B2
:1054F00067F90F4CA562022201212046FCF71EFD30
:10550000012211462046FCF7F9FC012211462046F3
:10551000FCF7ECFC012211462046FCF729FD002097
:1055200000F0FCFD70BD000000200B4000000B40AF
:1055300000400B407FB50024FF25013521460123A3
:105540002A460846FCF728FA69460C8010487D2157
:10555000C9000068FBF706FE6946401E48800C71D2
:1055600002940C4C8D812046FEF74EF829462046C9
:10557000FDF7AEFF084A29011160012229462046A5
:10558000FDF7EAFF01212046FDF7A7FF7FBD0000E0
:105590004800002000E0064000E100E010B50A4BA2
:1055A00000201978002907D0012101F031F9C1B29A
:1055B0000020FEF71BFF10BD002101F029F9C1B248
:1055C00001201870F4E700008800002010B5094899
:1055D000002101700848027B012A08D04171074A66
:1055E0005174037B427906A0FEF740FB10BD0122F7
:1055F0004271F4E7DF000020E00E0020F4000020FC
:105600006B65795F64656C61795F70726F636573F8
:10561000735F63616C6C6261636B2074795F636F4D
:105620006E74726F6C3A2564206175746F5F727569
:105630006E5F6D6F64653A25642025640D0A000075
:1056400000200449044B0122C8631A70034B5871AF
:105650004A747047F4000020DF000020E00E0020B4
:10566000FEB50024022100940194224608460294CB
:10567000FCF7A6F8394F002202213846FCF736FC29
:10568000002202213846FCF759FC0122022138464B
:10569000FCF74CFC02210120FCF77CF80120009073
:1056A00068460471C48004260672FCF7CFFA012113
:1056B0000846FCF7DBFA2A4D10202860002204215E
:1056C0000220FCF77DF8002204213846FCF70EFC8E
:1056D000002204213846FCF731FC0122042138461F
:1056E000FCF724FC02210846FCF754F80220009045
:1056F00068460471C4800672FCF7A8FA01210220F2
:10570000FCF7B4FA0526202028600146002201207B
:10571000FCF756F8134F002220213846FCF7E6FB31
:10572000002220213846FCF709FC012220213846BE
:10573000FCF7FCFB01210520FCF72CF868460096DD
:105740000471C48003210172FCF780FA0121052055
:10575000FCF78CFA40202860FEBD000000400B40A2
:1057600000E100E000200B4070B52C490025087BCB
:105770002B4C2C4E002801D025600EE02A4B2268CD
:105780009A420ADD3268002A07D18A6A002A04D1C7
:10579000002802D18879002802D0087C00283CD05B
:1057A00000F058F8256000F0D3FC0120306001F0D3
:1057B00007FA002201211D48FCF7DAFB0122102123
:1057C0001B48FCF7D5FB0120FCF722FA0220FCF76E
:1057D0001FFA0520FCF71CFA0E20FCF719FA0F201F
:1057E000FCF716FA0120FCF765FA00211148FBF7D7
:1057F00089FFFDF75DFD104908601048FDF778FE50
:105800000F48FDF775FE0FA0FEF730FA0120FDF7F7
:105810009DFBFEF7C5FBFFF723FF70BDF4000020E2
:105820001C000020A80000203075000000400B4044
:1058300000200B4000000140B000002000C00240EA
:1058400000400740656E74657220736C657070214E
:105850000D0A000010B5FCF73BFA10BD70B5012130
:1058600009030020FDF784FA25A127A0FEF7FEF921
:1058700001F03AFBFEF7CAFCFEF764FE01F0B8F94E
:1058800001F0E4FAFFF7ECFEFFF7A4FDFEF788FB5A
:10589000FFF750FEFEF756FC00F082FF01F03AF8E9
:1058A000FFF73CFDFEF7D2FCFFF7E3FC1A490120AD
:1058B00008600020FDF730FB0120FDF71FFB0120F1
:1058C0008005FDF79BFB0120FDF78AFB0120FDF71A
:1058D00079FB0124114DA40221462846FCF743FB25
:1058E00000280AD000F044FF002221462846FCF799
:1058F0001DFBFCF7B5FF002070BDFCF7CDFFFAE7FC
:10590000312E322E3900000056455253494F4E2059
:1059100025730D0A0000000000E100E000000B40CC
:10592000F8B500272F4E304D0446882809D06878F6
:10593000FF2201320300FEF7A9F906520C241434A9
:105940004024642000F050FD0120687068893454C0
:1059500003E068893454032068706889401C6881BA
:105960003DE0688934546889698930182038C07FDF
:105970000002715C084328816989491C6981904251
:1059800008D90021174800F0B6FD00206881687032
:10599000288124E0002801D0042000E00520687060
:1059A0001DE068893118401C68810C702889401EF0
:1059B0000004000C2881F1D011E068893118401CE6
:1059C00068810C706889401E81B20648FFF75BFC55
:1059D000844201D0002000E00120A8700127384651
:1059E000F8BD0000850A002050000020F0B53D4BB6
:1059F00001465878187000279A78FF261C465A707E
:105A000008360E3C99703D46552803D1AA2A01D18B
:105A1000080008D0227834481300FEF737F90661F1
:105A20001A21284F5B3A324600212F4800F063FDCF
:105A300003222C492C4800F03EFD03220021294876
:105A400000F059FD0320E080012020702846A58049
:105A5000F0BDE2888018521CE280017002202BE029
:105A6000E2888018521CE2800170032024E0E28862
:105A70008318521CE2801970E188E28841182039AD
:105A8000897F090280182038C07F0143A180B1427C
:105A90000DD903220021134800F02DFD32460021CC
:105AA000114800F028FDE5802570A58018E0002948
:105AB00001D0042000E00520207011E0E288801869
:105AC000521CE2800170A088401E0004000CA080DF
:105AD000F1D005E0E2888018521CE28001700127B5
:105AE0003846F0BD5E00002077070020FEF734FF47
:105AF000BFF34F8F03490248C860BFF34F8FFEE7E3
:105B00000400FA0500ED00E010B50C460F4902460E
:105B100009780020012914D0114600F079FE0121F6
:105B200000F076FE002100F073FE012100F070FE0F
:105B3000002C08D0012100F06BFE01460720FEF783
:105B400055FC012010BD0021F5E700009C0000205D
:105B500010B50C460D49024609780020012912D0E3
:105B6000114600F055FE042100F052FE002100F025
:105B70004FFE012100F04CFE214600F049FE014697
:105B80000720FEF733FC012010BD00009C00002020
:105B900070B50C461749024609780020012922D029
:105BA000114600F035FE052100F032FE002100F024
:105BB0002FFE210A19D0210C250A002917D0042113
:105BC00000F026FE210E00F023FE2102090E00F057
:105BD0001FFEE9B200F01CFEE1B200F019FE014622
:105BE0000720FEF703FC012070BD0121F2E702212E
:105BF000EDE700009C00002070B50D460E491446EC
:105C0000024609780020012913D0114600F000FE59
:105C1000002100F0FDFD210A00F0FAFDE1B200F0E4
:105C2000F7FD2246294600F0E5FD01460720FEF774
:105C3000DDFB012070BD00009C00002010B50C466B
:105C4000124902460978002001291DD0114600F0B2
:105C5000DFFD022100F0DCFD002100F0D9FD042170
:105C600000F0D6FD210E00F0D3FD2102090E00F058
:105C7000CFFD2104090E00F0CBFDE1B200F0C8FD1C
:105C800001460720FEF7B2FB012010BD9C0000205A
:105C900070B5451801260446B60203E02046FCF71D
:105CA000CBF8A419AC42F9D370BDF7B50646002075
:105CB00082B017460546044600900BE0306800901D
:105CC0000398042240196946FBF722FB241D2D1D71
:105CD000E4B2361DBC42F1D305B0F0BDF0B51646B6
:105CE00087B0044687190D466846FCF7B1F80020D6
:105CF00006E02158491C02D0462007B0F0BD001D27
:105D0000B042F6D30AE00422294606A8FBF700FBBE
:105D100020460699FCF7B4F8241D2D1DBC42F2D391
:105D20004F20EAE70078704700B5FEF785FB00BD1D
:105D3000F0B5C3B00024454901940C6044490546C0
:105D40000878032802D0087804287AD168782A785D
:105D5000000210433E4A40BA5080E978AB7809020D
:105D600092881943521C49BA904203D0002801D0AE
:105D7000012446E0C82901D9052442E0354807211D
:105D8000006B090347183448874200D301243805C3
:105D900008D1012109033846FFF77AFF002801D016
:105DA00004242EE0002C2CD1E878A97800020843C6
:105DB00046BA3246A91D02A8FBF7AAFA324602A942
:105DC0003846FFF78BFF4628EAD0224A3146683230
:105DD00002A8FEF715FC1F498866086B8019086346
:105DE000086F801908671A4801218078C906C00623
:105DF000C84206D1FF221D2079321649C002FFF7A2
:105E00006DFF68460470124D042028700122694617
:105E1000019800F0EFFC0146ED20FEF7E7FA002CB8
:105E200011D00020287000F0EDF8FF2479342146CD
:105E30000848FBF786FA1D2022460649C002FFF7F4
:105E40004DFF43B0F0BD6888A880FAE71C00002031
:105E50006400002028020020FF0F0600F0B5044671
:105E60008DB000200B905B480078012873D1207A18
:105E7000617A000409020818A17A10220D1821463F
:105E80000B3155480A910990FBF766FA00282AD091
:105E90000027E07E217F000609040818617F0902BF
:105EA0000818A17F0E18E07F0106204620300278F6
:105EB0001204511842788078120251184018089044
:105EC000082246A12046FBF747FA434C543C0028E1
:105ED0000BD0012520216846FBF733FA6846057090
:105EE000002D3FD06BE00127D3E73F48854233D9EF
:105EF0003E498E4230D8002F0BD0A06CA84208D16A
:105F0000E06CB04205D1216D0898814201D1002595
:105F10001AE031483C211C38FBF713FAE6640020F4
:105F2000A564A0660898206510220A990998FBF7D5
:105F3000EFF9206F28492063FF221D2000257932C8
:105F40005439C002FFF7CAFE0721224809038160C5
:105F5000E16CC160BEE73BE0854201D80225B9E7AC
:105F60000325B7E70025089508A9206FFFF73AF940
:105F700000280ED1A06E089988420AD025671649DC
:105F8000A566FF221D2079325439C0022563FFF730
:105F9000A5FE206F6A46010E5170010C9170010A36
:105FA000D1701071A06E010E5171010C9171010A36
:105FB000D171107207480221017045808580192235
:105FC00069460B9800F016FC0146EB20FEF70EFA2E
:105FD0000DB0F0BD640000207C02002062397061C9
:105FE0003475626E0000000009020100FF9F050089
:105FF00003480021017041808180084670470000FD
:106000006400002010B5084C2078002808D0FF223A
:106010001D2079320549C002FFF760FE0020207084
:1060200000206080A08010BD6400002028020020B5
:106030007CB51A4C0025217802292DD101784278AF
:106040000906120451188278C07812025118144EB1
:10605000C8420DD1306F00280AD00020B0663067EA
:106060003063FF221D2079323146C002FFF736FE31
:10607000306F6A46010E1170010C5170010A917067
:10608000D0700320207004226946284600F0B2FB3D
:106090000146EC20FEF7AAF97CBD00006400002058
:1060A000280200203EB50C46EA381B490300FDF7E4
:1060B000EDFD05041C21262B1B000878002813D1B8
:1060C0006C462070012262700223A3700923E370E2
