:020000040000FA
:1000000018080020AD0000001701000011040000D6
:10001000FFFFFFFFFFFFFFFFFFFFFFFFFFFFFFFFF0
:10002000FFFFFFFFFFFFFFFFFFFFFFFF1B010000C0
:10003000FFFFFFFFFFFFFFFF1D0100001F0100008A
:100040000348854600F094F800480047190800006E
:100050001808002001688D464168084730B50B46F6
:10006000014600202022012409E00D46D5409D4292
:1000700005D31D469540491B254695404019154618
:10008000521E002DF1DC30BD10B5092103200022E5
:10009000C9020004012300F017F910BD70470000E9
:1000A0000000000000000000E90600001C48804736
:1000B0001C4880471C4800471C480169002908D19A
:1000C0004169002905D18169002902D1C16900294E
:1000D00009D01748C1680901090D00290ED005296A
:1000E0000CD006290AD0BFF34F8F12481249016085
:1000F00012491148C860BFF34F8FFEE70D480168F1
:100100000D48884200D070470D480E4901600948EB
:100110000D4901607047FEE7FEE7FEE7FEE7FEE7F8
:10012000B90000002D050000410000000003084058
:1001300080010840000000200400FA0500ED00E006
:1001400000810840010000000000000003460B434E
:100150009B0703D009E008C9121F08C0042AFAD27D
:1001600003E00B780370401C491C521EF9D2704703
:10017000064C0125064E05E0E36807CC2B430C3CFA
:1001800098471034B442F7D3FFF75EFFC809000068
:10019000E8090000F0B596460A461349C000461823
:1001A00000230025FF2098402C46104216D0002046
:1001B000012199408C461146C1406746394206D01C
:1001C00087000F21B9400D437146B9400C43401CD4
:1001D0000828F0D33068A843204330600833361D28
:1001E000082BDEDDF0BD00002020024070B5184D68
:1001F0000446686B4607760F00F02EF8154920601C
:10020000330000F0ABFA081405070714140E11149C
:10021000606000E06160296A6068052909D34009CF
:1002200008E00120C003F3E77D200002F0E7002092
:10023000EEE7C840A060A96A4903490F072902D028
:10024000C840E06070BD0321FFF708FFF9E7000038
:100250000080084000127A000C490868C869C20F83
:100260004868400AC007C00F0ED00948002A0BD1C9
:100270008869C00D0007000F00D110208969044A69
:100280004902890F5043C840704700000080084071
:1002900000127A001FB541090A4A89008A18002114
:1002A0002E2800D10221C006C00E1268032383400D
:1002B0001A40C24054186846FFF798FF029804B0ED
:1002C000E04010BD38800840F0B5084F7C6AFD6AF8
:1002D0003E6B84438D439643002B02D004430D4371
:1002E00016437C62FD623E63F0BD00000080084062
:1002F000F7B582B01546002808D000210091C8212A
:10030000FFF7ACFE06460F4600240FE0012005B0C3
:10031000F0BDC8221049284600F0DAFA6A46C82122
:100320000D4800F037FA641CC8350090B442F0D391
:10033000781EC7280AD23A460749284600F0C8FA6C
:100340006A463946044800F025FA0090039800995F
:1003500001600020DBE700003404002000B5044900
:1003600008600820C8601420086100F029F800BD6A
:100370000000084010B50A4B03218A00D418246AF3
:10038000E4438450491EF8D5196BC907C917491CA5
:100390000161196B8907C917491C416110BD000033
:1003A0000000084000B5054A106051600420D0608C
:1003B0001420106100F004F800BD000000000840A7
:1003C00010B5124910484A6902231A434A6114229F
:1003D0000A6104E00A691207920F032A01D0401E45
:1003E000F8D28A698C699C438C61910301D5022003
:1003F00010BD910701D5012010BD002801D00020BB
:1004000010BD032010BD0000FFFF0F0000000840DA
:10041000024801680029FCD0704700001800002045
:1004200010B50124240320680721490740180B490F
:10043000884212D260683B21001B890288420CD29C
:100440000749A0030860074800F0EAF821460020A9
:1004500000F04EF82046FFF7FDFD10BD0120000022
:1004600080E100E000100440FFB5044681B002982E
:100470001746221826460720C73600032546844221
:1004800001D1012300E000232946082000F040F9B3
:100490004F2813D00BE0C8221049384600F0FEF96F
:1004A000C8220E49204600F021FA4F2802D04620EB
:1004B00005B0F0BD751CC936C834C8370720000325
:1004C0008542E8D9024669460298FFF711FF009974
:1004D00004988142ECD14F20EAE700004D0500204E
:1004E00001200249800608607047000000E100E03A
:1004F000024A1140014302488160704780FFFF1F9C
:1005000000ED00E0F0B5084F7C68BD68FE688443EC
:100510008D439643002B02D004430D4316437C6069
:10052000BD60FE60F0BD000000810840F0B53749B5
:100530001020C860364E012030603649086B4025D7
:10054000284308633448002344158268272AFCD1D5
:1005500000E0446042689205FBD500E043604268D9
:100560009205FBD43360486A0322920290434862AA
:1005700048680122D202104348608868C008C0075A
:10058000FBD04868C008C000C01C4860486B4007EA
:10059000400F0328FAD1214A1068C008C000401C4F
:1005A00010600B624868A0434860086896153043A5
:1005B0000860486817153843486088688008C00795
:1005C000FBD0086BA84308630868B04308600520A7
:1005D000C005886148682043486088684008C007B3
:1005E000FBD01068C008C000801C10600B62486817
:1005F000C008C000401C4860486B4007400F0128FD
:10060000FAD11168102001431160F0BD008108404B
:10061000008308400080084000A106400002084016
:100620000021012310B59B070A46984200D181158D
:10063000074B984201D103151943064B984201D14B
:10064000C014014301231046FFF75CFF10BD0000FA
:10065000001000400010044070B504460D46C888E4
:100660008988626808432989134B1A40114308435B
:1006700069890843606001208007844206D1182000
:10068000FFF708FE2968FFF7E9FC60620B48844227
:1006900006D11C20FFF7FEFD2968FFF7DFFC606232
:1006A0000748844206D11E20FFF7F4FD2968FFF7B2
:1006B000D5FC606270BD0000FCE0FFFF0010004050
:1006C00000100440002AC26801D00A4300E08A43B7
:1006D000C260704710238B404168002A01D0194343
:1006E00000E099434160704706490869800608D5D3
:1006F000054A10680968054B1954401C8005800D97
:1007000010607047001004401C00002034000020DE
:1007100070B51546521A002B08D00A2810D00120B7
:10072000C00381420CD31F20800207E00A2807D0B3
:1007300001200003814203D33B208002824201D981
:10074000462070BD01260C46B60203E02046FFF7A6
:1007500005FEA419AC42F9D94F2070BD30B47446DF
:10076000641E2578641CAB4200D21D46635D5B00AD
:10077000E31830BC184702E008C8121F08C1002A5D
:10078000FAD17047002001E001C1121F002AFBD1FD
:1007900070470000F0B50026F643002A04D0126826
:1007A000D2430024094F0DE03246FAE7035D5A4078
:1007B00008235508D20700D032463A406A405B1EF3
:1007C000F7D1641C8C42F1D3D043F0BD2083B8ED47
:1007D00070B50E4800F0A8F80E480D4C0546806D27
:1007E000A0600C484035C06D20600A48006E606013
:1007F0000848014664314EC948304EC03B20800253
:1008000000F092F8A869E06070BD000048E80000C0
:1008100024000020B4040020FFF762FEFFF734FC40
:1008200000F09AF8FFF7D4FF174E184801681848EF
:10083000814226D1072730683F031D24C119E402F5
:10084000A1421ED23A461349FFF752FD114D1249FB
:100850002D1F68680B68984213D101203A460003A7
:100860003168FFF701FEC0B228704F28DDD10125A5
:10087000AD020F273F032046FFF770FD6419BC420D
:10088000F9D3FFF7CDFDD0E7240000203000002091
:10089000F5FAAA551400002028000020F8B50646F5
:1008A000002017460546044600900CE03068009092
:1008B0000648042240196946FFF748FC2D1D241DF7
:1008C000EDB2E4B2361DBC42F0D3F8BD4D050020B8
:1008D00070B50024234605E020C80E191B1DDBB2AD
:1008E000241D35609342F7D370BD0000F0B587B08A
:1008F000054686186846FFF73DFD0024094F0BE0CA
:100900003919042206A8FFF721FC28460699FFF7AB
:1009100049FD241DE4B22D1DB542F1D34F2007B08F
:10092000F0BD00004D050020F8B506460020094F37
:100930000546044600903068009078190422694604
:10094000FFF704FC641CE4B22D1D361D102CF2D3FD
:10095000F8BD00000C0500203EB501239B031943A0
:100960009C1107231B04184321430123FFF7ACFC10
:10097000062210210220FFF70DFC06222021022072
:10098000FFF708FCE1204002009069468C800020BF
:10099000C88008814881A4052046FFF75DFE01223A
:1009A00011462046FFF78EFE012200212046FFF768
:1009B00091FE012211462046FFF78CFE0149E0110D
:1009C00008603EBD00E100E0E809000010000020E2
:1009D00024000000760700000C0A0000340000200C
:1009E000E407000084070000000000000000000091
:1009F00000000000000000000000000000000000F7
:0C0A0000000000000000000000000000EA
:020000040000FA
:10100000100D0020AD1000007F1F00003D1E0000ED
:10101000FFFFFFFFFFFFFFFFFFFFFFFFFFFFFFFFE0
:10102000FFFFFFFFFFFFFFFFFFFFFFFF3123000078
:10103000FFFFFFFFFFFFFFFFDD2100009523000002
:10104000251F00008922000021110000E91800007E
:10105000451900004D19000055190000FFFFFFFF62
:101060005B150000FFFFFFFF21110000FFFFFFFFE6
:10107000A91C000021110000211100002111000015
:10108000211100004D160000211100002111000067
:101090002111000021110000211100006B26000029
:1010A000FFFFFFFF49260000692600001D4880471A
:1010B0001D4880471D4800471D480169002908D187
:1010C0004169002905D18169002902D1C16900293E
:1010D00009D01848C1680901090D00290ED0052959
:1010E0000CD006290AD0BFF34F8F13481349016073
:1010F00013491248C860BFF34F8FFEE70E480168DE
:101100000E48884200D070470E480F4901600A48D7
:101110000E4901607047FEE7FEE7FEE7FEE7FEE7E7
:10112000FEE70000B91000009D23000051110000EF
:101130000003084080010840000000200400FA0578
:1011400000ED00E000810840010000000000000008
:101150000348854600F0CCF90048004701350000FF
:10116000100D002030B50B4601460020202201243E
:1011700009E00D46D5409D4205D31D469540491BCB
:101180002546954040191546521E002DF1DC30BD14
:1011900070B500242546002801DA012440420029C8
:1011A00001DA01254942FFF7DDFFAC4200D04042A1
:1011B000002C00D0494270BD03460B439B0703D06F
:1011C00009E008C9121F08C0042AFAD203E00B780C
:1011D0000370401C491C521EF9D27047D2B201E084
:1011E0000270401C491EFBD270470022F6E710B582
:1011F00013460A4604461946FFF7F0FF204610BD85
:101200000321001D401E037812021A43491EF9D51E
:1012100010467047F8B502464A40D40F42004B00D2
:1012200052085B089A4202D20246084611464A001A
:1012300023D0C30D4A00DDB2120EAD1A202D35DACF
:1012400049020126490AF6058A19002C00D05242AB
:1012500020214F1B1146B9402A411018C20D9A4255
:1012600021D0002C17D0012D08DCDA05801AD20F0E
:101270008019D207DBB200F001F9F8BDDA05801A57
:10128000012340001B06C01880185A428018CA0F5C
:101290001043490007E04908C2071143DA05801AE4
:1012A00080194008801800F0E1F8F8BD61000122C3
:1012B000511A001BF7E70122D2075140AAE7012289
:1012C000D2075040A6E7024670B54A40D30FDB076D
:1012D00040002DD04A002AD0010E140E0002120246
:1012E0000919400A520A8418E50104465443000AC9
:1012F000120A2E045043A4194219200CC543AA18FF
:10130000120C0125AD03521C521912047F3924041A
:1013100000D0521C104301D44000491EC2B20C063A
:10132000C0092018401C4008802A02D003E0002099
:1013300070BD40084000002900DA0020184370BD4D
:10134000420005D04200120E52428A4201DB0020C8
:101350007047C90508187047C217C10F504010B533
:101360004018CA079623002100F088F810BD10B578
:1013700000229623114600F081F810BDC20F4100F3
:1013800040020123400ADB05D207090EC0187F295D
:1013900001DA00207047962903DC9623591AC840C9
:1013A00001E096398840002AF4D04042704741005D
:1013B00040020122400AD205090E80187F2901DA75
:1013C00000207047962903DC9622511AC8407047C6
:1013D00096398840704700000122D207002800DBC0
:1013E000101A002900DB511A81427047F0B51FB472
:1013F0000646002082B005464024019100901BE083
:10140000019922460F46304600F084F8049A059B65
:10141000801A994110D310461946224600F016F85A
:10142000361A8F410197224601200021009F00F0CB
:101430000DF838184D4100902046641E0028DFDC6E
:10144000019B00982946324607B0F0BD10B5202A0E
:1014500004DB0146203A9140002010BD914020233A
:101460009C1A0346E3401943904010BD002904DA5A
:10147000401C490001D140084000704770B400246E
:10148000050C05D11024000402D1002921D011241B
:10149000050E01D100020834050F01D10001241D01
:1014A000850F01D18000A41C002801DB4000641CD2
:1014B000002908D020252E1B0D46F540A14000D064
:1014C00001212943084301061B1B000ADB1D02D52D
:1014D000002070BC7047DB05181880180029F8DA66
:1014E000401C4900F5D170BC400840007047000026
:1014F000064C0125064E05E0E36807CC2B430C3C67
:1015000098471034B442F7D3FFF726FEE03C0000C2
:10151000003D000010B5202A04DB0846203AD040E8
:10152000002110BD0B46D340D0402024A21A914088
:101530000843194610BD80220029016801D01143DB
:1015400000E091430160704710B5002001221206AF
:101550000123014600F060FE10BD70478030002A74
:10156000026801D00A4300E08A4302607047930892
:1015700010B59B00181843689207D20E1F249440A0
:10158000A34391400B43436010BD5B1E12021B043A
:10159000FF3A013A13430B430168802211400B4389
:1015A00003607047CA06D20E0267490949014167C4
:1015B00070470029416F02D00122114301E0490820
:1015C000490041677047000010B50022072802D982
:1015D00001220838C0B29300054A9A1813688000A7
:1015E0000F248440A34381401943116010BD0000C3
:1015F00000200240F0B596460A461349C00046183E
:1016000000230025FF2098402C46104216D00020D1
:10161000012199408C461146C1406746394206D0A7
:1016200087000F21B9400D437146B9400C43401C5F
:101630000828F0D33068A843204330600833361DB3
:10164000082BDEDDF0BD00002020024010B50A4866
:1016500000F01CF809480168491C0160084841680D
:10166000491C416007480068012803D10648016809
:10167000491C016010BD0000006007408800002088
:1016800010000020F0000020F4000020416849080C
:1016900049004160BFF34F8F704704220029016861
:1016A00001D0114300E091430160704700290168B7
:1016B00002D00122114301E049084900016070474E
:1016C00002220029016801D0114300E0914301602A
:1016D0007047C160704781607047000003498968A6
:1016E000014201D00120704700207047008008406F
:1016F00070B5184D0446686B4607760F00F02EF85B
:1017000015492060330001F0A9F8081405070714F3
:10171000140E1114606000E06160296A6068052998
:1017200009D3400908E00120C003F3E77D2000024F
:10173000F0E70020EEE7C840A060A96A4903490F1E
:10174000072902D0C840E06070BD0321FFF70AFD01
:10175000F9E700000080084000127A000C49086890
:10176000C869C20F4868400AC007C00F0ED00948B8
:10177000002A0BD18869C00D0007000F00D110208E
:101780008969044A4902890F5043C84070470000E4
:101790000080084000127A001FB541090A4A8900FA
:1017A0008A1800212E2800D10221C006C00E12681E
:1017B000032383401A40C24054186846FFF798FF3D
:1017C000029804B0E04010BD38800840F0B5084FE2
:1017D0007C6AFD6A3E6B84438D439643002B02D0A6
:1017E00004430D4316437C62FD623E63F0BD00007E
:1017F00000800840FEB50021352292020091106859
:101800000B46214CFF28206301D3A372FEBD1F4D60
:1018100000208B181B682B54401C091D0428F8D38A
:10182000106A6946C6B20E70506AC0B24870019024
:10183000906AC7B28F703B46314615A0019A00F0FE
:10184000FDFFE1200001464301983C214843301848
:10185000C019E063E8780090AB786A78297811A025
:1018600000F0ECFF0948FFF7CBFC00BA020AE87869
:10187000120202433C204243226410A0E16B00F0BC
:10188000DDFF0120A072FEBDC80000205600002030
:101890007473203D202564202564202564200D0AD2
:1018A0000000000076616C7565203D2025782025BC
:1018B000782025782025780D0A00000049345F4FF4
:1018C000544154696D65203D202564202C205653D9
:1018D0005F436F756E7466616C736854696D6520E3
:1018E0003D202564200D0A0010B5124800218160BA
:1018F00011480268012A09D1104B1A60016002F0F8
:1019000097F8012211460E4800F0C8F9002000F0B7
:101910007FF8012000F02AF8022000F027F80520C7
:1019200000F024F80E2000F021F80F2000F01EF83F
:1019300010BD0000100000208C0000209C00002042
:1019400000400B4010B500F0F5FE10BD10B500F0E2
:10195000F1FE10BD10B500F0EDFE10BD012181407B
:101960000148416081607047404002400121814050
:1019700002488161BFF34F8F704700004040024032
:1019800010B5084A536801248440234207D0926866
:10199000C240D007C00F884201D0012010BD0020F6
:1019A00010BD0000404002400179027AC9071207C9
:1019B0001143C28800681143024A80008018016008
:1019C00070470000004002400122054B8240186829
:1019D000012902D09043186070471043FBE70000D4
:1019E0004040024010B50123084C8340012A02D038
:1019F0002069984306E06069002905D018436061BA
:101A000020691843206110BD9843F8E74040024028
:101A100005490128086903D0400040080861704763
:101A20000122D2071043F9E74040024070B500247C
:101A30000125ED03224601232946104600F0ECFB68
:101A4000072003216E100004890301232246FFF7BB
:101A5000BDFE4D4C00220221204600F005F9022176
:101A600001220846FFF7C6FD01220221204600F0B0
:101A7000F3F802210120FFF7A7FD012211461046CD
:101A8000FFF7B0FF0120FFF7C3FF032000F082FA49
:101A900000220421204600F0E7F801220421022060
:101AA000FFF7A8FD01220421204600F0D5F802210D
:101AB0000846FFF789FD012211460220FFF792FF39
:101AC0000120FFF7A5FF032000F064FA2F4C00224D
:101AD0002021204600F0C8F8012220211046FFF7FF
:101AE00089FD01222021204600F0B6F801210520C1
:101AF000FFF76AFD012211460520FFF773FF012061
:101B0000FFF786FF032000F045FA214C0022314602
:101B1000204600F0A9F8012231460020FFF76AFDB7
:101B200001223146204600F097F800210E20FFF7F1
:101B30004BFD012211460E20FFF754FF0120FFF755
:101B400067FF032000F026FA00222946204600F015
:101B50008BF8012229460020FFF74CFD012229467F
:101B6000204600F079F800210F20FFF72DFD01221B
:101B700011460F20FFF736FF0120FFF749FF032032
:101B800000F008FA70BD000000400B4000200B4040
:101B900000000B4000B5044908600820C86014200C
:101BA000086100F011F800BD0000084000B5054ACA
:101BB000106051600420D0601420106100F004F81F
:101BC00000BD00000000084010B5124910484A69E5
:101BD00002231A434A6114220A6104E00A691207C7
:101BE000920F032A01D0401EF8D28A698C699C4367
:101BF0008C61910301D5022010BD910701D5012010
:101C000010BD002801D0002010BD032010BD000031
:101C1000FFFF0F0000000840002A026801D00A43BD
:101C200000E08A4302607047F0B500242546234651
:101C3000CE0706D05E001746B7403C430327B740A7
:101C40003D4349085B1C102BF2D34169A943416114
:101C5000416921434161F0BD002A426801D00A4335
:101C600000E08A4342607047002A08D0012A09D068
:101C700082688A438260C2688A43C2607047826811
:101C80000A43F7E7C2680A43C26082688A438260F7
:101C90007047C069084000D001207047002A01D079
:101CA0004162704781627047FEB5FF2101314D48A6
:101CB00000F0EEFB4C490868401C08604B48816806
:101CC000491C81604A490978002906D049490978A8
:101CD0000B2902D1C168491CC16047490978002914
:101CE00003D046490A68521C0A60404900274869E7
:101CF000401C486142490868401C0860FF2191313E
:101D000088423BD900242546264600943D48406B36
:101D100036490005000D8861FFF729FB0B21C943F7
:101D2000FFF70EFB3849FFF7CEFA019037480088DD
:101D3000FFF71DFB0199FFF74FFB0BD26D1CEDB2B6
:101D40000098FFF714FB0199FFF764FAFFF72FFBE8
:101D5000009001E0761CF6B2641CE4B20A2CD5D3E4
:101D60002B4C052D04D929460098FFF7FBF920805C
:101D7000082E01D932202080214807602548007AAA
:101D8000012803D119480169491C01611748224AF9
:101D9000416991420EDD476141780023491C417041
:101DA000016A426A491C5A41426201621B490A683F
:101DB000521C0A6041783B2903D947708178491C3D
:101DC000817081783B2903D98770C178491CC17023
:101DD000134982688A4200DD8760C2688A4200DD5A
:101DE000C760FEBD00E00640FC000020100000209F
:101DF000D4000020A5000020280100201C010020A4
:101E0000200100200000014000404E45A8000020B5
:101E1000C400002098080020E70300009400002080
:101E2000005C2605044A4100515A103A105C8000BB
:101E30001C32105841627047AC3C00000248C16936
:101E40000029FCD0704700001000002010B5124C93
:101E500055202070AA2060700020A0700721E1703A
:101E60002071082161716B21A1710221E171207241
:101E700004216172A072E072207360730E2120460B
:101E800001F0A3F8A0730F21204601F015FE1721E1
:101E9000204601F0E3FE10BD1108002010B5164CDD
:101EA00055202070AA2060700020A0700721E170EA
:101EB0002071102161716621A171E07120720C20E6
:101EC0006072FF20A072E07220736073A073E073F1
:101ED00020746074A074E07420756075162120462B
:101EE00001F073F8A0751721204601F0E5FD1721D8
:101EF000204601F0B3FE10BD1108002010B50022ED
:101F000010210548FFF7CAFE044900200860044973
:101F10000120887010BD000000200B4088000020C8
:101F2000C800002070B50020FFF77CFF08A000F07B
:101F300085FC01250C4C05E005A000F07FFC01F0BC
:101F40008BFC257000F01CF90028F5D170BD000055
:101F50004C56445F424F445F49525148616E646C35
:101F600065720D0A000000001000002010220029F8
:101F7000016F01D0114300E0914301677047704742
:101F8000C106C90E01208840014908607047000061
:101F900000E100E0C106C90E012088400149086047
:101FA0007047000000E100E0024A1140014302488E
:101FB0008160704780FFFF1F00ED00E0F3B5012551
:101FC0000746002489B0A9032B462A462046FFF77E
:101FD000FDFB042211460120FFF70CFB1648694661
:101FE00048820C820C75280206948883134E04A93B
:101FF000304600F0E9FA02206946087064207D212D
:10200000C01B490148436421FFF7C2F86946488173
:10201000062048800D718D710D728C81304600F064
:1020200083FA01213046FFF7A1FF30460A9900F0FC
:1020300034FA0BB0F0BD00009F0F000000C002405A
:10204000F3B5012206460024520789B0D1130123BB
:102050002046FFF7BBFB0D2208210120FFF7CAFA3B
:102060001748694648820C820C75FF270137069491
:10207000144D8F8304A9284600F0A6FA3946284655
:1020800000F006FA69460C7064207D21801B49012E
:1020900048436421FFF77CF869464881072048805F
:1020A000012008714C718C71CC710C7248722846F9
:1020B00000F03AFA28460A9900F0EFF90BB0F0BDAB
:1020C0009F0F00000040074005490028086902D022
:1020D0000122104301E04008400008617047000001
:1020E00000A10640044902220028086901D01043DB
:1020F00000E090430861704700A1064005480121B7
:102100004160090342688A43FCD101680029FCD17F
:102110007047000000A1064070B5164D296B4906B6
:10212000CA0F296B40263143296313494B68DB0BE7
:10213000DB0706D14C6880239C434C604C681C43F1
:102140004C604B680824A3434B60002A02D1296BE2
:10215000B143296309490B69042213430B61002829
:1021600004D030BF08699043086170BD40BF20BFF4
:1021700020BFF7E70080084000A1064000ED00E026
:10218000024800690003C00F7047000000A106402C
:102190000122054912040028086901D0104300E01B
:1021A000904308617047000000A1064001220549E4
:1021B00012050028086901D0104300E0904308612F
:1021C0007047000000A10640034A116923235B0405
:1021D000994301431161704700A106407047000018
:1021E00070B50A4C0546206A0949884207D1206A21
:1021F000002182B2074801F053FB0020206205480D
:10220000216A4554206A401C206270BDC80000202D
:102210000702000008090020F0B5084F7C68BD687F
:10222000FE6884438D439643002B02D004430D4344
:1022300016437C60BD60FE60F0BD00000081084078
:1022400003498A6802239A43400002438A60704728
:1022500000A0064005490028886802D001221043EA
:1022600001E04008400088607047000000A0064080
:10227000014800687047000000A006400148C0689F
:10228000C0B2704700A0064010B5FFF7F7FF800707
:1022900002D502490220087010BD0000A0000020F5
:1022A000044A0029116901D0014300E08143116112
:1022B0007047000000A00640084A0823002808498B
:1022C000906805D0184390608868C006FCD57047B8
:1022D000984390608868C006FCD4704700A0064010
:1022E0000080084003498A6820239A434001024342
:1022F0008A60704700A006400149486070470000AE
:1023000000A00640034A91680F231B029943014332
:102310009160704700A00640044A0029116901D06D
:10232000014300E0814311617047000000A00640B6
:1023300070470000042204490428086902D0904331
:10234000086170471043FBE700E000E00749002800
:1023500006D00128086906D040084000086170478F
:1023600000208861704701221043F7E700E000E099
:10237000044902220028086901D0104300E090437C
:102380000861704700E000E00149486170470000C3
:1023900000E000E010B501F033FB10BDF0B53749A7
:1023A0001020C860364E012030603649086B402549
:1023B000284308633448002344158268272AFCD147
:1023C00000E0446042689205FBD500E0436042684B
:1023D0009205FBD43360486A03229202904348621C
:1023E00048680122D202104348608868C008C007CC
:1023F000FBD04868C008C000C01C4860486B40075C
:10240000400F0328FAD1214A1068C008C000401CC0
:1024100010600B624868A043486008689615304316
:102420000860486817153843486088688008C00706
:10243000FBD0086BA84308630868B0430860052018
:10244000C005886148682043486088684008C00724
:10245000FBD01068C008C000801C10600B62486888
:10246000C008C000401C4860486B4007400F01286E
:10247000FAD11168102001431160F0BD00810840BD
:10248000008308400080084000A106400002084088
:10249000C943C167BFF34F8F70470029016902D05C
:1024A0000122114301E04908490001617047000021
:1024B0000022134B10B51146984201D1821519E044
:1024C000104B984201D1012214E00F4B984202D1E7
:1024D000012212070EE00D4B984202D10122520751
:1024E00008E00B4B984201D1820403E0094B98426B
:1024F00000D1C20401230846FFF78EFE10BD000084
:1025000000E0064000C00240004003400040074099
:102510000050034000500740002A426F01D00A4398
:1025200000E08A4342677047F0B50C78A2001218A9
:10253000154613469035A032AE4694466206214DAC
:102540004033120EA84201D1032400E0012494403C
:102550001C4E056DE44325400565456D2540B042A0
:102560008E7902D1CF797F003E4396402E43466557
:10257000144FB84208D1C66E4D7A26400C7A6D00D1
:102580002C4394403443C4661C68FF250835AC4393
:102590001C601C684D882C431C604C8973461C6071
:1025A0008C8963461C60B84206D10B794979490091
:1025B0000B439340016D02E0036D097991400B4399
:1025C0000365F0BD00C0024010B502464B88803262
:1025D00093600B885360036803242404A3430360BF
:1025E000036801242406A343036003688C68234323
:1025F0000360044B984201D10B79D36089898167CC
:1026000010BD000000C0024070B504210D231B0363
:1026100018680B4C82B20948FF2A028001D30020BF
:102620000AE00020074D04E0CE1836682E54401C06
:10263000091D9042F8D30120607270BD5200002045
:10264000C80000209801002010B5064C202120462B
:1026500000F020F8002803D02068C0B201F044FA4E
:1026600010BD000000100040704710B520214C063E
:10267000204600F00FF8002807D02068C0B2FFF70E
:10268000AFFD2021204600F001F810BD02690A408C
:10269000026170470069084000D0012070470000C7
:1026A00070B504460D46C888898862680843298940
:1026B000134B1A40114308436989084360600120A5
:1026C0008007844206D11820FFF766F82968FEF7D4
:1026D00049FD60620B48844206D11C20FFF75CF87C
:1026E0002968FEF73FFD60620748844206D11E203C
:1026F000FFF752F82968FEF735FD606270BD0000F3
:10270000FCE0FFFF0010004000100440002AC268F7
:1027100001D00A4300E08A43C260704701607047FD
:1027200010238B404168002A01D0194300E09943EF
:102730004160704770B500210120FFF721F90124A5
:102740001C4D002803D00120FFF708F92C60002160
:102750000220FFF715F9002803D00220FFF7FEF84A
:102760006C6000210520FFF70BF9002803D005203D
:10277000FFF7F4F8AC6000210E20FFF701F9002804
:1027800003D00E20FFF7EAF8EC6000210F20FFF7DE
:10279000F7F8002803D00F20FFF7E0F82C610321A1
:1027A0000B20FFF7EDF8002803D00B20FFF7D6F839
:1027B0002C6170BD7808002070B51B4C2168372053
:1027C0008002FFF7F3F921791848FFF7EFF96179F3
:1027D0001648001DFFF7EAF9A17914480830FFF701
:1027E000E5F91348017811480C30FFF7DFF9114D76
:1027F0000E48297A1030FFF7D9F90C48297814309F
:10280000FFF7D4F9A16809481830FFF7CFF90A4C4F
:10281000064821681C30FFF7C9F904486168203078
:10282000FFF7C4F970BD00008C08002004DC000034
:10283000B00000208C010020140100200FB410B55E
:1028400003A9044B044A029800F024F810BC08BC09
:1028500004B01847912F00003C00002030B47446AB
:10286000641E2578641CAB4200D21D46635D5B008C
:10287000E31830BC184702E008C8121F08C1002A3C
:10288000FAD170477047002001E001C1121F002AF1
:10289000FBD17047FFB58FB00F460446002606E017
:1028A00025280AD0129A11999047641C761C20782A
:1028B0000028F5D1304613B0F0BD00250121A14A12
:1028C000009500E00543641C23780846203B9840AF
:1028D0001042F7D120782E2815D1042005436078C6
:1028E000641C2A280AD101CF641C00900BE00099D7
:1028F0000A22514330394018641C00902078014668
:1029000030390929F3D920786C280ED004DC4C2802
:1029100013D06A2812D104E074280ED07A280DD181
:102920000BE001204005054307E00121090562781D
:102930000D43824201D16D18641C641C20788646C8
:1029400069284AD008DC0028B4D058286DD0632804
:1029500010D0642808D140E070286BD0732812D0C2
:10296000752860D0782860D0129A704611999047E7
:10297000761CE5E03878694608720020487202A8A3
:102980000190012003E0386801900020C0433F1D02
:1029900069070CD5002500E06D1C00998D420FDA07
:1029A0008542F9DB0199495D0029F5D108E0002550
:1029B00000E06D1C8542FCDB0199495D0029F8D1DE
:1029C000761907E0019801990078491C0191129A43
:1029D000119990476D1EF5D2B2E00A2002900021B5
:1029E0006802400F039102280CD001CFC117844622
:1029F00000290DDA62460846524200218141944680
:102A00002D2008E0FF1DFF08FF0003CF8446EFE7FD
:102A1000280504D52B206A46107401203CE0E80705
:102A20003AD02020F7E70A2000E01020002103918F
:102A3000029007E0102002900021042005430820A6
:102A4000039100906802400F022810D001CF0021AE
:102A5000844600200D9028071FD5704670280CD0A2
:102A6000029A1020039B42401A430CD015E0FF1D30
:102A7000FF08FF0003CF8446EBE740206A4610744E
:102A800001200D900CE06046084306D030206A46D5
:102A900010747046507402200D907046582804D06F
:102AA00029A001900DA80E900DE02CA0F9E760463A
:102AB000039B029AFEF79AFC019B84469B5C0E9A4C
:102AC000521E0E92137060460843F0D10E9805A96D
:102AD000081A20300190680701D5009801E0012014
:102AE00000900199884203DD01460198081A00E030
:102AF00000200025009006E004A8129A405D11997C
:102B000090476D1C761C0D988542F5DB04E0129A07
:102B1000302011999047761C0099481E009000299A
:102B2000F5DC08E00E980E990078491C0E91129A77
:102B300011999047761C0199481E01900029F1DCFB
:102B4000641CB4E60928010030313233343536379D
:102B500038396162636465660000000030313233E9
:102B60003435363738394142434445460000000089
:102B700010B5184C2046FEF7E7FC02221021002079
:102B8000FEF738FD022220210020FEF733FD02224D
:102B9000012311462046FEF7F8FC002206212046BC
:102BA000FEF7E5FC012207212046FEF7E0FC0121AB
:102BB0002046FEF7F7FC012211462046FEF7CEFC28
:102BC00001212046FEF7B7FC01212046FEF7F1FC6B
:102BD00010BD00000000014070B51E4C20680128A7
:102BE0000BD11DA0FFF72AFE002000F0D9FFFFF750
:102BF00055F9FFF72BF900202060234C61796520FF
:102C000000F042FDA179692000F03EFD1F4D6C20CF
:102C1000297A00F039FD29786A2000F035FD1C483A
:102C20000078002807D12179022000F0C7FD217922
:102C3000032000F0C3FD17480078002805D016488F
:102C400016490288662000F097FD0121084600F031
:102C50003FFD70BD240100202D2D2D2D2D2D2D2D5E
:102C60002D2D2D2D2D2D2D2D2D2D2D2D2D2D2D2D94
:102C70002D2D2D2D2D2D2D2D2D2D2D2D2D2D2D2D84
:102C8000797964730D0A00008C0800208C01002003
:102C9000D4000020D1000020520000209801002024
:102CA00070B50120134940040860134C7D21C90010
:102CB0002068FEF757FA114D01462846FEF709FD38
:102CC00000212846FEF707FD01212846FEF7EEFC0D
:102CD00001212846FEF7E1FC2168094C2046FEF759
:102CE000F8FC00212046FEF7F6FC01212046FEF705
:102CF000E7FC70BD00E100E0380000200060074004
:102D00000070074010B50949074808600849086085
:102D1000094908480860094908600949FF20087006
:102D200000F076FD10BD0000FC02002068000020CD
:102D30006C000020080900207000002074000020B2
:102D40006600002010B500200322064900F02EFE88
:102D50000322044900F02AFE0146E92000F004F8AD
:102D600010BD0000E300002070B5114D55222A70FF
:102D7000AA226A700022AA70E870080A2871697194
:102D8000C91D8CB2601E81B2284600F02CF92919A9
:102D90002039C877002C09D003E0287800F0C6FE5F
:102DA0006D1C2046641EA4B20028F6D170BD000040
:102DB0000A060020F1B52E48006B0005000DFEF755
:102DC000CBFA0B21C943FEF7BBFA2A49FEF77BFA7F
:102DD000FEF7D4FA284D04466868012800D1A41EE5
:102DE0006001211825A0FFF729FD2A4F3878002817
:102DF00006D029A0FFF722FD022000F0AFFE34E04C
:102E00002B49002001268C4201DA2E7000E0287048
:102E1000AA6800998A4228D32549A86086318C4245
:102E200006DB686023A0FFF709FD002000F096FE96
:102E30004D200001201A342806D220A0FFF7FEFC06
:102E400001206E6000F08AFE1948513084420CDA8D
:102E50003E701DA0FFF7F2FC022000F07FFE012172
:102E60000C2000F055FC00F0F7FC0020F8BD00003D
:102E70000000014000404E457C000020766F6C61F0
:102E8000746167652076616C7565203D202025643E
:102E90000D0A0000290100206C6F77706F77657252
:102EA0005F666C616720706F7765720D0A000000C5
:102EB0007E04000066756C6C0D0A00004D6F646541
:102EC000726174650D0A00006C6F7720706F776512
:102ED000720D0A0010B5C52100200902024A012323
:102EE000FEF774FC10BD00005100030110B5254928
:102EF0000020086024490120087000F0ADFC01208A
:102F000000F090FCFF202D3000F0B4FC0121642083
:102F1000FFF754F801215020FFF792F8142000F039
:102F2000A9FC01216420FFF749F801213C20FFF7AB
:102F300087F8142000F09EFC01216420FFF73EF882
:102F400001212820FFF77CF8142000F093FC0121D8
:102F50006420FFF733F801211420FFF771F81420E3
:102F600000F088FC01216420FFF728F801210020EF
:102F7000FFF766F8142000F07DFC04490220087079
:102F800010BD000020010020D4000020CB00002054
:102F900070B50125044681B2AD072846FFF7BEFB98
:102FA000AE1531462846FFF775FB0028F9D02046BC
:102FB00070BD10B500F026F8FFF726FBFEF71AFCEF
:102FC000FEF79CFFFFF708FE10BD034610B500207A
:102FD000024605E01C78521C2018C0B292B25B1C5D
:102FE0008A42F7D310BD034610B50020024605E023
:102FF0001C78521C2018C0B292B25B1C8A42F7D3D4
:1030000010BD000070B5104C55202070AA206070D3
:103010000025A570E120E070257101206071A0718C
:1030200007212046FFF7D1FFE0710821204600F07C
:1030300043FD06484178491C4170054864210570EC
:103040000448FEF7D2F870BD110800207900002076
:10305000C6000020A4080020F8B53724A402206888
:10306000224D286060682871A0686871E068A871C6
:1030700020691F49087060691E4E3072A069307067
:10308000E069A860216A1C480160616A41602868A3
:103090000127401C0FD02868002801D0174847702E
:1030A0000221682000F014FBA979154801291BD0E2
:1030B00064210160F8BD2046FEF76CFD012080020E
:1030C0002418072040038442F5D30C49002048709F
:1030D0006421297128606F71A871054908703772E1
:1030E0003770FFF769FBDFE75021E2E78C0800202B
:1030F000B00000208C01002014010020B800002046
:103100009000002070B5012210211046FEF772FADF
:10311000514C1020A062014602222046FEF7A4FD79
:10312000032210212046FEF77FFD012210212046B8
:10313000FEF772FD0122950329460020FEF75AFA98
:10314000A562464E022229463046FEF78DFD032237
:1031500029463046FEF768FD012229463046FEF733
:103160005BFD002229463046FEF798FD0122D5037B
:1031700029460020FEF73EFA002229463046FEF797
:103180004BFD002229463046FEF76EFD01222946FE
:103190003046FEF761FD0122950229460020FEF728
:1031A00029FA002229463046FEF736FD022229463A
:1031B0003046FEF759FD012229463046FEF74CFD08
:1031C000012211461046FEF715FA0125A5620222DA
:1031D00029462046FEF748FD012211462046FEF70B
:1031E00023FD012211462046FEF716FD0122022191
:1031F0001046FEF7FFF90220A06202460146204673
:10320000FEF732FD012202212046FEF70DFD0122CC
:1032100002212046FEF700FD012211460220FEF7A2
:10322000E9F90F4CA562022201212046FEF71CFDA0
:10323000012211462046FEF7F7FC012211462046E6
:10324000FEF7EAFC012211462046FEF727FD00208A
:1032500000F0E8FA70BD000000200B4000000B40B9
:1032600000400B407FB50024FF2501352146012396
:103270002A460846FEF7AAFA69460C8010487D21C6
:10328000C9000068FDF76EFF6946401E48800C715A
:1032900002940C4C8D812046FFF796F92946204672
:1032A000FFF7F6F8084A2901116001222946204655
:1032B000FFF732F901212046FFF7EFF87FBD00004C
:1032C0003800002000E0064000E100E0FEB50024E8
:1032D000022100940194224608460294FEF78AF9DE
:1032E000002202214D48FEF797FC002202214B48A4
:1032F000FEF7BAFC012202214848FEF7ADFC02218C
:103300000120FEF761F90120009068460471C48035
:1033100003250572FEF748FB01210846FEF754FB22
:103320000420FEF72DFE01260022F602314610464B
:10333000FEF760F93A4F002231463846FEF76CFC42
:10334000002231463846FEF78FFC012231463846CE
:10335000FEF782FC00210B20FEF736F90B200090CF
:1033600068460471C4800572FEF71EFB01210B2024
:10337000FEF72AFB0620FEF703FE002204210220AE
:10338000FEF738F9002204212448FEF745FC00220C
:1033900004212248FEF768FC012204211F48FEF7A1
:1033A0005BFC02210846FEF70FF9022000906846F8
:1033B0000471C4800572FEF7F7FA01210220FEF7BE
:1033C00003FB0520FEF7DCFD002220210120FEF793
:1033D00011F9144E002220213046FEF71DFC002278
:1033E00020213046FEF740FC012220213046FEF726
:1033F00033FC01210520FEF7E7F805200090684620
:103400000471C4800572FEF7CFFA01210520FEF792
:10341000DBFA0620FEF7B4FDFEBD000000400B40C5
:1034200000000B4000200B4070B5294C294A216850
:10343000294D2A4891420BDD2968002908D1816A6B
:10344000002905D1017B002902D18179002902D010
:10345000007C00283AD000F04FF80020206000F0F7
:10346000FBF90120286000F0D5FA002201211C4858
:10347000FEF714FC012210211A48FEF70FFC012070
:10348000FEF774FA0220FEF771FA0520FEF76EFAD5
:103490000E20FEF76BFA0F20FEF768FA0120FEF708
:1034A000B7FA00211048FEF746F8FEF7E1FE0F4993
:1034B00008600F48FEF7FCFF0E48FEF7F9FF0120F9
:1034C000FEF72AFEFFF754FBFFF700FF70BD000078
:1034D00018000020307500008C000020C80000207B
:1034E00000400B4000200B400000014098000020ED
:1034F00000C002400040074010B5FEF797FA10BD2B
:10350000012109030020FEF74FFD4DA14EA0FFF75A
:1035100095F900F0B9FBFFF7F5FBFFF7DBFC00F0D6
:1035200091FA00F063FBFFF7D1FEFFF7EBFDFFF729
:103530001FFBFFF797FEFFF7B3FB00F00DFA00F05B
:103540004BFAFFF789FDFFF7FDFBFFF732FD072080
:1035500000030068404908604049012008600020DD
:10356000FEF7C0FD0120FEF7AFFD03204004FEF78B
:103570002BFE0120FEF71AFE0120FEF709FE384F50
:10358000012210213846FEF789FB364E20213846AD
:10359000FEF77FFB002801D100F05EF9324C0221DA
:1035A0002046FEF776FB002801D1FFF79FFC04219F
:1035B0002046FEF76EFB002801D100F07DF92B4874
:1035C00001882B480088814202D830780028DDD05D
:1035D0000124002210213846FEF760FB00F03CF980
:1035E000FEF746FE3C300546014622A0FFF726F9CD
:1035F0002846FEF781FEFFF717FF0020FFF7DAFBF2
:10360000204D2878022807D100F056F90024012225
:1036100010213846FEF742FB2878012808D1002CFB
:1036200006D0FFF763FC012210213846FEF736FB77
:10363000002030707D20C00000F01CF9A6E70000DB
:10364000312E322E3400000056455253494F4E2041
:1036500025730D0A000000002401002000E100E0B5
:1036600000200B401000002000400B40C400002050
:10367000A80000207369676E203D202564200D0A94
:1036800000000000CB00002010B50C460F49024698
:1036900009780020012914D0114600F095F9012184
:1036A00000F092F9002100F08FF9012100F08CF96F
:1036B000002C08D0012100F087F901460720FFF710
:1036C00053FB012010BD0021F5E700007800002029
:1036D00010B50C460D49024609780020012912D088
:1036E000114600F071F9042100F06EF9002100F09C
:1036F0006BF9012100F068F9214600F065F90146F7
:103700000720FFF731FB012010BD000078000020EA
:1037100070B50C461749024609780020012922D0CD
:10372000114600F051F9052100F04EF9002100F09A
:103730004BF9210A19D0210C250A002917D00421A0
:1037400000F042F9210E00F03FF92102090E00F0CD
:103750003BF9E9B200F038F9E1B200F035F9014681
:103760000720FFF701FB012070BD0121F2E70221D4
:10377000EDE700007800002070B50D460E491446B4
:10378000024609780020012913D0114600F01CF9E7
:10379000002100F019F9210A00F016F9E1B200F059
:1037A00013F92246294600F001F901460720FFF7E8
:1037B000DBFA012070BD00007800002010B50C4637
:1037C000124902460978002001291DD0114600F057
:1037D000FBF8022100F0F8F8002100F0F5F80421D0
:1037E00000F0F2F8210E00F0EFF82102090E00F0CF
:1037F000EBF82104090E00F0E7F8E1B200F0E4F87C
:1038000001460720FFF7B0FA012010BD7800002024
:103810000348002101704180818008467047000004
:103820004000002010B50B4C01280CD0002809D115
:10383000002201212046FEF731FA00220221204613
:10384000FEF72CFA10BD012211462046FEF726FA9B
:103850000122F3E700200B4010B50020FFF7E2FF44
:1038600001210020FEF7AAFB01210020FEF7E8FB62
:1038700010BD000010B504460020FEF767FD0120D2
:10388000FEF764FD05490C6008680028FCD1801E25
:10389000FEF75CFD0020FEF759FD10BDB4000020CE
:1038A00010B5031E07D001E019705B1C1446521EB0
:1038B00092B2002CF8D110BD10B524490020086048
:1038C000234801240470FFF7C7FF0120FFF7AAFF78
:1038D000FF202D30FFF7CEFF01215020FEF76EFBB9
:1038E00001216420FEF7ACFB1420FFF7C3FF012188
:1038F0003C20FEF763FB01216420FEF7A1FB1420AE
:10390000FFF7B8FF01212820FEF758FB01216420B2
:10391000FEF796FB1420FFF7ADFF01211420FEF700
:103920004DFB01216420FEF78BFB1420FFF7A2FF63
:1039300001210020FEF742FB01216420FEF780FBFD
:103940001420FFF797FF0348047010BD20010020EA
:10395000D4000020CB00002010B5134902200860DD
:10396000FEF7CCFB0020FEF7BDFC0120FEF7A4FC17
:103970001020FDF7B3FE0028FAD00120FEF760FC0E
:1039800001210220FEF78CFC0F200002FEF7BAFC9A
:1039900001214802FEF7C0FC0020C043FEF7ACFC4A
:1039A0000120FEF757FC10BD00E100E070B50446B1
:1039B000044815460019801DFDF7FEFB601980B212
:1039C00070BD00000A060020024A1218401C9171C6
:1039D00080B270470A06002010B50420C043FEF7ED
:1039E000A9FC06487D2189010068FDF7BBFBFEF7B5
:1039F000CBFC0120FEF7BCFC10BD0000380000200D
:103A000003480168002902D00168491E016070471F
:103A1000B400002010B5012291030448FEF73EF9DE
:103A20007D20C000FFF726FF10BD000000000B4006
:103A300010B50121002289030148FEF72FF910BDBE
:103A400000000B403EB5002409212246C902012393
:103A50001046FDF7BBFE062280210120FDF7CAFDBE
:103A6000FF250135062229460120FDF7C3FD4B2025
:103A7000C001009068468580C480048144810C4C5C
:103A800069462046FEF70CFE012211462046FEF74D
:103A90003DFE012200212046FEF742FE0122114692
:103AA0002046FEF73DFE0349600308603EBD00006E
:103AB0000010004000E100E0F8B50D460646002485
:103AC000084F0BE0315D3846FEF728FEFF2101313B
:103AD0003846FEF7DFFD0028F8D0641CAC42F1DB6D
:103AE000F8BD00000010004030B50B4B0B4A1968C0
:103AF0001268914203D90A4D8C1AAC420BD2914202
:103B000001D28A4207D0074A914201D3064919607F
:103B10000870491C196030BD680000206C0000204E
:103B20000702000003050020FC02002010B500F091
:103B300001F810BD70B5084C01462046FEF7EEFDB9
:103B4000A51529462046FEF7A5FD0028F9D00A2034
:103B5000FFF790FE70BD00000010004010B50F4C44
:103B600055212170AA2161700021A1700722E27005
:103B70002171052262716E22A2710422E27121720A
:103B800001216172A0720B212046FFF71EFAE0723C
:103B90000C212046FFF790FF10BD00001108002007
:103BA00010B5114C55212170AA2161700021A1701E
:103BB0000722E2702171052262716822A27104223B
:103BC000E271217201216172A0720B212046FFF780
:103BD000FCF9E0720C212046FFF76EFF172120460A
:103BE00000F03CF810BD0000110800203EB5012394
:103BF0009B0319439C1107231B04184321430123F2
:103C0000FDF7E4FD062210210220FDF7F3FC062259
:103C100020210220FDF7EEFCE120400200906946E1
:103C20008C800020C88008814881A4052046FEF7CA
:103C300037FD012211462046FEF768FD01220021D2
:103C40002046FEF76DFD012211462046FEF768FD75
:103C50000149E01108603EBD00E100E0F8B5002434
:103C600001270D460646BF070BE0315D3846FEF7DB
:103C700055FDFF2101313846FEF70CFD0028F8D034
:103C8000641CAC42F1DBF8BD034801210170022144
:103C90004170042181707047E3000020020201019D
:103CA00001010101010101010C07080004000800E5
:103CB000400000108000000100000B4000200B407D
:103CC00000400B4000000000000000000000000069
:103CD0000010044000001000060000002000060054
:103CE000003D0000100000201C01000076280000AC
:103CF0001C3E00002C010020E40B00008628000080
:103D000000000000000000000000000000000000B3
:103D100000000000000000000000000000000000A3
:103D20000000000000000000005A620200000000D5
:103D30000000000000000000000000000000000083
:103D40000100000000000000000000000000000072
:103D50000000000000000000000000000000000063
:103D60000000000000000000000000000000000053
:103D70000000000000000000000000000000000043
:103D800064000000010000000000000000000000CE
:103D90000000000000000000900100000000000092
:103DA0000000000000000000000000000000000013
:103DB0000100000000000000000000000000000002
:103DC00000000000000100000000000000000000F2
:103DD00000000000000000000000000000000000E3
:103DE00000000000000000000000000000000000D3
:103DF00000000000000000000000000000000000C3
:103E000000000000000000000000000000000000B2
:0C3E1000000000000000000000000000A6
:04000005000010AD3A
:00000001FF
